{
	"contracts/crowd_funding.sol": {
		"CrowdFunding": {
			"abi": [
				{
					"inputs": [
						{
							"internalType": "string",
							"name": "_name",
							"type": "string"
						},
						{
							"internalType": "string",
							"name": "_description",
							"type": "string"
						},
						{
							"internalType": "uint256",
							"name": "_goal",
							"type": "uint256"
						},
						{
							"internalType": "uint256",
							"name": "_durationInDays",
							"type": "uint256"
						}
					],
					"stateMutability": "nonpayable",
					"type": "constructor"
				},
				{
					"inputs": [
						{
							"internalType": "string",
							"name": "_name",
							"type": "string"
						},
						{
							"internalType": "uint256",
							"name": "_amount",
							"type": "uint256"
						}
					],
					"name": "addTier",
					"outputs": [],
					"stateMutability": "nonpayable",
					"type": "function"
				},
				{
					"inputs": [
						{
							"internalType": "address",
							"name": "",
							"type": "address"
						}
					],
					"name": "backers",
					"outputs": [
						{
							"internalType": "uint256",
							"name": "totalContribution",
							"type": "uint256"
						}
					],
					"stateMutability": "view",
					"type": "function"
				},
				{
					"inputs": [],
					"name": "deadline",
					"outputs": [
						{
							"internalType": "uint256",
							"name": "",
							"type": "uint256"
						}
					],
					"stateMutability": "view",
					"type": "function"
				},
				{
					"inputs": [],
					"name": "description",
					"outputs": [
						{
							"internalType": "string",
							"name": "",
							"type": "string"
						}
					],
					"stateMutability": "view",
					"type": "function"
				},
				{
					"inputs": [
						{
							"internalType": "uint256",
							"name": "_daysToAdd",
							"type": "uint256"
						}
					],
					"name": "extendDeadline",
					"outputs": [],
					"stateMutability": "nonpayable",
					"type": "function"
				},
				{
					"inputs": [
						{
							"internalType": "uint256",
							"name": "_tierIndex",
							"type": "uint256"
						}
					],
					"name": "fund",
					"outputs": [],
					"stateMutability": "payable",
					"type": "function"
				},
				{
					"inputs": [],
					"name": "getCampaignStatus",
					"outputs": [
						{
							"internalType": "enum CrowdFunding.CampaignState",
							"name": "",
							"type": "uint8"
						}
					],
					"stateMutability": "view",
					"type": "function"
				},
				{
					"inputs": [],
					"name": "getContractBalance",
					"outputs": [
						{
							"internalType": "uint256",
							"name": "",
							"type": "uint256"
						}
					],
					"stateMutability": "view",
					"type": "function"
				},
				{
					"inputs": [],
					"name": "getTiers",
					"outputs": [
						{
							"components": [
								{
									"internalType": "string",
									"name": "name",
									"type": "string"
								},
								{
									"internalType": "uint256",
									"name": "amount",
									"type": "uint256"
								},
								{
									"internalType": "uint256",
									"name": "backers",
									"type": "uint256"
								}
							],
							"internalType": "struct CrowdFunding.Tier[]",
							"name": "",
							"type": "tuple[]"
						}
					],
					"stateMutability": "view",
					"type": "function"
				},
				{
					"inputs": [],
					"name": "goal",
					"outputs": [
						{
							"internalType": "uint256",
							"name": "",
							"type": "uint256"
						}
					],
					"stateMutability": "view",
					"type": "function"
				},
				{
					"inputs": [
						{
							"internalType": "address",
							"name": "_backer",
							"type": "address"
						},
						{
							"internalType": "uint256",
							"name": "_tierIndex",
							"type": "uint256"
						}
					],
					"name": "hasFundedTier",
					"outputs": [
						{
							"internalType": "bool",
							"name": "",
							"type": "bool"
						}
					],
					"stateMutability": "view",
					"type": "function"
				},
				{
					"inputs": [],
					"name": "name",
					"outputs": [
						{
							"internalType": "string",
							"name": "",
							"type": "string"
						}
					],
					"stateMutability": "view",
					"type": "function"
				},
				{
					"inputs": [],
					"name": "owner",
					"outputs": [
						{
							"internalType": "address",
							"name": "",
							"type": "address"
						}
					],
					"stateMutability": "view",
					"type": "function"
				},
				{
					"inputs": [],
					"name": "paused",
					"outputs": [
						{
							"internalType": "bool",
							"name": "",
							"type": "bool"
						}
					],
					"stateMutability": "view",
					"type": "function"
				},
				{
					"inputs": [],
					"name": "refund",
					"outputs": [],
					"stateMutability": "nonpayable",
					"type": "function"
				},
				{
					"inputs": [
						{
							"internalType": "uint256",
							"name": "_index",
							"type": "uint256"
						}
					],
					"name": "removeTier",
					"outputs": [],
					"stateMutability": "nonpayable",
					"type": "function"
				},
				{
					"inputs": [],
					"name": "state",
					"outputs": [
						{
							"internalType": "enum CrowdFunding.CampaignState",
							"name": "",
							"type": "uint8"
						}
					],
					"stateMutability": "view",
					"type": "function"
				},
				{
					"inputs": [
						{
							"internalType": "uint256",
							"name": "",
							"type": "uint256"
						}
					],
					"name": "tiers",
					"outputs": [
						{
							"internalType": "string",
							"name": "name",
							"type": "string"
						},
						{
							"internalType": "uint256",
							"name": "amount",
							"type": "uint256"
						},
						{
							"internalType": "uint256",
							"name": "backers",
							"type": "uint256"
						}
					],
					"stateMutability": "view",
					"type": "function"
				},
				{
					"inputs": [],
					"name": "togglePause",
					"outputs": [],
					"stateMutability": "nonpayable",
					"type": "function"
				},
				{
					"inputs": [],
					"name": "withdraw",
					"outputs": [],
					"stateMutability": "nonpayable",
					"type": "function"
				}
			],
			"devdoc": {
				"kind": "dev",
				"methods": {},
				"version": 1
			},
			"evm": {
				"assembly": "    /* \"contracts/crowd_funding.sol\":58:4120  contract CrowdFunding {... */\n  mstore(0x40, 0x80)\n    /* \"contracts/crowd_funding.sol\":963:1321  constructor (... */\n  callvalue\n  dup1\n  iszero\n  tag_1\n  jumpi\n  0x00\n  dup1\n  revert\ntag_1:\n  pop\n  mload(0x40)\n  sub(codesize, bytecodeSize)\n  dup1\n  bytecodeSize\n  dup4\n  codecopy\n  dup2\n  dup2\n  add\n  0x40\n  mstore\n  dup2\n  add\n  swap1\n  tag_2\n  swap2\n  swap1\n  tag_3\n  jump\t// in\ntag_2:\n    /* \"contracts/crowd_funding.sol\":1120:1125  _name */\n  dup4\n    /* \"contracts/crowd_funding.sol\":1113:1117  name */\n  0x00\n    /* \"contracts/crowd_funding.sol\":1113:1125  name = _name */\n  swap1\n  dup2\n  tag_6\n  swap2\n  swap1\n  tag_7\n  jump\t// in\ntag_6:\n  pop\n    /* \"contracts/crowd_funding.sol\":1149:1161  _description */\n  dup3\n    /* \"contracts/crowd_funding.sol\":1135:1146  description */\n  0x01\n    /* \"contracts/crowd_funding.sol\":1135:1161  description = _description */\n  swap1\n  dup2\n  tag_8\n  swap2\n  swap1\n  tag_7\n  jump\t// in\ntag_8:\n  pop\n    /* \"contracts/crowd_funding.sol\":1178:1183  _goal */\n  dup2\n    /* \"contracts/crowd_funding.sol\":1171:1175  goal */\n  0x02\n    /* \"contracts/crowd_funding.sol\":1171:1183  goal = _goal */\n  dup2\n  swap1\n  sstore\n  pop\n    /* \"contracts/crowd_funding.sol\":1241:1247  1 days */\n  0x015180\n    /* \"contracts/crowd_funding.sol\":1223:1238  _durationInDays */\n  dup2\n    /* \"contracts/crowd_funding.sol\":1223:1247  _durationInDays * 1 days */\n  tag_9\n  swap2\n  swap1\n  tag_10\n  jump\t// in\ntag_9:\n    /* \"contracts/crowd_funding.sol\":1204:1219  block.timestamp */\n  timestamp\n    /* \"contracts/crowd_funding.sol\":1204:1248  block.timestamp + (_durationInDays * 1 days) */\n  tag_11\n  swap2\n  swap1\n  tag_12\n  jump\t// in\ntag_11:\n    /* \"contracts/crowd_funding.sol\":1193:1201  deadline */\n  0x03\n    /* \"contracts/crowd_funding.sol\":1193:1248  deadline = block.timestamp + (_durationInDays * 1 days) */\n  dup2\n  swap1\n  sstore\n  pop\n    /* \"contracts/crowd_funding.sol\":1266:1276  msg.sender */\n  caller\n    /* \"contracts/crowd_funding.sol\":1258:1263  owner */\n  0x04\n  0x00\n    /* \"contracts/crowd_funding.sol\":1258:1276  owner = msg.sender */\n  0x0100\n  exp\n  dup2\n  sload\n  dup2\n  0xffffffffffffffffffffffffffffffffffffffff\n  mul\n  not\n  and\n  swap1\n  dup4\n  0xffffffffffffffffffffffffffffffffffffffff\n  and\n  mul\n  or\n  swap1\n  sstore\n  pop\n    /* \"contracts/crowd_funding.sol\":1294:1314  CampaignState.Active */\n  0x02\n    /* \"contracts/crowd_funding.sol\":1286:1291  state */\n  0x04\n  0x15\n    /* \"contracts/crowd_funding.sol\":1286:1314  state = CampaignState.Active */\n  0x0100\n  exp\n  dup2\n  sload\n  dup2\n  0xff\n  mul\n  not\n  and\n  swap1\n  dup4\n  0x02\n  dup2\n  gt\n  iszero\n  tag_13\n  jumpi\n  tag_14\n  tag_15\n  jump\t// in\ntag_14:\ntag_13:\n  mul\n  or\n  swap1\n  sstore\n  pop\n    /* \"contracts/crowd_funding.sol\":963:1321  constructor (... */\n  pop\n  pop\n  pop\n  pop\n    /* \"contracts/crowd_funding.sol\":58:4120  contract CrowdFunding {... */\n  jump(tag_16)\n    /* \"#utility.yul\":7:82   */\ntag_17:\n    /* \"#utility.yul\":40:46   */\n  0x00\n    /* \"#utility.yul\":73:75   */\n  0x40\n    /* \"#utility.yul\":67:76   */\n  mload\n    /* \"#utility.yul\":57:76   */\n  swap1\n  pop\n    /* \"#utility.yul\":7:82   */\n  swap1\n  jump\t// out\n    /* \"#utility.yul\":88:205   */\ntag_18:\n    /* \"#utility.yul\":197:198   */\n  0x00\n    /* \"#utility.yul\":194:195   */\n  dup1\n    /* \"#utility.yul\":187:199   */\n  revert\n    /* \"#utility.yul\":211:328   */\ntag_19:\n    /* \"#utility.yul\":320:321   */\n  0x00\n    /* \"#utility.yul\":317:318   */\n  dup1\n    /* \"#utility.yul\":310:322   */\n  revert\n    /* \"#utility.yul\":334:451   */\ntag_20:\n    /* \"#utility.yul\":443:444   */\n  0x00\n    /* \"#utility.yul\":440:441   */\n  dup1\n    /* \"#utility.yul\":433:445   */\n  revert\n    /* \"#utility.yul\":457:574   */\ntag_21:\n    /* \"#utility.yul\":566:567   */\n  0x00\n    /* \"#utility.yul\":563:564   */\n  dup1\n    /* \"#utility.yul\":556:568   */\n  revert\n    /* \"#utility.yul\":580:682   */\ntag_22:\n    /* \"#utility.yul\":621:627   */\n  0x00\n    /* \"#utility.yul\":672:674   */\n  0x1f\n    /* \"#utility.yul\":668:675   */\n  not\n    /* \"#utility.yul\":663:665   */\n  0x1f\n    /* \"#utility.yul\":656:661   */\n  dup4\n    /* \"#utility.yul\":652:666   */\n  add\n    /* \"#utility.yul\":648:676   */\n  and\n    /* \"#utility.yul\":638:676   */\n  swap1\n  pop\n    /* \"#utility.yul\":580:682   */\n  swap2\n  swap1\n  pop\n  jump\t// out\n    /* \"#utility.yul\":688:868   */\ntag_23:\n    /* \"#utility.yul\":736:813   */\n  0x4e487b7100000000000000000000000000000000000000000000000000000000\n    /* \"#utility.yul\":733:734   */\n  0x00\n    /* \"#utility.yul\":726:814   */\n  mstore\n    /* \"#utility.yul\":833:837   */\n  0x41\n    /* \"#utility.yul\":830:831   */\n  0x04\n    /* \"#utility.yul\":823:838   */\n  mstore\n    /* \"#utility.yul\":857:861   */\n  0x24\n    /* \"#utility.yul\":854:855   */\n  0x00\n    /* \"#utility.yul\":847:862   */\n  revert\n    /* \"#utility.yul\":874:1155   */\ntag_24:\n    /* \"#utility.yul\":957:984   */\n  tag_61\n    /* \"#utility.yul\":979:983   */\n  dup3\n    /* \"#utility.yul\":957:984   */\n  tag_22\n  jump\t// in\ntag_61:\n    /* \"#utility.yul\":949:955   */\n  dup2\n    /* \"#utility.yul\":945:985   */\n  add\n    /* \"#utility.yul\":1087:1093   */\n  dup2\n    /* \"#utility.yul\":1075:1085   */\n  dup2\n    /* \"#utility.yul\":1072:1094   */\n  lt\n    /* \"#utility.yul\":1051:1069   */\n  0xffffffffffffffff\n    /* \"#utility.yul\":1039:1049   */\n  dup3\n    /* \"#utility.yul\":1036:1070   */\n  gt\n    /* \"#utility.yul\":1033:1095   */\n  or\n    /* \"#utility.yul\":1030:1118   */\n  iszero\n  tag_62\n  jumpi\n    /* \"#utility.yul\":1098:1116   */\n  tag_63\n  tag_23\n  jump\t// in\ntag_63:\n    /* \"#utility.yul\":1030:1118   */\ntag_62:\n    /* \"#utility.yul\":1138:1148   */\n  dup1\n    /* \"#utility.yul\":1134:1136   */\n  0x40\n    /* \"#utility.yul\":1127:1149   */\n  mstore\n    /* \"#utility.yul\":917:1155   */\n  pop\n    /* \"#utility.yul\":874:1155   */\n  pop\n  pop\n  jump\t// out\n    /* \"#utility.yul\":1161:1290   */\ntag_25:\n    /* \"#utility.yul\":1195:1201   */\n  0x00\n    /* \"#utility.yul\":1222:1242   */\n  tag_65\n  tag_17\n  jump\t// in\ntag_65:\n    /* \"#utility.yul\":1212:1242   */\n  swap1\n  pop\n    /* \"#utility.yul\":1251:1284   */\n  tag_66\n    /* \"#utility.yul\":1279:1283   */\n  dup3\n    /* \"#utility.yul\":1271:1277   */\n  dup3\n    /* \"#utility.yul\":1251:1284   */\n  tag_24\n  jump\t// in\ntag_66:\n    /* \"#utility.yul\":1161:1290   */\n  swap2\n  swap1\n  pop\n  jump\t// out\n    /* \"#utility.yul\":1296:1604   */\ntag_26:\n    /* \"#utility.yul\":1358:1362   */\n  0x00\n    /* \"#utility.yul\":1448:1466   */\n  0xffffffffffffffff\n    /* \"#utility.yul\":1440:1446   */\n  dup3\n    /* \"#utility.yul\":1437:1467   */\n  gt\n    /* \"#utility.yul\":1434:1490   */\n  iszero\n  tag_68\n  jumpi\n    /* \"#utility.yul\":1470:1488   */\n  tag_69\n  tag_23\n  jump\t// in\ntag_69:\n    /* \"#utility.yul\":1434:1490   */\ntag_68:\n    /* \"#utility.yul\":1508:1537   */\n  tag_70\n    /* \"#utility.yul\":1530:1536   */\n  dup3\n    /* \"#utility.yul\":1508:1537   */\n  tag_22\n  jump\t// in\ntag_70:\n    /* \"#utility.yul\":1500:1537   */\n  swap1\n  pop\n    /* \"#utility.yul\":1592:1596   */\n  0x20\n    /* \"#utility.yul\":1586:1590   */\n  dup2\n    /* \"#utility.yul\":1582:1597   */\n  add\n    /* \"#utility.yul\":1574:1597   */\n  swap1\n  pop\n    /* \"#utility.yul\":1296:1604   */\n  swap2\n  swap1\n  pop\n  jump\t// out\n    /* \"#utility.yul\":1610:1749   */\ntag_27:\n    /* \"#utility.yul\":1699:1705   */\n  dup3\n    /* \"#utility.yul\":1694:1697   */\n  dup2\n    /* \"#utility.yul\":1689:1692   */\n  dup4\n    /* \"#utility.yul\":1683:1706   */\n  mcopy\n    /* \"#utility.yul\":1740:1741   */\n  0x00\n    /* \"#utility.yul\":1731:1737   */\n  dup4\n    /* \"#utility.yul\":1726:1729   */\n  dup4\n    /* \"#utility.yul\":1722:1738   */\n  add\n    /* \"#utility.yul\":1715:1742   */\n  mstore\n    /* \"#utility.yul\":1610:1749   */\n  pop\n  pop\n  pop\n  jump\t// out\n    /* \"#utility.yul\":1755:2189   */\ntag_28:\n    /* \"#utility.yul\":1844:1849   */\n  0x00\n    /* \"#utility.yul\":1869:1935   */\n  tag_73\n    /* \"#utility.yul\":1885:1934   */\n  tag_74\n    /* \"#utility.yul\":1927:1933   */\n  dup5\n    /* \"#utility.yul\":1885:1934   */\n  tag_26\n  jump\t// in\ntag_74:\n    /* \"#utility.yul\":1869:1935   */\n  tag_25\n  jump\t// in\ntag_73:\n    /* \"#utility.yul\":1860:1935   */\n  swap1\n  pop\n    /* \"#utility.yul\":1958:1964   */\n  dup3\n    /* \"#utility.yul\":1951:1956   */\n  dup2\n    /* \"#utility.yul\":1944:1965   */\n  mstore\n    /* \"#utility.yul\":1996:2000   */\n  0x20\n    /* \"#utility.yul\":1989:1994   */\n  dup2\n    /* \"#utility.yul\":1985:2001   */\n  add\n    /* \"#utility.yul\":2034:2037   */\n  dup5\n    /* \"#utility.yul\":2025:2031   */\n  dup5\n    /* \"#utility.yul\":2020:2023   */\n  dup5\n    /* \"#utility.yul\":2016:2032   */\n  add\n    /* \"#utility.yul\":2013:2038   */\n  gt\n    /* \"#utility.yul\":2010:2122   */\n  iszero\n  tag_75\n  jumpi\n    /* \"#utility.yul\":2041:2120   */\n  tag_76\n  tag_21\n  jump\t// in\ntag_76:\n    /* \"#utility.yul\":2010:2122   */\ntag_75:\n    /* \"#utility.yul\":2131:2183   */\n  tag_77\n    /* \"#utility.yul\":2176:2182   */\n  dup5\n    /* \"#utility.yul\":2171:2174   */\n  dup3\n    /* \"#utility.yul\":2166:2169   */\n  dup6\n    /* \"#utility.yul\":2131:2183   */\n  tag_27\n  jump\t// in\ntag_77:\n    /* \"#utility.yul\":1850:2189   */\n  pop\n    /* \"#utility.yul\":1755:2189   */\n  swap4\n  swap3\n  pop\n  pop\n  pop\n  jump\t// out\n    /* \"#utility.yul\":2209:2564   */\ntag_29:\n    /* \"#utility.yul\":2276:2281   */\n  0x00\n    /* \"#utility.yul\":2325:2328   */\n  dup3\n    /* \"#utility.yul\":2318:2322   */\n  0x1f\n    /* \"#utility.yul\":2310:2316   */\n  dup4\n    /* \"#utility.yul\":2306:2323   */\n  add\n    /* \"#utility.yul\":2302:2329   */\n  slt\n    /* \"#utility.yul\":2292:2414   */\n  tag_79\n  jumpi\n    /* \"#utility.yul\":2333:2412   */\n  tag_80\n  tag_20\n  jump\t// in\ntag_80:\n    /* \"#utility.yul\":2292:2414   */\ntag_79:\n    /* \"#utility.yul\":2443:2449   */\n  dup2\n    /* \"#utility.yul\":2437:2450   */\n  mload\n    /* \"#utility.yul\":2468:2558   */\n  tag_81\n    /* \"#utility.yul\":2554:2557   */\n  dup5\n    /* \"#utility.yul\":2546:2552   */\n  dup3\n    /* \"#utility.yul\":2539:2543   */\n  0x20\n    /* \"#utility.yul\":2531:2537   */\n  dup7\n    /* \"#utility.yul\":2527:2544   */\n  add\n    /* \"#utility.yul\":2468:2558   */\n  tag_28\n  jump\t// in\ntag_81:\n    /* \"#utility.yul\":2459:2558   */\n  swap2\n  pop\n    /* \"#utility.yul\":2282:2564   */\n  pop\n    /* \"#utility.yul\":2209:2564   */\n  swap3\n  swap2\n  pop\n  pop\n  jump\t// out\n    /* \"#utility.yul\":2570:2647   */\ntag_30:\n    /* \"#utility.yul\":2607:2614   */\n  0x00\n    /* \"#utility.yul\":2636:2641   */\n  dup2\n    /* \"#utility.yul\":2625:2641   */\n  swap1\n  pop\n    /* \"#utility.yul\":2570:2647   */\n  swap2\n  swap1\n  pop\n  jump\t// out\n    /* \"#utility.yul\":2653:2775   */\ntag_31:\n    /* \"#utility.yul\":2726:2750   */\n  tag_84\n    /* \"#utility.yul\":2744:2749   */\n  dup2\n    /* \"#utility.yul\":2726:2750   */\n  tag_30\n  jump\t// in\ntag_84:\n    /* \"#utility.yul\":2719:2724   */\n  dup2\n    /* \"#utility.yul\":2716:2751   */\n  eq\n    /* \"#utility.yul\":2706:2769   */\n  tag_85\n  jumpi\n    /* \"#utility.yul\":2765:2766   */\n  0x00\n    /* \"#utility.yul\":2762:2763   */\n  dup1\n    /* \"#utility.yul\":2755:2767   */\n  revert\n    /* \"#utility.yul\":2706:2769   */\ntag_85:\n    /* \"#utility.yul\":2653:2775   */\n  pop\n  jump\t// out\n    /* \"#utility.yul\":2781:2924   */\ntag_32:\n    /* \"#utility.yul\":2838:2843   */\n  0x00\n    /* \"#utility.yul\":2869:2875   */\n  dup2\n    /* \"#utility.yul\":2863:2876   */\n  mload\n    /* \"#utility.yul\":2854:2876   */\n  swap1\n  pop\n    /* \"#utility.yul\":2885:2918   */\n  tag_87\n    /* \"#utility.yul\":2912:2917   */\n  dup2\n    /* \"#utility.yul\":2885:2918   */\n  tag_31\n  jump\t// in\ntag_87:\n    /* \"#utility.yul\":2781:2924   */\n  swap3\n  swap2\n  pop\n  pop\n  jump\t// out\n    /* \"#utility.yul\":2930:4096   */\ntag_3:\n    /* \"#utility.yul\":3047:3053   */\n  0x00\n    /* \"#utility.yul\":3055:3061   */\n  dup1\n    /* \"#utility.yul\":3063:3069   */\n  0x00\n    /* \"#utility.yul\":3071:3077   */\n  dup1\n    /* \"#utility.yul\":3120:3123   */\n  0x80\n    /* \"#utility.yul\":3108:3117   */\n  dup6\n    /* \"#utility.yul\":3099:3106   */\n  dup8\n    /* \"#utility.yul\":3095:3118   */\n  sub\n    /* \"#utility.yul\":3091:3124   */\n  slt\n    /* \"#utility.yul\":3088:3208   */\n  iszero\n  tag_89\n  jumpi\n    /* \"#utility.yul\":3127:3206   */\n  tag_90\n  tag_18\n  jump\t// in\ntag_90:\n    /* \"#utility.yul\":3088:3208   */\ntag_89:\n    /* \"#utility.yul\":3268:3269   */\n  0x00\n    /* \"#utility.yul\":3257:3266   */\n  dup6\n    /* \"#utility.yul\":3253:3270   */\n  add\n    /* \"#utility.yul\":3247:3271   */\n  mload\n    /* \"#utility.yul\":3298:3316   */\n  0xffffffffffffffff\n    /* \"#utility.yul\":3290:3296   */\n  dup2\n    /* \"#utility.yul\":3287:3317   */\n  gt\n    /* \"#utility.yul\":3284:3401   */\n  iszero\n  tag_91\n  jumpi\n    /* \"#utility.yul\":3320:3399   */\n  tag_92\n  tag_19\n  jump\t// in\ntag_92:\n    /* \"#utility.yul\":3284:3401   */\ntag_91:\n    /* \"#utility.yul\":3425:3499   */\n  tag_93\n    /* \"#utility.yul\":3491:3498   */\n  dup8\n    /* \"#utility.yul\":3482:3488   */\n  dup3\n    /* \"#utility.yul\":3471:3480   */\n  dup9\n    /* \"#utility.yul\":3467:3489   */\n  add\n    /* \"#utility.yul\":3425:3499   */\n  tag_29\n  jump\t// in\ntag_93:\n    /* \"#utility.yul\":3415:3499   */\n  swap5\n  pop\n    /* \"#utility.yul\":3218:3509   */\n  pop\n    /* \"#utility.yul\":3569:3571   */\n  0x20\n    /* \"#utility.yul\":3558:3567   */\n  dup6\n    /* \"#utility.yul\":3554:3572   */\n  add\n    /* \"#utility.yul\":3548:3573   */\n  mload\n    /* \"#utility.yul\":3600:3618   */\n  0xffffffffffffffff\n    /* \"#utility.yul\":3592:3598   */\n  dup2\n    /* \"#utility.yul\":3589:3619   */\n  gt\n    /* \"#utility.yul\":3586:3703   */\n  iszero\n  tag_94\n  jumpi\n    /* \"#utility.yul\":3622:3701   */\n  tag_95\n  tag_19\n  jump\t// in\ntag_95:\n    /* \"#utility.yul\":3586:3703   */\ntag_94:\n    /* \"#utility.yul\":3727:3801   */\n  tag_96\n    /* \"#utility.yul\":3793:3800   */\n  dup8\n    /* \"#utility.yul\":3784:3790   */\n  dup3\n    /* \"#utility.yul\":3773:3782   */\n  dup9\n    /* \"#utility.yul\":3769:3791   */\n  add\n    /* \"#utility.yul\":3727:3801   */\n  tag_29\n  jump\t// in\ntag_96:\n    /* \"#utility.yul\":3717:3801   */\n  swap4\n  pop\n    /* \"#utility.yul\":3519:3811   */\n  pop\n    /* \"#utility.yul\":3850:3852   */\n  0x40\n    /* \"#utility.yul\":3876:3940   */\n  tag_97\n    /* \"#utility.yul\":3932:3939   */\n  dup8\n    /* \"#utility.yul\":3923:3929   */\n  dup3\n    /* \"#utility.yul\":3912:3921   */\n  dup9\n    /* \"#utility.yul\":3908:3930   */\n  add\n    /* \"#utility.yul\":3876:3940   */\n  tag_32\n  jump\t// in\ntag_97:\n    /* \"#utility.yul\":3866:3940   */\n  swap3\n  pop\n    /* \"#utility.yul\":3821:3950   */\n  pop\n    /* \"#utility.yul\":3989:3991   */\n  0x60\n    /* \"#utility.yul\":4015:4079   */\n  tag_98\n    /* \"#utility.yul\":4071:4078   */\n  dup8\n    /* \"#utility.yul\":4062:4068   */\n  dup3\n    /* \"#utility.yul\":4051:4060   */\n  dup9\n    /* \"#utility.yul\":4047:4069   */\n  add\n    /* \"#utility.yul\":4015:4079   */\n  tag_32\n  jump\t// in\ntag_98:\n    /* \"#utility.yul\":4005:4079   */\n  swap2\n  pop\n    /* \"#utility.yul\":3960:4089   */\n  pop\n    /* \"#utility.yul\":2930:4096   */\n  swap3\n  swap6\n  swap2\n  swap5\n  pop\n  swap3\n  pop\n  jump\t// out\n    /* \"#utility.yul\":4102:4201   */\ntag_33:\n    /* \"#utility.yul\":4154:4160   */\n  0x00\n    /* \"#utility.yul\":4188:4193   */\n  dup2\n    /* \"#utility.yul\":4182:4194   */\n  mload\n    /* \"#utility.yul\":4172:4194   */\n  swap1\n  pop\n    /* \"#utility.yul\":4102:4201   */\n  swap2\n  swap1\n  pop\n  jump\t// out\n    /* \"#utility.yul\":4207:4387   */\ntag_34:\n    /* \"#utility.yul\":4255:4332   */\n  0x4e487b7100000000000000000000000000000000000000000000000000000000\n    /* \"#utility.yul\":4252:4253   */\n  0x00\n    /* \"#utility.yul\":4245:4333   */\n  mstore\n    /* \"#utility.yul\":4352:4356   */\n  0x22\n    /* \"#utility.yul\":4349:4350   */\n  0x04\n    /* \"#utility.yul\":4342:4357   */\n  mstore\n    /* \"#utility.yul\":4376:4380   */\n  0x24\n    /* \"#utility.yul\":4373:4374   */\n  0x00\n    /* \"#utility.yul\":4366:4381   */\n  revert\n    /* \"#utility.yul\":4393:4713   */\ntag_35:\n    /* \"#utility.yul\":4437:4443   */\n  0x00\n    /* \"#utility.yul\":4474:4475   */\n  0x02\n    /* \"#utility.yul\":4468:4472   */\n  dup3\n    /* \"#utility.yul\":4464:4476   */\n  div\n    /* \"#utility.yul\":4454:4476   */\n  swap1\n  pop\n    /* \"#utility.yul\":4521:4522   */\n  0x01\n    /* \"#utility.yul\":4515:4519   */\n  dup3\n    /* \"#utility.yul\":4511:4523   */\n  and\n    /* \"#utility.yul\":4542:4560   */\n  dup1\n    /* \"#utility.yul\":4532:4613   */\n  tag_102\n  jumpi\n    /* \"#utility.yul\":4598:4602   */\n  0x7f\n    /* \"#utility.yul\":4590:4596   */\n  dup3\n    /* \"#utility.yul\":4586:4603   */\n  and\n    /* \"#utility.yul\":4576:4603   */\n  swap2\n  pop\n    /* \"#utility.yul\":4532:4613   */\ntag_102:\n    /* \"#utility.yul\":4660:4662   */\n  0x20\n    /* \"#utility.yul\":4652:4658   */\n  dup3\n    /* \"#utility.yul\":4649:4663   */\n  lt\n    /* \"#utility.yul\":4629:4647   */\n  dup2\n    /* \"#utility.yul\":4626:4664   */\n  sub\n    /* \"#utility.yul\":4623:4707   */\n  tag_103\n  jumpi\n    /* \"#utility.yul\":4679:4697   */\n  tag_104\n  tag_34\n  jump\t// in\ntag_104:\n    /* \"#utility.yul\":4623:4707   */\ntag_103:\n    /* \"#utility.yul\":4444:4713   */\n  pop\n    /* \"#utility.yul\":4393:4713   */\n  swap2\n  swap1\n  pop\n  jump\t// out\n    /* \"#utility.yul\":4719:4860   */\ntag_36:\n    /* \"#utility.yul\":4768:4772   */\n  0x00\n    /* \"#utility.yul\":4791:4794   */\n  dup2\n    /* \"#utility.yul\":4783:4794   */\n  swap1\n  pop\n    /* \"#utility.yul\":4814:4817   */\n  dup2\n    /* \"#utility.yul\":4811:4812   */\n  0x00\n    /* \"#utility.yul\":4804:4818   */\n  mstore\n    /* \"#utility.yul\":4848:4852   */\n  0x20\n    /* \"#utility.yul\":4845:4846   */\n  0x00\n    /* \"#utility.yul\":4835:4853   */\n  keccak256\n    /* \"#utility.yul\":4827:4853   */\n  swap1\n  pop\n    /* \"#utility.yul\":4719:4860   */\n  swap2\n  swap1\n  pop\n  jump\t// out\n    /* \"#utility.yul\":4866:4959   */\ntag_37:\n    /* \"#utility.yul\":4903:4909   */\n  0x00\n    /* \"#utility.yul\":4950:4952   */\n  0x20\n    /* \"#utility.yul\":4945:4947   */\n  0x1f\n    /* \"#utility.yul\":4938:4943   */\n  dup4\n    /* \"#utility.yul\":4934:4948   */\n  add\n    /* \"#utility.yul\":4930:4953   */\n  div\n    /* \"#utility.yul\":4920:4953   */\n  swap1\n  pop\n    /* \"#utility.yul\":4866:4959   */\n  swap2\n  swap1\n  pop\n  jump\t// out\n    /* \"#utility.yul\":4965:5072   */\ntag_38:\n    /* \"#utility.yul\":5009:5017   */\n  0x00\n    /* \"#utility.yul\":5059:5064   */\n  dup3\n    /* \"#utility.yul\":5053:5057   */\n  dup3\n    /* \"#utility.yul\":5049:5065   */\n  shl\n    /* \"#utility.yul\":5028:5065   */\n  swap1\n  pop\n    /* \"#utility.yul\":4965:5072   */\n  swap3\n  swap2\n  pop\n  pop\n  jump\t// out\n    /* \"#utility.yul\":5078:5471   */\ntag_39:\n    /* \"#utility.yul\":5147:5153   */\n  0x00\n    /* \"#utility.yul\":5197:5198   */\n  0x08\n    /* \"#utility.yul\":5185:5195   */\n  dup4\n    /* \"#utility.yul\":5181:5199   */\n  mul\n    /* \"#utility.yul\":5220:5317   */\n  tag_109\n    /* \"#utility.yul\":5250:5316   */\n  0xffffffffffffffffffffffffffffffffffffffffffffffffffffffffffffffff\n    /* \"#utility.yul\":5239:5248   */\n  dup3\n    /* \"#utility.yul\":5220:5317   */\n  tag_38\n  jump\t// in\ntag_109:\n    /* \"#utility.yul\":5338:5377   */\n  tag_110\n    /* \"#utility.yul\":5368:5376   */\n  dup7\n    /* \"#utility.yul\":5357:5366   */\n  dup4\n    /* \"#utility.yul\":5338:5377   */\n  tag_38\n  jump\t// in\ntag_110:\n    /* \"#utility.yul\":5326:5377   */\n  swap6\n  pop\n    /* \"#utility.yul\":5410:5414   */\n  dup1\n    /* \"#utility.yul\":5406:5415   */\n  not\n    /* \"#utility.yul\":5399:5404   */\n  dup5\n    /* \"#utility.yul\":5395:5416   */\n  and\n    /* \"#utility.yul\":5386:5416   */\n  swap4\n  pop\n    /* \"#utility.yul\":5459:5463   */\n  dup1\n    /* \"#utility.yul\":5449:5457   */\n  dup7\n    /* \"#utility.yul\":5445:5464   */\n  and\n    /* \"#utility.yul\":5438:5443   */\n  dup5\n    /* \"#utility.yul\":5435:5465   */\n  or\n    /* \"#utility.yul\":5425:5465   */\n  swap3\n  pop\n    /* \"#utility.yul\":5154:5471   */\n  pop\n  pop\n    /* \"#utility.yul\":5078:5471   */\n  swap4\n  swap3\n  pop\n  pop\n  pop\n  jump\t// out\n    /* \"#utility.yul\":5477:5537   */\ntag_40:\n    /* \"#utility.yul\":5505:5508   */\n  0x00\n    /* \"#utility.yul\":5526:5531   */\n  dup2\n    /* \"#utility.yul\":5519:5531   */\n  swap1\n  pop\n    /* \"#utility.yul\":5477:5537   */\n  swap2\n  swap1\n  pop\n  jump\t// out\n    /* \"#utility.yul\":5543:5685   */\ntag_41:\n    /* \"#utility.yul\":5593:5602   */\n  0x00\n    /* \"#utility.yul\":5626:5679   */\n  tag_113\n    /* \"#utility.yul\":5644:5678   */\n  tag_114\n    /* \"#utility.yul\":5653:5677   */\n  tag_115\n    /* \"#utility.yul\":5671:5676   */\n  dup5\n    /* \"#utility.yul\":5653:5677   */\n  tag_30\n  jump\t// in\ntag_115:\n    /* \"#utility.yul\":5644:5678   */\n  tag_40\n  jump\t// in\ntag_114:\n    /* \"#utility.yul\":5626:5679   */\n  tag_30\n  jump\t// in\ntag_113:\n    /* \"#utility.yul\":5613:5679   */\n  swap1\n  pop\n    /* \"#utility.yul\":5543:5685   */\n  swap2\n  swap1\n  pop\n  jump\t// out\n    /* \"#utility.yul\":5691:5766   */\ntag_42:\n    /* \"#utility.yul\":5734:5737   */\n  0x00\n    /* \"#utility.yul\":5755:5760   */\n  dup2\n    /* \"#utility.yul\":5748:5760   */\n  swap1\n  pop\n    /* \"#utility.yul\":5691:5766   */\n  swap2\n  swap1\n  pop\n  jump\t// out\n    /* \"#utility.yul\":5772:6041   */\ntag_43:\n    /* \"#utility.yul\":5882:5921   */\n  tag_118\n    /* \"#utility.yul\":5913:5920   */\n  dup4\n    /* \"#utility.yul\":5882:5921   */\n  tag_41\n  jump\t// in\ntag_118:\n    /* \"#utility.yul\":5943:6034   */\n  tag_119\n    /* \"#utility.yul\":5992:6033   */\n  tag_120\n    /* \"#utility.yul\":6016:6032   */\n  dup3\n    /* \"#utility.yul\":5992:6033   */\n  tag_42\n  jump\t// in\ntag_120:\n    /* \"#utility.yul\":5984:5990   */\n  dup5\n    /* \"#utility.yul\":5977:5981   */\n  dup5\n    /* \"#utility.yul\":5971:5982   */\n  sload\n    /* \"#utility.yul\":5943:6034   */\n  tag_39\n  jump\t// in\ntag_119:\n    /* \"#utility.yul\":5937:5941   */\n  dup3\n    /* \"#utility.yul\":5930:6035   */\n  sstore\n    /* \"#utility.yul\":5848:6041   */\n  pop\n    /* \"#utility.yul\":5772:6041   */\n  pop\n  pop\n  pop\n  jump\t// out\n    /* \"#utility.yul\":6047:6120   */\ntag_44:\n    /* \"#utility.yul\":6092:6095   */\n  0x00\n    /* \"#utility.yul\":6047:6120   */\n  swap1\n  jump\t// out\n    /* \"#utility.yul\":6126:6315   */\ntag_45:\n    /* \"#utility.yul\":6203:6235   */\n  tag_123\n  tag_44\n  jump\t// in\ntag_123:\n    /* \"#utility.yul\":6244:6309   */\n  tag_124\n    /* \"#utility.yul\":6302:6308   */\n  dup2\n    /* \"#utility.yul\":6294:6300   */\n  dup5\n    /* \"#utility.yul\":6288:6292   */\n  dup5\n    /* \"#utility.yul\":6244:6309   */\n  tag_43\n  jump\t// in\ntag_124:\n    /* \"#utility.yul\":6179:6315   */\n  pop\n    /* \"#utility.yul\":6126:6315   */\n  pop\n  pop\n  jump\t// out\n    /* \"#utility.yul\":6321:6507   */\ntag_46:\n    /* \"#utility.yul\":6381:6501   */\ntag_126:\n    /* \"#utility.yul\":6398:6401   */\n  dup2\n    /* \"#utility.yul\":6391:6396   */\n  dup2\n    /* \"#utility.yul\":6388:6402   */\n  lt\n    /* \"#utility.yul\":6381:6501   */\n  iszero\n  tag_128\n  jumpi\n    /* \"#utility.yul\":6452:6491   */\n  tag_129\n    /* \"#utility.yul\":6489:6490   */\n  0x00\n    /* \"#utility.yul\":6482:6487   */\n  dup3\n    /* \"#utility.yul\":6452:6491   */\n  tag_45\n  jump\t// in\ntag_129:\n    /* \"#utility.yul\":6425:6426   */\n  0x01\n    /* \"#utility.yul\":6418:6423   */\n  dup2\n    /* \"#utility.yul\":6414:6427   */\n  add\n    /* \"#utility.yul\":6405:6427   */\n  swap1\n  pop\n    /* \"#utility.yul\":6381:6501   */\n  jump(tag_126)\ntag_128:\n    /* \"#utility.yul\":6321:6507   */\n  pop\n  pop\n  jump\t// out\n    /* \"#utility.yul\":6513:7056   */\ntag_47:\n    /* \"#utility.yul\":6614:6616   */\n  0x1f\n    /* \"#utility.yul\":6609:6612   */\n  dup3\n    /* \"#utility.yul\":6606:6617   */\n  gt\n    /* \"#utility.yul\":6603:7049   */\n  iszero\n  tag_131\n  jumpi\n    /* \"#utility.yul\":6648:6686   */\n  tag_132\n    /* \"#utility.yul\":6680:6685   */\n  dup2\n    /* \"#utility.yul\":6648:6686   */\n  tag_36\n  jump\t// in\ntag_132:\n    /* \"#utility.yul\":6732:6761   */\n  tag_133\n    /* \"#utility.yul\":6750:6760   */\n  dup5\n    /* \"#utility.yul\":6732:6761   */\n  tag_37\n  jump\t// in\ntag_133:\n    /* \"#utility.yul\":6722:6730   */\n  dup2\n    /* \"#utility.yul\":6718:6762   */\n  add\n    /* \"#utility.yul\":6915:6917   */\n  0x20\n    /* \"#utility.yul\":6903:6913   */\n  dup6\n    /* \"#utility.yul\":6900:6918   */\n  lt\n    /* \"#utility.yul\":6897:6946   */\n  iszero\n  tag_134\n  jumpi\n    /* \"#utility.yul\":6936:6944   */\n  dup2\n    /* \"#utility.yul\":6921:6944   */\n  swap1\n  pop\n    /* \"#utility.yul\":6897:6946   */\ntag_134:\n    /* \"#utility.yul\":6959:7039   */\n  tag_135\n    /* \"#utility.yul\":7015:7037   */\n  tag_136\n    /* \"#utility.yul\":7033:7036   */\n  dup6\n    /* \"#utility.yul\":7015:7037   */\n  tag_37\n  jump\t// in\ntag_136:\n    /* \"#utility.yul\":7005:7013   */\n  dup4\n    /* \"#utility.yul\":7001:7038   */\n  add\n    /* \"#utility.yul\":6988:6999   */\n  dup3\n    /* \"#utility.yul\":6959:7039   */\n  tag_46\n  jump\t// in\ntag_135:\n    /* \"#utility.yul\":6618:7049   */\n  pop\n  pop\n    /* \"#utility.yul\":6603:7049   */\ntag_131:\n    /* \"#utility.yul\":6513:7056   */\n  pop\n  pop\n  pop\n  jump\t// out\n    /* \"#utility.yul\":7062:7179   */\ntag_48:\n    /* \"#utility.yul\":7116:7124   */\n  0x00\n    /* \"#utility.yul\":7166:7171   */\n  dup3\n    /* \"#utility.yul\":7160:7164   */\n  dup3\n    /* \"#utility.yul\":7156:7172   */\n  shr\n    /* \"#utility.yul\":7135:7172   */\n  swap1\n  pop\n    /* \"#utility.yul\":7062:7179   */\n  swap3\n  swap2\n  pop\n  pop\n  jump\t// out\n    /* \"#utility.yul\":7185:7354   */\ntag_49:\n    /* \"#utility.yul\":7229:7235   */\n  0x00\n    /* \"#utility.yul\":7262:7313   */\n  tag_139\n    /* \"#utility.yul\":7310:7311   */\n  0x00\n    /* \"#utility.yul\":7306:7312   */\n  not\n    /* \"#utility.yul\":7298:7303   */\n  dup5\n    /* \"#utility.yul\":7295:7296   */\n  0x08\n    /* \"#utility.yul\":7291:7304   */\n  mul\n    /* \"#utility.yul\":7262:7313   */\n  tag_48\n  jump\t// in\ntag_139:\n    /* \"#utility.yul\":7258:7314   */\n  not\n    /* \"#utility.yul\":7343:7347   */\n  dup1\n    /* \"#utility.yul\":7337:7341   */\n  dup4\n    /* \"#utility.yul\":7333:7348   */\n  and\n    /* \"#utility.yul\":7323:7348   */\n  swap2\n  pop\n    /* \"#utility.yul\":7236:7354   */\n  pop\n    /* \"#utility.yul\":7185:7354   */\n  swap3\n  swap2\n  pop\n  pop\n  jump\t// out\n    /* \"#utility.yul\":7359:7654   */\ntag_50:\n    /* \"#utility.yul\":7435:7439   */\n  0x00\n    /* \"#utility.yul\":7581:7610   */\n  tag_141\n    /* \"#utility.yul\":7606:7609   */\n  dup4\n    /* \"#utility.yul\":7600:7604   */\n  dup4\n    /* \"#utility.yul\":7581:7610   */\n  tag_49\n  jump\t// in\ntag_141:\n    /* \"#utility.yul\":7573:7610   */\n  swap2\n  pop\n    /* \"#utility.yul\":7643:7646   */\n  dup3\n    /* \"#utility.yul\":7640:7641   */\n  0x02\n    /* \"#utility.yul\":7636:7647   */\n  mul\n    /* \"#utility.yul\":7630:7634   */\n  dup3\n    /* \"#utility.yul\":7627:7648   */\n  or\n    /* \"#utility.yul\":7619:7648   */\n  swap1\n  pop\n    /* \"#utility.yul\":7359:7654   */\n  swap3\n  swap2\n  pop\n  pop\n  jump\t// out\n    /* \"#utility.yul\":7659:9054   */\ntag_7:\n    /* \"#utility.yul\":7776:7813   */\n  tag_143\n    /* \"#utility.yul\":7809:7812   */\n  dup3\n    /* \"#utility.yul\":7776:7813   */\n  tag_33\n  jump\t// in\ntag_143:\n    /* \"#utility.yul\":7878:7896   */\n  0xffffffffffffffff\n    /* \"#utility.yul\":7870:7876   */\n  dup2\n    /* \"#utility.yul\":7867:7897   */\n  gt\n    /* \"#utility.yul\":7864:7920   */\n  iszero\n  tag_144\n  jumpi\n    /* \"#utility.yul\":7900:7918   */\n  tag_145\n  tag_23\n  jump\t// in\ntag_145:\n    /* \"#utility.yul\":7864:7920   */\ntag_144:\n    /* \"#utility.yul\":7944:7982   */\n  tag_146\n    /* \"#utility.yul\":7976:7980   */\n  dup3\n    /* \"#utility.yul\":7970:7981   */\n  sload\n    /* \"#utility.yul\":7944:7982   */\n  tag_35\n  jump\t// in\ntag_146:\n    /* \"#utility.yul\":8029:8096   */\n  tag_147\n    /* \"#utility.yul\":8089:8095   */\n  dup3\n    /* \"#utility.yul\":8081:8087   */\n  dup3\n    /* \"#utility.yul\":8075:8079   */\n  dup6\n    /* \"#utility.yul\":8029:8096   */\n  tag_47\n  jump\t// in\ntag_147:\n    /* \"#utility.yul\":8123:8124   */\n  0x00\n    /* \"#utility.yul\":8147:8151   */\n  0x20\n    /* \"#utility.yul\":8134:8151   */\n  swap1\n  pop\n    /* \"#utility.yul\":8179:8181   */\n  0x1f\n    /* \"#utility.yul\":8171:8177   */\n  dup4\n    /* \"#utility.yul\":8168:8182   */\n  gt\n    /* \"#utility.yul\":8196:8197   */\n  0x01\n    /* \"#utility.yul\":8191:8809   */\n  dup2\n  eq\n  tag_149\n  jumpi\n    /* \"#utility.yul\":8853:8854   */\n  0x00\n    /* \"#utility.yul\":8870:8876   */\n  dup5\n    /* \"#utility.yul\":8867:8944   */\n  iszero\n  tag_150\n  jumpi\n    /* \"#utility.yul\":8919:8928   */\n  dup3\n    /* \"#utility.yul\":8914:8917   */\n  dup8\n    /* \"#utility.yul\":8910:8929   */\n  add\n    /* \"#utility.yul\":8904:8930   */\n  mload\n    /* \"#utility.yul\":8895:8930   */\n  swap1\n  pop\n    /* \"#utility.yul\":8867:8944   */\ntag_150:\n    /* \"#utility.yul\":8970:9037   */\n  tag_151\n    /* \"#utility.yul\":9030:9036   */\n  dup6\n    /* \"#utility.yul\":9023:9028   */\n  dup3\n    /* \"#utility.yul\":8970:9037   */\n  tag_50\n  jump\t// in\ntag_151:\n    /* \"#utility.yul\":8964:8968   */\n  dup7\n    /* \"#utility.yul\":8957:9038   */\n  sstore\n    /* \"#utility.yul\":8826:9048   */\n  pop\n    /* \"#utility.yul\":8161:9048   */\n  jump(tag_148)\n    /* \"#utility.yul\":8191:8809   */\ntag_149:\n    /* \"#utility.yul\":8243:8247   */\n  0x1f\n    /* \"#utility.yul\":8239:8248   */\n  not\n    /* \"#utility.yul\":8231:8237   */\n  dup5\n    /* \"#utility.yul\":8227:8249   */\n  and\n    /* \"#utility.yul\":8277:8314   */\n  tag_152\n    /* \"#utility.yul\":8309:8313   */\n  dup7\n    /* \"#utility.yul\":8277:8314   */\n  tag_36\n  jump\t// in\ntag_152:\n    /* \"#utility.yul\":8336:8337   */\n  0x00\n    /* \"#utility.yul\":8350:8558   */\ntag_153:\n    /* \"#utility.yul\":8364:8371   */\n  dup3\n    /* \"#utility.yul\":8361:8362   */\n  dup2\n    /* \"#utility.yul\":8358:8372   */\n  lt\n    /* \"#utility.yul\":8350:8558   */\n  iszero\n  tag_155\n  jumpi\n    /* \"#utility.yul\":8443:8452   */\n  dup5\n    /* \"#utility.yul\":8438:8441   */\n  dup10\n    /* \"#utility.yul\":8434:8453   */\n  add\n    /* \"#utility.yul\":8428:8454   */\n  mload\n    /* \"#utility.yul\":8420:8426   */\n  dup3\n    /* \"#utility.yul\":8413:8455   */\n  sstore\n    /* \"#utility.yul\":8494:8495   */\n  0x01\n    /* \"#utility.yul\":8486:8492   */\n  dup3\n    /* \"#utility.yul\":8482:8496   */\n  add\n    /* \"#utility.yul\":8472:8496   */\n  swap2\n  pop\n    /* \"#utility.yul\":8541:8543   */\n  0x20\n    /* \"#utility.yul\":8530:8539   */\n  dup6\n    /* \"#utility.yul\":8526:8544   */\n  add\n    /* \"#utility.yul\":8513:8544   */\n  swap5\n  pop\n    /* \"#utility.yul\":8387:8391   */\n  0x20\n    /* \"#utility.yul\":8384:8385   */\n  dup2\n    /* \"#utility.yul\":8380:8392   */\n  add\n    /* \"#utility.yul\":8375:8392   */\n  swap1\n  pop\n    /* \"#utility.yul\":8350:8558   */\n  jump(tag_153)\ntag_155:\n    /* \"#utility.yul\":8586:8592   */\n  dup7\n    /* \"#utility.yul\":8577:8584   */\n  dup4\n    /* \"#utility.yul\":8574:8593   */\n  lt\n    /* \"#utility.yul\":8571:8750   */\n  iszero\n  tag_156\n  jumpi\n    /* \"#utility.yul\":8644:8653   */\n  dup5\n    /* \"#utility.yul\":8639:8642   */\n  dup10\n    /* \"#utility.yul\":8635:8654   */\n  add\n    /* \"#utility.yul\":8629:8655   */\n  mload\n    /* \"#utility.yul\":8687:8735   */\n  tag_157\n    /* \"#utility.yul\":8729:8733   */\n  0x1f\n    /* \"#utility.yul\":8721:8727   */\n  dup10\n    /* \"#utility.yul\":8717:8734   */\n  and\n    /* \"#utility.yul\":8706:8715   */\n  dup3\n    /* \"#utility.yul\":8687:8735   */\n  tag_49\n  jump\t// in\ntag_157:\n    /* \"#utility.yul\":8679:8685   */\n  dup4\n    /* \"#utility.yul\":8672:8736   */\n  sstore\n    /* \"#utility.yul\":8594:8750   */\n  pop\n    /* \"#utility.yul\":8571:8750   */\ntag_156:\n    /* \"#utility.yul\":8796:8797   */\n  0x01\n    /* \"#utility.yul\":8792:8793   */\n  0x02\n    /* \"#utility.yul\":8784:8790   */\n  dup9\n    /* \"#utility.yul\":8780:8794   */\n  mul\n    /* \"#utility.yul\":8776:8798   */\n  add\n    /* \"#utility.yul\":8770:8774   */\n  dup9\n    /* \"#utility.yul\":8763:8799   */\n  sstore\n    /* \"#utility.yul\":8198:8809   */\n  pop\n  pop\n  pop\n    /* \"#utility.yul\":8161:9048   */\ntag_148:\n  pop\n    /* \"#utility.yul\":7751:9054   */\n  pop\n  pop\n  pop\n    /* \"#utility.yul\":7659:9054   */\n  pop\n  pop\n  jump\t// out\n    /* \"#utility.yul\":9060:9240   */\ntag_51:\n    /* \"#utility.yul\":9108:9185   */\n  0x4e487b7100000000000000000000000000000000000000000000000000000000\n    /* \"#utility.yul\":9105:9106   */\n  0x00\n    /* \"#utility.yul\":9098:9186   */\n  mstore\n    /* \"#utility.yul\":9205:9209   */\n  0x11\n    /* \"#utility.yul\":9202:9203   */\n  0x04\n    /* \"#utility.yul\":9195:9210   */\n  mstore\n    /* \"#utility.yul\":9229:9233   */\n  0x24\n    /* \"#utility.yul\":9226:9227   */\n  0x00\n    /* \"#utility.yul\":9219:9234   */\n  revert\n    /* \"#utility.yul\":9246:9656   */\ntag_10:\n    /* \"#utility.yul\":9286:9293   */\n  0x00\n    /* \"#utility.yul\":9309:9329   */\n  tag_160\n    /* \"#utility.yul\":9327:9328   */\n  dup3\n    /* \"#utility.yul\":9309:9329   */\n  tag_30\n  jump\t// in\ntag_160:\n    /* \"#utility.yul\":9304:9329   */\n  swap2\n  pop\n    /* \"#utility.yul\":9343:9363   */\n  tag_161\n    /* \"#utility.yul\":9361:9362   */\n  dup4\n    /* \"#utility.yul\":9343:9363   */\n  tag_30\n  jump\t// in\ntag_161:\n    /* \"#utility.yul\":9338:9363   */\n  swap3\n  pop\n    /* \"#utility.yul\":9398:9399   */\n  dup3\n    /* \"#utility.yul\":9395:9396   */\n  dup3\n    /* \"#utility.yul\":9391:9400   */\n  mul\n    /* \"#utility.yul\":9420:9450   */\n  tag_162\n    /* \"#utility.yul\":9438:9449   */\n  dup2\n    /* \"#utility.yul\":9420:9450   */\n  tag_30\n  jump\t// in\ntag_162:\n    /* \"#utility.yul\":9409:9450   */\n  swap2\n  pop\n    /* \"#utility.yul\":9599:9600   */\n  dup3\n    /* \"#utility.yul\":9590:9597   */\n  dup3\n    /* \"#utility.yul\":9586:9601   */\n  div\n    /* \"#utility.yul\":9583:9584   */\n  dup5\n    /* \"#utility.yul\":9580:9602   */\n  eq\n    /* \"#utility.yul\":9560:9561   */\n  dup4\n    /* \"#utility.yul\":9553:9562   */\n  iszero\n    /* \"#utility.yul\":9533:9616   */\n  or\n    /* \"#utility.yul\":9510:9649   */\n  tag_163\n  jumpi\n    /* \"#utility.yul\":9629:9647   */\n  tag_164\n  tag_51\n  jump\t// in\ntag_164:\n    /* \"#utility.yul\":9510:9649   */\ntag_163:\n    /* \"#utility.yul\":9294:9656   */\n  pop\n    /* \"#utility.yul\":9246:9656   */\n  swap3\n  swap2\n  pop\n  pop\n  jump\t// out\n    /* \"#utility.yul\":9662:9853   */\ntag_12:\n    /* \"#utility.yul\":9702:9705   */\n  0x00\n    /* \"#utility.yul\":9721:9741   */\n  tag_166\n    /* \"#utility.yul\":9739:9740   */\n  dup3\n    /* \"#utility.yul\":9721:9741   */\n  tag_30\n  jump\t// in\ntag_166:\n    /* \"#utility.yul\":9716:9741   */\n  swap2\n  pop\n    /* \"#utility.yul\":9755:9775   */\n  tag_167\n    /* \"#utility.yul\":9773:9774   */\n  dup4\n    /* \"#utility.yul\":9755:9775   */\n  tag_30\n  jump\t// in\ntag_167:\n    /* \"#utility.yul\":9750:9775   */\n  swap3\n  pop\n    /* \"#utility.yul\":9798:9799   */\n  dup3\n    /* \"#utility.yul\":9795:9796   */\n  dup3\n    /* \"#utility.yul\":9791:9800   */\n  add\n    /* \"#utility.yul\":9784:9800   */\n  swap1\n  pop\n    /* \"#utility.yul\":9819:9822   */\n  dup1\n    /* \"#utility.yul\":9816:9817   */\n  dup3\n    /* \"#utility.yul\":9813:9823   */\n  gt\n    /* \"#utility.yul\":9810:9846   */\n  iszero\n  tag_168\n  jumpi\n    /* \"#utility.yul\":9826:9844   */\n  tag_169\n  tag_51\n  jump\t// in\ntag_169:\n    /* \"#utility.yul\":9810:9846   */\ntag_168:\n    /* \"#utility.yul\":9662:9853   */\n  swap3\n  swap2\n  pop\n  pop\n  jump\t// out\n    /* \"#utility.yul\":9859:10039   */\ntag_15:\n    /* \"#utility.yul\":9907:9984   */\n  0x4e487b7100000000000000000000000000000000000000000000000000000000\n    /* \"#utility.yul\":9904:9905   */\n  0x00\n    /* \"#utility.yul\":9897:9985   */\n  mstore\n    /* \"#utility.yul\":10004:10008   */\n  0x21\n    /* \"#utility.yul\":10001:10002   */\n  0x04\n    /* \"#utility.yul\":9994:10009   */\n  mstore\n    /* \"#utility.yul\":10028:10032   */\n  0x24\n    /* \"#utility.yul\":10025:10026   */\n  0x00\n    /* \"#utility.yul\":10018:10033   */\n  revert\n    /* \"contracts/crowd_funding.sol\":58:4120  contract CrowdFunding {... */\ntag_16:\n  dataSize(sub_0)\n  dup1\n  dataOffset(sub_0)\n  0x00\n  codecopy\n  0x00\n  return\nstop\n\nsub_0: assembly {\n        /* \"contracts/crowd_funding.sol\":58:4120  contract CrowdFunding {... */\n      mstore(0x40, 0x80)\n      jumpi(tag_1, lt(calldatasize, 0x04))\n      shr(0xe0, calldataload(0x00))\n      dup1\n      0x7284e416\n      gt\n      tag_22\n      jumpi\n      dup1\n      0xb85dfb80\n      gt\n      tag_23\n      jumpi\n      dup1\n      0xb85dfb80\n      eq\n      tag_17\n      jumpi\n      dup1\n      0xc19d93fb\n      eq\n      tag_18\n      jumpi\n      dup1\n      0xc4ae3168\n      eq\n      tag_19\n      jumpi\n      dup1\n      0xca1d209d\n      eq\n      tag_20\n      jumpi\n      dup1\n      0xde170570\n      eq\n      tag_21\n      jumpi\n      jump(tag_1)\n    tag_23:\n      dup1\n      0x7284e416\n      eq\n      tag_12\n      jumpi\n      dup1\n      0x7497211b\n      eq\n      tag_13\n      jumpi\n      dup1\n      0x7adba527\n      eq\n      tag_14\n      jumpi\n      dup1\n      0x8da5cb5b\n      eq\n      tag_15\n      jumpi\n      dup1\n      0x8ece7b91\n      eq\n      tag_16\n      jumpi\n      jump(tag_1)\n    tag_22:\n      dup1\n      0x3ccfd60b\n      gt\n      tag_24\n      jumpi\n      dup1\n      0x3ccfd60b\n      eq\n      tag_7\n      jumpi\n      dup1\n      0x40193883\n      eq\n      tag_8\n      jumpi\n      dup1\n      0x590e1ae3\n      eq\n      tag_9\n      jumpi\n      dup1\n      0x5c975abb\n      eq\n      tag_10\n      jumpi\n      dup1\n      0x6f9fb98a\n      eq\n      tag_11\n      jumpi\n      jump(tag_1)\n    tag_24:\n      dup1\n      0x039af9eb\n      eq\n      tag_2\n      jumpi\n      dup1\n      0x06fdde03\n      eq\n      tag_3\n      jumpi\n      dup1\n      0x10550515\n      eq\n      tag_4\n      jumpi\n      dup1\n      0x29dcb0cf\n      eq\n      tag_5\n      jumpi\n      dup1\n      0x389b7533\n      eq\n      tag_6\n      jumpi\n    tag_1:\n      0x00\n      dup1\n      revert\n        /* \"contracts/crowd_funding.sol\":537:556  Tier[] public tiers */\n    tag_2:\n      callvalue\n      dup1\n      iszero\n      tag_25\n      jumpi\n      0x00\n      dup1\n      revert\n    tag_25:\n      pop\n      tag_26\n      0x04\n      dup1\n      calldatasize\n      sub\n      dup2\n      add\n      swap1\n      tag_27\n      swap2\n      swap1\n      tag_28\n      jump\t// in\n    tag_27:\n      tag_29\n      jump\t// in\n    tag_26:\n      mload(0x40)\n      tag_30\n      swap4\n      swap3\n      swap2\n      swap1\n      tag_31\n      jump\t// in\n    tag_30:\n      mload(0x40)\n      dup1\n      swap2\n      sub\n      swap1\n      return\n        /* \"contracts/crowd_funding.sol\":86:104  string public name */\n    tag_3:\n      callvalue\n      dup1\n      iszero\n      tag_32\n      jumpi\n      0x00\n      dup1\n      revert\n    tag_32:\n      pop\n      tag_33\n      tag_34\n      jump\t// in\n    tag_33:\n      mload(0x40)\n      tag_35\n      swap2\n      swap1\n      tag_36\n      jump\t// in\n    tag_35:\n      mload(0x40)\n      dup1\n      swap2\n      sub\n      swap1\n      return\n        /* \"contracts/crowd_funding.sol\":3710:3989  function getCampaignStatus() public view returns (CampaignState) {... */\n    tag_4:\n      callvalue\n      dup1\n      iszero\n      tag_37\n      jumpi\n      0x00\n      dup1\n      revert\n    tag_37:\n      pop\n      tag_38\n      tag_39\n      jump\t// in\n    tag_38:\n      mload(0x40)\n      tag_40\n      swap2\n      swap1\n      tag_41\n      jump\t// in\n    tag_40:\n      mload(0x40)\n      dup1\n      swap2\n      sub\n      swap1\n      return\n        /* \"contracts/crowd_funding.sol\":166:189  uint256 public deadline */\n    tag_5:\n      callvalue\n      dup1\n      iszero\n      tag_42\n      jumpi\n      0x00\n      dup1\n      revert\n    tag_42:\n      pop\n      tag_43\n      tag_44\n      jump\t// in\n    tag_43:\n      mload(0x40)\n      tag_45\n      swap2\n      swap1\n      tag_46\n      jump\t// in\n    tag_45:\n      mload(0x40)\n      dup1\n      swap2\n      sub\n      swap1\n      return\n        /* \"contracts/crowd_funding.sol\":3995:4117  function extendDeadline(uint256 _daysToAdd) public OnlyOwner campaignOpen {... */\n    tag_6:\n      callvalue\n      dup1\n      iszero\n      tag_47\n      jumpi\n      0x00\n      dup1\n      revert\n    tag_47:\n      pop\n      tag_48\n      0x04\n      dup1\n      calldatasize\n      sub\n      dup2\n      add\n      swap1\n      tag_49\n      swap2\n      swap1\n      tag_28\n      jump\t// in\n    tag_49:\n      tag_50\n      jump\t// in\n    tag_48:\n      stop\n        /* \"contracts/crowd_funding.sol\":2571:2893  function withdraw () public OnlyOwner{... */\n    tag_7:\n      callvalue\n      dup1\n      iszero\n      tag_51\n      jumpi\n      0x00\n      dup1\n      revert\n    tag_51:\n      pop\n      tag_52\n      tag_53\n      jump\t// in\n    tag_52:\n      stop\n        /* \"contracts/crowd_funding.sol\":141:160  uint256 public goal */\n    tag_8:\n      callvalue\n      dup1\n      iszero\n      tag_54\n      jumpi\n      0x00\n      dup1\n      revert\n    tag_54:\n      pop\n      tag_55\n      tag_56\n      jump\t// in\n    tag_55:\n      mload(0x40)\n      tag_57\n      swap2\n      swap1\n      tag_46\n      jump\t// in\n    tag_57:\n      mload(0x40)\n      dup1\n      swap2\n      sub\n      swap1\n      return\n        /* \"contracts/crowd_funding.sol\":3012:3377  function refund() public {... */\n    tag_9:\n      callvalue\n      dup1\n      iszero\n      tag_58\n      jumpi\n      0x00\n      dup1\n      revert\n    tag_58:\n      pop\n      tag_59\n      tag_60\n      jump\t// in\n    tag_59:\n      stop\n        /* \"contracts/crowd_funding.sol\":221:239  bool public paused */\n    tag_10:\n      callvalue\n      dup1\n      iszero\n      tag_61\n      jumpi\n      0x00\n      dup1\n      revert\n    tag_61:\n      pop\n      tag_62\n      tag_63\n      jump\t// in\n    tag_62:\n      mload(0x40)\n      tag_64\n      swap2\n      swap1\n      tag_65\n      jump\t// in\n    tag_64:\n      mload(0x40)\n      dup1\n      swap2\n      sub\n      swap1\n      return\n        /* \"contracts/crowd_funding.sol\":2899:3006  function getContractBalance () public view returns(uint256) {... */\n    tag_11:\n      callvalue\n      dup1\n      iszero\n      tag_66\n      jumpi\n      0x00\n      dup1\n      revert\n    tag_66:\n      pop\n      tag_67\n      tag_68\n      jump\t// in\n    tag_67:\n      mload(0x40)\n      tag_69\n      swap2\n      swap1\n      tag_46\n      jump\t// in\n    tag_69:\n      mload(0x40)\n      dup1\n      swap2\n      sub\n      swap1\n      return\n        /* \"contracts/crowd_funding.sol\":110:135  string public description */\n    tag_12:\n      callvalue\n      dup1\n      iszero\n      tag_70\n      jumpi\n      0x00\n      dup1\n      revert\n    tag_70:\n      pop\n      tag_71\n      tag_72\n      jump\t// in\n    tag_71:\n      mload(0x40)\n      tag_73\n      swap2\n      swap1\n      tag_36\n      jump\t// in\n    tag_73:\n      mload(0x40)\n      dup1\n      swap2\n      sub\n      swap1\n      return\n        /* \"contracts/crowd_funding.sol\":2372:2565  function removeTier (uint256 _index) public OnlyOwner{... */\n    tag_13:\n      callvalue\n      dup1\n      iszero\n      tag_74\n      jumpi\n      0x00\n      dup1\n      revert\n    tag_74:\n      pop\n      tag_75\n      0x04\n      dup1\n      calldatasize\n      sub\n      dup2\n      add\n      swap1\n      tag_76\n      swap2\n      swap1\n      tag_28\n      jump\t// in\n    tag_76:\n      tag_77\n      jump\t// in\n    tag_75:\n      stop\n        /* \"contracts/crowd_funding.sol\":3383:3534  function hasFundedTier(address _backer, uint256 _tierIndex) public view returns (bool) {... */\n    tag_14:\n      callvalue\n      dup1\n      iszero\n      tag_78\n      jumpi\n      0x00\n      dup1\n      revert\n    tag_78:\n      pop\n      tag_79\n      0x04\n      dup1\n      calldatasize\n      sub\n      dup2\n      add\n      swap1\n      tag_80\n      swap2\n      swap1\n      tag_81\n      jump\t// in\n    tag_80:\n      tag_82\n      jump\t// in\n    tag_79:\n      mload(0x40)\n      tag_83\n      swap2\n      swap1\n      tag_65\n      jump\t// in\n    tag_83:\n      mload(0x40)\n      dup1\n      swap2\n      sub\n      swap1\n      return\n        /* \"contracts/crowd_funding.sol\":195:215  address public owner */\n    tag_15:\n      callvalue\n      dup1\n      iszero\n      tag_84\n      jumpi\n      0x00\n      dup1\n      revert\n    tag_84:\n      pop\n      tag_85\n      tag_86\n      jump\t// in\n    tag_85:\n      mload(0x40)\n      tag_87\n      swap2\n      swap1\n      tag_88\n      jump\t// in\n    tag_87:\n      mload(0x40)\n      dup1\n      swap2\n      sub\n      swap1\n      return\n        /* \"contracts/crowd_funding.sol\":2168:2366  function addTier (... */\n    tag_16:\n      callvalue\n      dup1\n      iszero\n      tag_89\n      jumpi\n      0x00\n      dup1\n      revert\n    tag_89:\n      pop\n      tag_90\n      0x04\n      dup1\n      calldatasize\n      sub\n      dup2\n      add\n      swap1\n      tag_91\n      swap2\n      swap1\n      tag_92\n      jump\t// in\n    tag_91:\n      tag_93\n      jump\t// in\n    tag_90:\n      stop\n        /* \"contracts/crowd_funding.sol\":562:603  mapping(address => Backer) public backers */\n    tag_17:\n      callvalue\n      dup1\n      iszero\n      tag_94\n      jumpi\n      0x00\n      dup1\n      revert\n    tag_94:\n      pop\n      tag_95\n      0x04\n      dup1\n      calldatasize\n      sub\n      dup2\n      add\n      swap1\n      tag_96\n      swap2\n      swap1\n      tag_97\n      jump\t// in\n    tag_96:\n      tag_98\n      jump\t// in\n    tag_95:\n      mload(0x40)\n      tag_99\n      swap2\n      swap1\n      tag_46\n      jump\t// in\n    tag_99:\n      mload(0x40)\n      dup1\n      swap2\n      sub\n      swap1\n      return\n        /* \"contracts/crowd_funding.sol\":299:325  CampaignState public state */\n    tag_18:\n      callvalue\n      dup1\n      iszero\n      tag_100\n      jumpi\n      0x00\n      dup1\n      revert\n    tag_100:\n      pop\n      tag_101\n      tag_102\n      jump\t// in\n    tag_101:\n      mload(0x40)\n      tag_103\n      swap2\n      swap1\n      tag_41\n      jump\t// in\n    tag_103:\n      mload(0x40)\n      dup1\n      swap2\n      sub\n      swap1\n      return\n        /* \"contracts/crowd_funding.sol\":3631:3704  function togglePause() public OnlyOwner {... */\n    tag_19:\n      callvalue\n      dup1\n      iszero\n      tag_104\n      jumpi\n      0x00\n      dup1\n      revert\n    tag_104:\n      pop\n      tag_105\n      tag_106\n      jump\t// in\n    tag_105:\n      stop\n        /* \"contracts/crowd_funding.sol\":1745:2162  function fund (uint256 _tierIndex) public payable campaignOpen notPaused{... */\n    tag_20:\n      tag_107\n      0x04\n      dup1\n      calldatasize\n      sub\n      dup2\n      add\n      swap1\n      tag_108\n      swap2\n      swap1\n      tag_28\n      jump\t// in\n    tag_108:\n      tag_109\n      jump\t// in\n    tag_107:\n      stop\n        /* \"contracts/crowd_funding.sol\":3540:3625  function getTiers() public view returns (Tier[] memory) {... */\n    tag_21:\n      callvalue\n      dup1\n      iszero\n      tag_110\n      jumpi\n      0x00\n      dup1\n      revert\n    tag_110:\n      pop\n      tag_111\n      tag_112\n      jump\t// in\n    tag_111:\n      mload(0x40)\n      tag_113\n      swap2\n      swap1\n      tag_114\n      jump\t// in\n    tag_113:\n      mload(0x40)\n      dup1\n      swap2\n      sub\n      swap1\n      return\n        /* \"contracts/crowd_funding.sol\":537:556  Tier[] public tiers */\n    tag_29:\n      0x05\n      dup2\n      dup2\n      sload\n      dup2\n      lt\n      tag_115\n      jumpi\n      0x00\n      dup1\n      revert\n    tag_115:\n      swap1\n      0x00\n      mstore\n      keccak256(0x00, 0x20)\n      swap1\n      0x03\n      mul\n      add\n      0x00\n      swap2\n      pop\n      swap1\n      pop\n      dup1\n      0x00\n      add\n      dup1\n      sload\n      tag_117\n      swap1\n      tag_118\n      jump\t// in\n    tag_117:\n      dup1\n      0x1f\n      add\n      0x20\n      dup1\n      swap2\n      div\n      mul\n      0x20\n      add\n      mload(0x40)\n      swap1\n      dup2\n      add\n      0x40\n      mstore\n      dup1\n      swap3\n      swap2\n      swap1\n      dup2\n      dup2\n      mstore\n      0x20\n      add\n      dup3\n      dup1\n      sload\n      tag_119\n      swap1\n      tag_118\n      jump\t// in\n    tag_119:\n      dup1\n      iszero\n      tag_120\n      jumpi\n      dup1\n      0x1f\n      lt\n      tag_121\n      jumpi\n      0x0100\n      dup1\n      dup4\n      sload\n      div\n      mul\n      dup4\n      mstore\n      swap2\n      0x20\n      add\n      swap2\n      jump(tag_120)\n    tag_121:\n      dup3\n      add\n      swap2\n      swap1\n      0x00\n      mstore\n      keccak256(0x00, 0x20)\n      swap1\n    tag_122:\n      dup2\n      sload\n      dup2\n      mstore\n      swap1\n      0x01\n      add\n      swap1\n      0x20\n      add\n      dup1\n      dup4\n      gt\n      tag_122\n      jumpi\n      dup3\n      swap1\n      sub\n      0x1f\n      and\n      dup3\n      add\n      swap2\n    tag_120:\n      pop\n      pop\n      pop\n      pop\n      pop\n      swap1\n      dup1\n      0x01\n      add\n      sload\n      swap1\n      dup1\n      0x02\n      add\n      sload\n      swap1\n      pop\n      dup4\n      jump\t// out\n        /* \"contracts/crowd_funding.sol\":86:104  string public name */\n    tag_34:\n      0x00\n      dup1\n      sload\n      tag_123\n      swap1\n      tag_118\n      jump\t// in\n    tag_123:\n      dup1\n      0x1f\n      add\n      0x20\n      dup1\n      swap2\n      div\n      mul\n      0x20\n      add\n      mload(0x40)\n      swap1\n      dup2\n      add\n      0x40\n      mstore\n      dup1\n      swap3\n      swap2\n      swap1\n      dup2\n      dup2\n      mstore\n      0x20\n      add\n      dup3\n      dup1\n      sload\n      tag_124\n      swap1\n      tag_118\n      jump\t// in\n    tag_124:\n      dup1\n      iszero\n      tag_125\n      jumpi\n      dup1\n      0x1f\n      lt\n      tag_126\n      jumpi\n      0x0100\n      dup1\n      dup4\n      sload\n      div\n      mul\n      dup4\n      mstore\n      swap2\n      0x20\n      add\n      swap2\n      jump(tag_125)\n    tag_126:\n      dup3\n      add\n      swap2\n      swap1\n      0x00\n      mstore\n      keccak256(0x00, 0x20)\n      swap1\n    tag_127:\n      dup2\n      sload\n      dup2\n      mstore\n      swap1\n      0x01\n      add\n      swap1\n      0x20\n      add\n      dup1\n      dup4\n      gt\n      tag_127\n      jumpi\n      dup3\n      swap1\n      sub\n      0x1f\n      and\n      dup3\n      add\n      swap2\n    tag_125:\n      pop\n      pop\n      pop\n      pop\n      pop\n      dup2\n      jump\t// out\n        /* \"contracts/crowd_funding.sol\":3710:3989  function getCampaignStatus() public view returns (CampaignState) {... */\n    tag_39:\n        /* \"contracts/crowd_funding.sol\":3760:3773  CampaignState */\n      0x00\n        /* \"contracts/crowd_funding.sol\":3798:3818  CampaignState.Active */\n      0x02\n        /* \"contracts/crowd_funding.sol\":3789:3818  state == CampaignState.Active */\n      dup1\n      dup2\n      gt\n      iszero\n      tag_129\n      jumpi\n      tag_130\n      tag_131\n      jump\t// in\n    tag_130:\n    tag_129:\n        /* \"contracts/crowd_funding.sol\":3789:3794  state */\n      0x04\n      0x15\n      swap1\n      sload\n      swap1\n      0x0100\n      exp\n      swap1\n      div\n      0xff\n      and\n        /* \"contracts/crowd_funding.sol\":3789:3818  state == CampaignState.Active */\n      0x02\n      dup2\n      gt\n      iszero\n      tag_132\n      jumpi\n      tag_133\n      tag_131\n      jump\t// in\n    tag_133:\n    tag_132:\n      eq\n        /* \"contracts/crowd_funding.sol\":3789:3848  state == CampaignState.Active && block.timestamp > deadline */\n      dup1\n      iszero\n      tag_134\n      jumpi\n      pop\n        /* \"contracts/crowd_funding.sol\":3840:3848  deadline */\n      sload(0x03)\n        /* \"contracts/crowd_funding.sol\":3822:3837  block.timestamp */\n      timestamp\n        /* \"contracts/crowd_funding.sol\":3822:3848  block.timestamp > deadline */\n      gt\n        /* \"contracts/crowd_funding.sol\":3789:3848  state == CampaignState.Active && block.timestamp > deadline */\n    tag_134:\n        /* \"contracts/crowd_funding.sol\":3785:3961  if (state == CampaignState.Active && block.timestamp > deadline) {... */\n      iszero\n      tag_135\n      jumpi\n        /* \"contracts/crowd_funding.sol\":3896:3900  goal */\n      sload(0x02)\n        /* \"contracts/crowd_funding.sol\":3871:3892  address(this).balance */\n      selfbalance\n        /* \"contracts/crowd_funding.sol\":3871:3900  address(this).balance >= goal */\n      lt\n      iszero\n        /* \"contracts/crowd_funding.sol\":3871:3950  address(this).balance >= goal ? CampaignState.Successful : CampaignState.Failed */\n      tag_136\n      jumpi\n        /* \"contracts/crowd_funding.sol\":3930:3950  CampaignState.Failed */\n      0x01\n        /* \"contracts/crowd_funding.sol\":3871:3950  address(this).balance >= goal ? CampaignState.Successful : CampaignState.Failed */\n      jump(tag_137)\n    tag_136:\n        /* \"contracts/crowd_funding.sol\":3903:3927  CampaignState.Successful */\n      0x00\n        /* \"contracts/crowd_funding.sol\":3871:3950  address(this).balance >= goal ? CampaignState.Successful : CampaignState.Failed */\n    tag_137:\n        /* \"contracts/crowd_funding.sol\":3864:3950  return address(this).balance >= goal ? CampaignState.Successful : CampaignState.Failed */\n      swap1\n      pop\n      jump(tag_128)\n        /* \"contracts/crowd_funding.sol\":3785:3961  if (state == CampaignState.Active && block.timestamp > deadline) {... */\n    tag_135:\n        /* \"contracts/crowd_funding.sol\":3977:3982  state */\n      0x04\n      0x15\n      swap1\n      sload\n      swap1\n      0x0100\n      exp\n      swap1\n      div\n      0xff\n      and\n        /* \"contracts/crowd_funding.sol\":3970:3982  return state */\n      swap1\n      pop\n        /* \"contracts/crowd_funding.sol\":3710:3989  function getCampaignStatus() public view returns (CampaignState) {... */\n    tag_128:\n      swap1\n      jump\t// out\n        /* \"contracts/crowd_funding.sol\":166:189  uint256 public deadline */\n    tag_44:\n      sload(0x03)\n      dup2\n      jump\t// out\n        /* \"contracts/crowd_funding.sol\":3995:4117  function extendDeadline(uint256 _daysToAdd) public OnlyOwner campaignOpen {... */\n    tag_50:\n        /* \"contracts/crowd_funding.sol\":664:669  owner */\n      0x04\n      0x00\n      swap1\n      sload\n      swap1\n      0x0100\n      exp\n      swap1\n      div\n      0xffffffffffffffffffffffffffffffffffffffff\n      and\n        /* \"contracts/crowd_funding.sol\":650:669  msg.sender == owner */\n      0xffffffffffffffffffffffffffffffffffffffff\n      and\n        /* \"contracts/crowd_funding.sol\":650:660  msg.sender */\n      caller\n        /* \"contracts/crowd_funding.sol\":650:669  msg.sender == owner */\n      0xffffffffffffffffffffffffffffffffffffffff\n      and\n      eq\n        /* \"contracts/crowd_funding.sol\":642:713  require(msg.sender == owner,\"Only the owner can withdraw the funds...\") */\n      tag_139\n      jumpi\n      mload(0x40)\n      0x08c379a000000000000000000000000000000000000000000000000000000000\n      dup2\n      mstore\n      0x04\n      add\n      tag_140\n      swap1\n      tag_141\n      jump\t// in\n    tag_140:\n      mload(0x40)\n      dup1\n      swap2\n      sub\n      swap1\n      revert\n    tag_139:\n        /* \"contracts/crowd_funding.sol\":796:816  CampaignState.Active */\n      0x02\n        /* \"contracts/crowd_funding.sol\":787:816  state == CampaignState.Active */\n      dup1\n      dup2\n      gt\n      iszero\n      tag_143\n      jumpi\n      tag_144\n      tag_131\n      jump\t// in\n    tag_144:\n    tag_143:\n        /* \"contracts/crowd_funding.sol\":787:792  state */\n      0x04\n      0x15\n      swap1\n      sload\n      swap1\n      0x0100\n      exp\n      swap1\n      div\n      0xff\n      and\n        /* \"contracts/crowd_funding.sol\":787:816  state == CampaignState.Active */\n      0x02\n      dup2\n      gt\n      iszero\n      tag_145\n      jumpi\n      tag_146\n      tag_131\n      jump\t// in\n    tag_146:\n    tag_145:\n      eq\n        /* \"contracts/crowd_funding.sol\":779:845  require(state == CampaignState.Active,\"Campaign is not active...\") */\n      tag_147\n      jumpi\n      mload(0x40)\n      0x08c379a000000000000000000000000000000000000000000000000000000000\n      dup2\n      mstore\n      0x04\n      add\n      tag_148\n      swap1\n      tag_149\n      jump\t// in\n    tag_148:\n      mload(0x40)\n      dup1\n      swap2\n      sub\n      swap1\n      revert\n    tag_147:\n        /* \"contracts/crowd_funding.sol\":4104:4110  1 days */\n      0x015180\n        /* \"contracts/crowd_funding.sol\":4091:4101  _daysToAdd */\n      dup2\n        /* \"contracts/crowd_funding.sol\":4091:4110  _daysToAdd * 1 days */\n      tag_151\n      swap2\n      swap1\n      tag_152\n      jump\t// in\n    tag_151:\n        /* \"contracts/crowd_funding.sol\":4079:4087  deadline */\n      0x03\n      0x00\n        /* \"contracts/crowd_funding.sol\":4079:4110  deadline += _daysToAdd * 1 days */\n      dup3\n      dup3\n      sload\n      tag_153\n      swap2\n      swap1\n      tag_154\n      jump\t// in\n    tag_153:\n      swap3\n      pop\n      pop\n      dup2\n      swap1\n      sstore\n      pop\n        /* \"contracts/crowd_funding.sol\":3995:4117  function extendDeadline(uint256 _daysToAdd) public OnlyOwner campaignOpen {... */\n      pop\n      jump\t// out\n        /* \"contracts/crowd_funding.sol\":2571:2893  function withdraw () public OnlyOwner{... */\n    tag_53:\n        /* \"contracts/crowd_funding.sol\":664:669  owner */\n      0x04\n      0x00\n      swap1\n      sload\n      swap1\n      0x0100\n      exp\n      swap1\n      div\n      0xffffffffffffffffffffffffffffffffffffffff\n      and\n        /* \"contracts/crowd_funding.sol\":650:669  msg.sender == owner */\n      0xffffffffffffffffffffffffffffffffffffffff\n      and\n        /* \"contracts/crowd_funding.sol\":650:660  msg.sender */\n      caller\n        /* \"contracts/crowd_funding.sol\":650:669  msg.sender == owner */\n      0xffffffffffffffffffffffffffffffffffffffff\n      and\n      eq\n        /* \"contracts/crowd_funding.sol\":642:713  require(msg.sender == owner,\"Only the owner can withdraw the funds...\") */\n      tag_156\n      jumpi\n      mload(0x40)\n      0x08c379a000000000000000000000000000000000000000000000000000000000\n      dup2\n      mstore\n      0x04\n      add\n      tag_157\n      swap1\n      tag_141\n      jump\t// in\n    tag_157:\n      mload(0x40)\n      dup1\n      swap2\n      sub\n      swap1\n      revert\n    tag_156:\n        /* \"contracts/crowd_funding.sol\":2618:2647  checkAndUpdateCampaignState() */\n      tag_159\n        /* \"contracts/crowd_funding.sol\":2618:2645  checkAndUpdateCampaignState */\n      tag_160\n        /* \"contracts/crowd_funding.sol\":2618:2647  checkAndUpdateCampaignState() */\n      jump\t// in\n    tag_159:\n        /* \"contracts/crowd_funding.sol\":2674:2698  CampaignState.Successful */\n      0x00\n        /* \"contracts/crowd_funding.sol\":2665:2698  state == CampaignState.Successful */\n      0x02\n      dup2\n      gt\n      iszero\n      tag_161\n      jumpi\n      tag_162\n      tag_131\n      jump\t// in\n    tag_162:\n    tag_161:\n        /* \"contracts/crowd_funding.sol\":2665:2670  state */\n      0x04\n      0x15\n      swap1\n      sload\n      swap1\n      0x0100\n      exp\n      swap1\n      div\n      0xff\n      and\n        /* \"contracts/crowd_funding.sol\":2665:2698  state == CampaignState.Successful */\n      0x02\n      dup2\n      gt\n      iszero\n      tag_163\n      jumpi\n      tag_164\n      tag_131\n      jump\t// in\n    tag_164:\n    tag_163:\n      eq\n        /* \"contracts/crowd_funding.sol\":2657:2731  require(state == CampaignState.Successful,\"Campaign is not successful...\") */\n      tag_165\n      jumpi\n      mload(0x40)\n      0x08c379a000000000000000000000000000000000000000000000000000000000\n      dup2\n      mstore\n      0x04\n      add\n      tag_166\n      swap1\n      tag_167\n      jump\t// in\n    tag_166:\n      mload(0x40)\n      dup1\n      swap2\n      sub\n      swap1\n      revert\n    tag_165:\n        /* \"contracts/crowd_funding.sol\":2742:2757  uint256 balance */\n      0x00\n        /* \"contracts/crowd_funding.sol\":2760:2781  address(this).balance */\n      selfbalance\n        /* \"contracts/crowd_funding.sol\":2742:2781  uint256 balance = address(this).balance */\n      swap1\n      pop\n        /* \"contracts/crowd_funding.sol\":2810:2811  0 */\n      0x00\n        /* \"contracts/crowd_funding.sol\":2800:2807  balance */\n      dup2\n        /* \"contracts/crowd_funding.sol\":2800:2811  balance > 0 */\n      gt\n        /* \"contracts/crowd_funding.sol\":2792:2840  require(balance > 0 ,\"The balance is zero....\" ) */\n      tag_168\n      jumpi\n      mload(0x40)\n      0x08c379a000000000000000000000000000000000000000000000000000000000\n      dup2\n      mstore\n      0x04\n      add\n      tag_169\n      swap1\n      tag_170\n      jump\t// in\n    tag_169:\n      mload(0x40)\n      dup1\n      swap2\n      sub\n      swap1\n      revert\n    tag_168:\n        /* \"contracts/crowd_funding.sol\":2860:2865  owner */\n      0x04\n      0x00\n      swap1\n      sload\n      swap1\n      0x0100\n      exp\n      swap1\n      div\n      0xffffffffffffffffffffffffffffffffffffffff\n      and\n        /* \"contracts/crowd_funding.sol\":2851:2875  payable (owner).transfer */\n      0xffffffffffffffffffffffffffffffffffffffff\n      and\n        /* \"contracts/crowd_funding.sol\":2851:2884  payable (owner).transfer(balance) */\n      0x08fc\n        /* \"contracts/crowd_funding.sol\":2876:2883  balance */\n      dup3\n        /* \"contracts/crowd_funding.sol\":2851:2884  payable (owner).transfer(balance) */\n      swap1\n      dup2\n      iszero\n      mul\n      swap1\n      mload(0x40)\n      0x00\n      mload(0x40)\n      dup1\n      dup4\n      sub\n      dup2\n      dup6\n      dup9\n      dup9\n      call\n      swap4\n      pop\n      pop\n      pop\n      pop\n      iszero\n      dup1\n      iszero\n      tag_172\n      jumpi\n      returndatasize\n      0x00\n      dup1\n      returndatacopy\n      revert(0x00, returndatasize)\n    tag_172:\n      pop\n        /* \"contracts/crowd_funding.sol\":2608:2893  {... */\n      pop\n        /* \"contracts/crowd_funding.sol\":2571:2893  function withdraw () public OnlyOwner{... */\n      jump\t// out\n        /* \"contracts/crowd_funding.sol\":141:160  uint256 public goal */\n    tag_56:\n      sload(0x02)\n      dup2\n      jump\t// out\n        /* \"contracts/crowd_funding.sol\":3012:3377  function refund() public {... */\n    tag_60:\n        /* \"contracts/crowd_funding.sol\":3047:3076  checkAndUpdateCampaignState() */\n      tag_174\n        /* \"contracts/crowd_funding.sol\":3047:3074  checkAndUpdateCampaignState */\n      tag_160\n        /* \"contracts/crowd_funding.sol\":3047:3076  checkAndUpdateCampaignState() */\n      jump\t// in\n    tag_174:\n        /* \"contracts/crowd_funding.sol\":3103:3123  CampaignState.Failed */\n      0x01\n        /* \"contracts/crowd_funding.sol\":3094:3123  state == CampaignState.Failed */\n      0x02\n      dup2\n      gt\n      iszero\n      tag_175\n      jumpi\n      tag_176\n      tag_131\n      jump\t// in\n    tag_176:\n    tag_175:\n        /* \"contracts/crowd_funding.sol\":3094:3099  state */\n      0x04\n      0x15\n      swap1\n      sload\n      swap1\n      0x0100\n      exp\n      swap1\n      div\n      0xff\n      and\n        /* \"contracts/crowd_funding.sol\":3094:3123  state == CampaignState.Failed */\n      0x02\n      dup2\n      gt\n      iszero\n      tag_177\n      jumpi\n      tag_178\n      tag_131\n      jump\t// in\n    tag_178:\n    tag_177:\n      eq\n        /* \"contracts/crowd_funding.sol\":3086:3150  require(state == CampaignState.Failed, \"Refunds not available.\") */\n      tag_179\n      jumpi\n      mload(0x40)\n      0x08c379a000000000000000000000000000000000000000000000000000000000\n      dup2\n      mstore\n      0x04\n      add\n      tag_180\n      swap1\n      tag_181\n      jump\t// in\n    tag_180:\n      mload(0x40)\n      dup1\n      swap2\n      sub\n      swap1\n      revert\n    tag_179:\n        /* \"contracts/crowd_funding.sol\":3160:3174  uint256 amount */\n      0x00\n        /* \"contracts/crowd_funding.sol\":3177:3184  backers */\n      0x06\n        /* \"contracts/crowd_funding.sol\":3177:3196  backers[msg.sender] */\n      0x00\n        /* \"contracts/crowd_funding.sol\":3185:3195  msg.sender */\n      caller\n        /* \"contracts/crowd_funding.sol\":3177:3196  backers[msg.sender] */\n      0xffffffffffffffffffffffffffffffffffffffff\n      and\n      0xffffffffffffffffffffffffffffffffffffffff\n      and\n      dup2\n      mstore\n      0x20\n      add\n      swap1\n      dup2\n      mstore\n      0x20\n      add\n      0x00\n      keccak256\n        /* \"contracts/crowd_funding.sol\":3177:3214  backers[msg.sender].totalContribution */\n      0x00\n      add\n      sload\n        /* \"contracts/crowd_funding.sol\":3160:3214  uint256 amount = backers[msg.sender].totalContribution */\n      swap1\n      pop\n        /* \"contracts/crowd_funding.sol\":3241:3242  0 */\n      0x00\n        /* \"contracts/crowd_funding.sol\":3232:3238  amount */\n      dup2\n        /* \"contracts/crowd_funding.sol\":3232:3242  amount > 0 */\n      gt\n        /* \"contracts/crowd_funding.sol\":3224:3272  require(amount > 0, \"No contribution to refund\") */\n      tag_182\n      jumpi\n      mload(0x40)\n      0x08c379a000000000000000000000000000000000000000000000000000000000\n      dup2\n      mstore\n      0x04\n      add\n      tag_183\n      swap1\n      tag_184\n      jump\t// in\n    tag_183:\n      mload(0x40)\n      dup1\n      swap2\n      sub\n      swap1\n      revert\n    tag_182:\n        /* \"contracts/crowd_funding.sol\":3323:3324  0 */\n      0x00\n        /* \"contracts/crowd_funding.sol\":3283:3290  backers */\n      0x06\n        /* \"contracts/crowd_funding.sol\":3283:3302  backers[msg.sender] */\n      0x00\n        /* \"contracts/crowd_funding.sol\":3291:3301  msg.sender */\n      caller\n        /* \"contracts/crowd_funding.sol\":3283:3302  backers[msg.sender] */\n      0xffffffffffffffffffffffffffffffffffffffff\n      and\n      0xffffffffffffffffffffffffffffffffffffffff\n      and\n      dup2\n      mstore\n      0x20\n      add\n      swap1\n      dup2\n      mstore\n      0x20\n      add\n      0x00\n      keccak256\n        /* \"contracts/crowd_funding.sol\":3283:3320  backers[msg.sender].totalContribution */\n      0x00\n      add\n        /* \"contracts/crowd_funding.sol\":3283:3324  backers[msg.sender].totalContribution = 0 */\n      dup2\n      swap1\n      sstore\n      pop\n        /* \"contracts/crowd_funding.sol\":3342:3352  msg.sender */\n      caller\n        /* \"contracts/crowd_funding.sol\":3334:3362  payable(msg.sender).transfer */\n      0xffffffffffffffffffffffffffffffffffffffff\n      and\n        /* \"contracts/crowd_funding.sol\":3334:3370  payable(msg.sender).transfer(amount) */\n      0x08fc\n        /* \"contracts/crowd_funding.sol\":3363:3369  amount */\n      dup3\n        /* \"contracts/crowd_funding.sol\":3334:3370  payable(msg.sender).transfer(amount) */\n      swap1\n      dup2\n      iszero\n      mul\n      swap1\n      mload(0x40)\n      0x00\n      mload(0x40)\n      dup1\n      dup4\n      sub\n      dup2\n      dup6\n      dup9\n      dup9\n      call\n      swap4\n      pop\n      pop\n      pop\n      pop\n      iszero\n      dup1\n      iszero\n      tag_186\n      jumpi\n      returndatasize\n      0x00\n      dup1\n      returndatacopy\n      revert(0x00, returndatasize)\n    tag_186:\n      pop\n        /* \"contracts/crowd_funding.sol\":3037:3377  {... */\n      pop\n        /* \"contracts/crowd_funding.sol\":3012:3377  function refund() public {... */\n      jump\t// out\n        /* \"contracts/crowd_funding.sol\":221:239  bool public paused */\n    tag_63:\n      0x04\n      0x14\n      swap1\n      sload\n      swap1\n      0x0100\n      exp\n      swap1\n      div\n      0xff\n      and\n      dup2\n      jump\t// out\n        /* \"contracts/crowd_funding.sol\":2899:3006  function getContractBalance () public view returns(uint256) {... */\n    tag_68:\n        /* \"contracts/crowd_funding.sol\":2950:2957  uint256 */\n      0x00\n        /* \"contracts/crowd_funding.sol\":2977:2998  address(this).balance */\n      selfbalance\n        /* \"contracts/crowd_funding.sol\":2970:2998  return address(this).balance */\n      swap1\n      pop\n        /* \"contracts/crowd_funding.sol\":2899:3006  function getContractBalance () public view returns(uint256) {... */\n      swap1\n      jump\t// out\n        /* \"contracts/crowd_funding.sol\":110:135  string public description */\n    tag_72:\n      0x01\n      dup1\n      sload\n      tag_188\n      swap1\n      tag_118\n      jump\t// in\n    tag_188:\n      dup1\n      0x1f\n      add\n      0x20\n      dup1\n      swap2\n      div\n      mul\n      0x20\n      add\n      mload(0x40)\n      swap1\n      dup2\n      add\n      0x40\n      mstore\n      dup1\n      swap3\n      swap2\n      swap1\n      dup2\n      dup2\n      mstore\n      0x20\n      add\n      dup3\n      dup1\n      sload\n      tag_189\n      swap1\n      tag_118\n      jump\t// in\n    tag_189:\n      dup1\n      iszero\n      tag_190\n      jumpi\n      dup1\n      0x1f\n      lt\n      tag_191\n      jumpi\n      0x0100\n      dup1\n      dup4\n      sload\n      div\n      mul\n      dup4\n      mstore\n      swap2\n      0x20\n      add\n      swap2\n      jump(tag_190)\n    tag_191:\n      dup3\n      add\n      swap2\n      swap1\n      0x00\n      mstore\n      keccak256(0x00, 0x20)\n      swap1\n    tag_192:\n      dup2\n      sload\n      dup2\n      mstore\n      swap1\n      0x01\n      add\n      swap1\n      0x20\n      add\n      dup1\n      dup4\n      gt\n      tag_192\n      jumpi\n      dup3\n      swap1\n      sub\n      0x1f\n      and\n      dup3\n      add\n      swap2\n    tag_190:\n      pop\n      pop\n      pop\n      pop\n      pop\n      dup2\n      jump\t// out\n        /* \"contracts/crowd_funding.sol\":2372:2565  function removeTier (uint256 _index) public OnlyOwner{... */\n    tag_77:\n        /* \"contracts/crowd_funding.sol\":664:669  owner */\n      0x04\n      0x00\n      swap1\n      sload\n      swap1\n      0x0100\n      exp\n      swap1\n      div\n      0xffffffffffffffffffffffffffffffffffffffff\n      and\n        /* \"contracts/crowd_funding.sol\":650:669  msg.sender == owner */\n      0xffffffffffffffffffffffffffffffffffffffff\n      and\n        /* \"contracts/crowd_funding.sol\":650:660  msg.sender */\n      caller\n        /* \"contracts/crowd_funding.sol\":650:669  msg.sender == owner */\n      0xffffffffffffffffffffffffffffffffffffffff\n      and\n      eq\n        /* \"contracts/crowd_funding.sol\":642:713  require(msg.sender == owner,\"Only the owner can withdraw the funds...\") */\n      tag_194\n      jumpi\n      mload(0x40)\n      0x08c379a000000000000000000000000000000000000000000000000000000000\n      dup2\n      mstore\n      0x04\n      add\n      tag_195\n      swap1\n      tag_141\n      jump\t// in\n    tag_195:\n      mload(0x40)\n      dup1\n      swap2\n      sub\n      swap1\n      revert\n    tag_194:\n        /* \"contracts/crowd_funding.sol\":2452:2457  tiers */\n      0x05\n        /* \"contracts/crowd_funding.sol\":2452:2464  tiers.length */\n      dup1\n      sload\n      swap1\n      pop\n        /* \"contracts/crowd_funding.sol\":2443:2449  _index */\n      dup2\n        /* \"contracts/crowd_funding.sol\":2443:2464  _index < tiers.length */\n      lt\n        /* \"contracts/crowd_funding.sol\":2435:2489  require(_index < tiers.length,\"Tier doesn't exist...\") */\n      tag_197\n      jumpi\n      mload(0x40)\n      0x08c379a000000000000000000000000000000000000000000000000000000000\n      dup2\n      mstore\n      0x04\n      add\n      tag_198\n      swap1\n      tag_199\n      jump\t// in\n    tag_198:\n      mload(0x40)\n      dup1\n      swap2\n      sub\n      swap1\n      revert\n    tag_197:\n        /* \"contracts/crowd_funding.sol\":2515:2520  tiers */\n      0x05\n        /* \"contracts/crowd_funding.sol\":2535:2536  1 */\n      0x01\n        /* \"contracts/crowd_funding.sol\":2521:2526  tiers */\n      0x05\n        /* \"contracts/crowd_funding.sol\":2521:2533  tiers.length */\n      dup1\n      sload\n      swap1\n      pop\n        /* \"contracts/crowd_funding.sol\":2521:2536  tiers.length -1 */\n      tag_200\n      swap2\n      swap1\n      tag_201\n      jump\t// in\n    tag_200:\n        /* \"contracts/crowd_funding.sol\":2515:2537  tiers[tiers.length -1] */\n      dup2\n      sload\n      dup2\n      lt\n      tag_202\n      jumpi\n      tag_203\n      tag_204\n      jump\t// in\n    tag_203:\n    tag_202:\n      swap1\n      0x00\n      mstore\n      keccak256(0x00, 0x20)\n      swap1\n      0x03\n      mul\n      add\n        /* \"contracts/crowd_funding.sol\":2499:2504  tiers */\n      0x05\n        /* \"contracts/crowd_funding.sol\":2505:2511  _index */\n      dup3\n        /* \"contracts/crowd_funding.sol\":2499:2512  tiers[_index] */\n      dup2\n      sload\n      dup2\n      lt\n      tag_206\n      jumpi\n      tag_207\n      tag_204\n      jump\t// in\n    tag_207:\n    tag_206:\n      swap1\n      0x00\n      mstore\n      keccak256(0x00, 0x20)\n      swap1\n      0x03\n      mul\n      add\n        /* \"contracts/crowd_funding.sol\":2499:2537  tiers[_index] = tiers[tiers.length -1] */\n      0x00\n      dup3\n      add\n      dup2\n      0x00\n      add\n      swap1\n      dup2\n      tag_209\n      swap2\n      swap1\n      tag_210\n      jump\t// in\n    tag_209:\n      pop\n      0x01\n      dup3\n      add\n      sload\n      dup2\n      0x01\n      add\n      sstore\n      0x02\n      dup3\n      add\n      sload\n      dup2\n      0x02\n      add\n      sstore\n      swap1\n      pop\n      pop\n        /* \"contracts/crowd_funding.sol\":2547:2552  tiers */\n      0x05\n        /* \"contracts/crowd_funding.sol\":2547:2558  tiers.pop() */\n      dup1\n      sload\n      dup1\n      tag_211\n      jumpi\n      tag_212\n      tag_213\n      jump\t// in\n    tag_212:\n    tag_211:\n      0x01\n      swap1\n      sub\n      dup2\n      dup2\n      swap1\n      0x00\n      mstore\n      keccak256(0x00, 0x20)\n      swap1\n      0x03\n      mul\n      add\n      0x00\n      dup1\n      dup3\n      add\n      0x00\n      tag_215\n      swap2\n      swap1\n      tag_216\n      jump\t// in\n    tag_215:\n      0x01\n      dup3\n      add\n      0x00\n      swap1\n      sstore\n      0x02\n      dup3\n      add\n      0x00\n      swap1\n      sstore\n      pop\n      pop\n      swap1\n      sstore\n        /* \"contracts/crowd_funding.sol\":2372:2565  function removeTier (uint256 _index) public OnlyOwner{... */\n      pop\n      jump\t// out\n        /* \"contracts/crowd_funding.sol\":3383:3534  function hasFundedTier(address _backer, uint256 _tierIndex) public view returns (bool) {... */\n    tag_82:\n        /* \"contracts/crowd_funding.sol\":3464:3468  bool */\n      0x00\n        /* \"contracts/crowd_funding.sol\":3487:3494  backers */\n      0x06\n        /* \"contracts/crowd_funding.sol\":3487:3503  backers[_backer] */\n      0x00\n        /* \"contracts/crowd_funding.sol\":3495:3502  _backer */\n      dup5\n        /* \"contracts/crowd_funding.sol\":3487:3503  backers[_backer] */\n      0xffffffffffffffffffffffffffffffffffffffff\n      and\n      0xffffffffffffffffffffffffffffffffffffffff\n      and\n      dup2\n      mstore\n      0x20\n      add\n      swap1\n      dup2\n      mstore\n      0x20\n      add\n      0x00\n      keccak256\n        /* \"contracts/crowd_funding.sol\":3487:3515  backers[_backer].fundedTiers */\n      0x01\n      add\n        /* \"contracts/crowd_funding.sol\":3487:3527  backers[_backer].fundedTiers[_tierIndex] */\n      0x00\n        /* \"contracts/crowd_funding.sol\":3516:3526  _tierIndex */\n      dup4\n        /* \"contracts/crowd_funding.sol\":3487:3527  backers[_backer].fundedTiers[_tierIndex] */\n      dup2\n      mstore\n      0x20\n      add\n      swap1\n      dup2\n      mstore\n      0x20\n      add\n      0x00\n      keccak256\n      0x00\n      swap1\n      sload\n      swap1\n      0x0100\n      exp\n      swap1\n      div\n      0xff\n      and\n        /* \"contracts/crowd_funding.sol\":3480:3527  return backers[_backer].fundedTiers[_tierIndex] */\n      swap1\n      pop\n        /* \"contracts/crowd_funding.sol\":3383:3534  function hasFundedTier(address _backer, uint256 _tierIndex) public view returns (bool) {... */\n      swap3\n      swap2\n      pop\n      pop\n      jump\t// out\n        /* \"contracts/crowd_funding.sol\":195:215  address public owner */\n    tag_86:\n      0x04\n      0x00\n      swap1\n      sload\n      swap1\n      0x0100\n      exp\n      swap1\n      div\n      0xffffffffffffffffffffffffffffffffffffffff\n      and\n      dup2\n      jump\t// out\n        /* \"contracts/crowd_funding.sol\":2168:2366  function addTier (... */\n    tag_93:\n        /* \"contracts/crowd_funding.sol\":664:669  owner */\n      0x04\n      0x00\n      swap1\n      sload\n      swap1\n      0x0100\n      exp\n      swap1\n      div\n      0xffffffffffffffffffffffffffffffffffffffff\n      and\n        /* \"contracts/crowd_funding.sol\":650:669  msg.sender == owner */\n      0xffffffffffffffffffffffffffffffffffffffff\n      and\n        /* \"contracts/crowd_funding.sol\":650:660  msg.sender */\n      caller\n        /* \"contracts/crowd_funding.sol\":650:669  msg.sender == owner */\n      0xffffffffffffffffffffffffffffffffffffffff\n      and\n      eq\n        /* \"contracts/crowd_funding.sol\":642:713  require(msg.sender == owner,\"Only the owner can withdraw the funds...\") */\n      tag_219\n      jumpi\n      mload(0x40)\n      0x08c379a000000000000000000000000000000000000000000000000000000000\n      dup2\n      mstore\n      0x04\n      add\n      tag_220\n      swap1\n      tag_141\n      jump\t// in\n    tag_220:\n      mload(0x40)\n      dup1\n      swap2\n      sub\n      swap1\n      revert\n    tag_219:\n        /* \"contracts/crowd_funding.sol\":2289:2290  0 */\n      0x00\n        /* \"contracts/crowd_funding.sol\":2279:2286  _amount */\n      dup2\n        /* \"contracts/crowd_funding.sol\":2279:2290  _amount > 0 */\n      gt\n        /* \"contracts/crowd_funding.sol\":2271:2316  require(_amount > 0,\"The balance is zero...\") */\n      tag_222\n      jumpi\n      mload(0x40)\n      0x08c379a000000000000000000000000000000000000000000000000000000000\n      dup2\n      mstore\n      0x04\n      add\n      tag_223\n      swap1\n      tag_224\n      jump\t// in\n    tag_223:\n      mload(0x40)\n      dup1\n      swap2\n      sub\n      swap1\n      revert\n    tag_222:\n        /* \"contracts/crowd_funding.sol\":2326:2331  tiers */\n      0x05\n        /* \"contracts/crowd_funding.sol\":2337:2358  Tier(_name,_amount,0) */\n      mload(0x40)\n      dup1\n      0x60\n      add\n      0x40\n      mstore\n      dup1\n        /* \"contracts/crowd_funding.sol\":2342:2347  _name */\n      dup5\n        /* \"contracts/crowd_funding.sol\":2337:2358  Tier(_name,_amount,0) */\n      dup2\n      mstore\n      0x20\n      add\n        /* \"contracts/crowd_funding.sol\":2348:2355  _amount */\n      dup4\n        /* \"contracts/crowd_funding.sol\":2337:2358  Tier(_name,_amount,0) */\n      dup2\n      mstore\n      0x20\n      add\n        /* \"contracts/crowd_funding.sol\":2356:2357  0 */\n      0x00\n        /* \"contracts/crowd_funding.sol\":2337:2358  Tier(_name,_amount,0) */\n      dup2\n      mstore\n      pop\n        /* \"contracts/crowd_funding.sol\":2326:2359  tiers.push(Tier(_name,_amount,0)) */\n      swap1\n      dup1\n      0x01\n      dup2\n      sload\n      add\n      dup1\n      dup3\n      sstore\n      dup1\n      swap2\n      pop\n      pop\n      0x01\n      swap1\n      sub\n      swap1\n      0x00\n      mstore\n      keccak256(0x00, 0x20)\n      swap1\n      0x03\n      mul\n      add\n      0x00\n      swap1\n      swap2\n      swap1\n      swap2\n      swap1\n      swap2\n      pop\n      0x00\n      dup3\n      add\n      mload\n      dup2\n      0x00\n      add\n      swap1\n      dup2\n      tag_226\n      swap2\n      swap1\n      tag_227\n      jump\t// in\n    tag_226:\n      pop\n      0x20\n      dup3\n      add\n      mload\n      dup2\n      0x01\n      add\n      sstore\n      0x40\n      dup3\n      add\n      mload\n      dup2\n      0x02\n      add\n      sstore\n      pop\n      pop\n        /* \"contracts/crowd_funding.sol\":2168:2366  function addTier (... */\n      pop\n      pop\n      jump\t// out\n        /* \"contracts/crowd_funding.sol\":562:603  mapping(address => Backer) public backers */\n    tag_98:\n      mstore(0x20, 0x06)\n      dup1\n      0x00\n      mstore\n      keccak256(0x00, 0x40)\n      0x00\n      swap2\n      pop\n      swap1\n      pop\n      dup1\n      0x00\n      add\n      sload\n      swap1\n      pop\n      dup2\n      jump\t// out\n        /* \"contracts/crowd_funding.sol\":299:325  CampaignState public state */\n    tag_102:\n      0x04\n      0x15\n      swap1\n      sload\n      swap1\n      0x0100\n      exp\n      swap1\n      div\n      0xff\n      and\n      dup2\n      jump\t// out\n        /* \"contracts/crowd_funding.sol\":3631:3704  function togglePause() public OnlyOwner {... */\n    tag_106:\n        /* \"contracts/crowd_funding.sol\":664:669  owner */\n      0x04\n      0x00\n      swap1\n      sload\n      swap1\n      0x0100\n      exp\n      swap1\n      div\n      0xffffffffffffffffffffffffffffffffffffffff\n      and\n        /* \"contracts/crowd_funding.sol\":650:669  msg.sender == owner */\n      0xffffffffffffffffffffffffffffffffffffffff\n      and\n        /* \"contracts/crowd_funding.sol\":650:660  msg.sender */\n      caller\n        /* \"contracts/crowd_funding.sol\":650:669  msg.sender == owner */\n      0xffffffffffffffffffffffffffffffffffffffff\n      and\n      eq\n        /* \"contracts/crowd_funding.sol\":642:713  require(msg.sender == owner,\"Only the owner can withdraw the funds...\") */\n      tag_229\n      jumpi\n      mload(0x40)\n      0x08c379a000000000000000000000000000000000000000000000000000000000\n      dup2\n      mstore\n      0x04\n      add\n      tag_230\n      swap1\n      tag_141\n      jump\t// in\n    tag_230:\n      mload(0x40)\n      dup1\n      swap2\n      sub\n      swap1\n      revert\n    tag_229:\n        /* \"contracts/crowd_funding.sol\":3691:3697  paused */\n      0x04\n      0x14\n      swap1\n      sload\n      swap1\n      0x0100\n      exp\n      swap1\n      div\n      0xff\n      and\n        /* \"contracts/crowd_funding.sol\":3690:3697  !paused */\n      iszero\n        /* \"contracts/crowd_funding.sol\":3681:3687  paused */\n      0x04\n      0x14\n        /* \"contracts/crowd_funding.sol\":3681:3697  paused = !paused */\n      0x0100\n      exp\n      dup2\n      sload\n      dup2\n      0xff\n      mul\n      not\n      and\n      swap1\n      dup4\n      iszero\n      iszero\n      mul\n      or\n      swap1\n      sstore\n      pop\n        /* \"contracts/crowd_funding.sol\":3631:3704  function togglePause() public OnlyOwner {... */\n      jump\t// out\n        /* \"contracts/crowd_funding.sol\":1745:2162  function fund (uint256 _tierIndex) public payable campaignOpen notPaused{... */\n    tag_109:\n        /* \"contracts/crowd_funding.sol\":796:816  CampaignState.Active */\n      0x02\n        /* \"contracts/crowd_funding.sol\":787:816  state == CampaignState.Active */\n      dup1\n      dup2\n      gt\n      iszero\n      tag_233\n      jumpi\n      tag_234\n      tag_131\n      jump\t// in\n    tag_234:\n    tag_233:\n        /* \"contracts/crowd_funding.sol\":787:792  state */\n      0x04\n      0x15\n      swap1\n      sload\n      swap1\n      0x0100\n      exp\n      swap1\n      div\n      0xff\n      and\n        /* \"contracts/crowd_funding.sol\":787:816  state == CampaignState.Active */\n      0x02\n      dup2\n      gt\n      iszero\n      tag_235\n      jumpi\n      tag_236\n      tag_131\n      jump\t// in\n    tag_236:\n    tag_235:\n      eq\n        /* \"contracts/crowd_funding.sol\":779:845  require(state == CampaignState.Active,\"Campaign is not active...\") */\n      tag_237\n      jumpi\n      mload(0x40)\n      0x08c379a000000000000000000000000000000000000000000000000000000000\n      dup2\n      mstore\n      0x04\n      add\n      tag_238\n      swap1\n      tag_149\n      jump\t// in\n    tag_238:\n      mload(0x40)\n      dup1\n      swap2\n      sub\n      swap1\n      revert\n    tag_237:\n        /* \"contracts/crowd_funding.sol\":909:915  paused */\n      0x04\n      0x14\n      swap1\n      sload\n      swap1\n      0x0100\n      exp\n      swap1\n      div\n      0xff\n      and\n        /* \"contracts/crowd_funding.sol\":908:915  !paused */\n      iszero\n        /* \"contracts/crowd_funding.sol\":900:939  require(!paused, \"Contract is paused.\") */\n      tag_240\n      jumpi\n      mload(0x40)\n      0x08c379a000000000000000000000000000000000000000000000000000000000\n      dup2\n      mstore\n      0x04\n      add\n      tag_241\n      swap1\n      tag_242\n      jump\t// in\n    tag_241:\n      mload(0x40)\n      dup1\n      swap2\n      sub\n      swap1\n      revert\n    tag_240:\n        /* \"contracts/crowd_funding.sol\":1848:1853  tiers */\n      0x05\n        /* \"contracts/crowd_funding.sol\":1848:1860  tiers.length */\n      dup1\n      sload\n      swap1\n      pop\n        /* \"contracts/crowd_funding.sol\":1835:1845  _tierIndex */\n      dup2\n        /* \"contracts/crowd_funding.sol\":1835:1860  _tierIndex < tiers.length */\n      lt\n        /* \"contracts/crowd_funding.sol\":1827:1879  require(_tierIndex < tiers.length,\"Invalid tier...\") */\n      tag_244\n      jumpi\n      mload(0x40)\n      0x08c379a000000000000000000000000000000000000000000000000000000000\n      dup2\n      mstore\n      0x04\n      add\n      tag_245\n      swap1\n      tag_246\n      jump\t// in\n    tag_245:\n      mload(0x40)\n      dup1\n      swap2\n      sub\n      swap1\n      revert\n    tag_244:\n        /* \"contracts/crowd_funding.sol\":1910:1915  tiers */\n      0x05\n        /* \"contracts/crowd_funding.sol\":1916:1926  _tierIndex */\n      dup2\n        /* \"contracts/crowd_funding.sol\":1910:1927  tiers[_tierIndex] */\n      dup2\n      sload\n      dup2\n      lt\n      tag_247\n      jumpi\n      tag_248\n      tag_204\n      jump\t// in\n    tag_248:\n    tag_247:\n      swap1\n      0x00\n      mstore\n      keccak256(0x00, 0x20)\n      swap1\n      0x03\n      mul\n      add\n        /* \"contracts/crowd_funding.sol\":1910:1934  tiers[_tierIndex].amount */\n      0x01\n      add\n      sload\n        /* \"contracts/crowd_funding.sol\":1897:1906  msg.value */\n      callvalue\n        /* \"contracts/crowd_funding.sol\":1897:1934  msg.value == tiers[_tierIndex].amount */\n      eq\n        /* \"contracts/crowd_funding.sol\":1889:1957  require(msg.value == tiers[_tierIndex].amount,\"Incorrect amount...\") */\n      tag_250\n      jumpi\n      mload(0x40)\n      0x08c379a000000000000000000000000000000000000000000000000000000000\n      dup2\n      mstore\n      0x04\n      add\n      tag_251\n      swap1\n      tag_252\n      jump\t// in\n    tag_251:\n      mload(0x40)\n      dup1\n      swap2\n      sub\n      swap1\n      revert\n    tag_250:\n        /* \"contracts/crowd_funding.sol\":1968:1973  tiers */\n      0x05\n        /* \"contracts/crowd_funding.sol\":1974:1984  _tierIndex */\n      dup2\n        /* \"contracts/crowd_funding.sol\":1968:1985  tiers[_tierIndex] */\n      dup2\n      sload\n      dup2\n      lt\n      tag_253\n      jumpi\n      tag_254\n      tag_204\n      jump\t// in\n    tag_254:\n    tag_253:\n      swap1\n      0x00\n      mstore\n      keccak256(0x00, 0x20)\n      swap1\n      0x03\n      mul\n      add\n        /* \"contracts/crowd_funding.sol\":1968:1993  tiers[_tierIndex].backers */\n      0x02\n      add\n      0x00\n        /* \"contracts/crowd_funding.sol\":1968:1995  tiers[_tierIndex].backers++ */\n      dup2\n      sload\n      dup1\n      swap3\n      swap2\n      swap1\n      tag_256\n      swap1\n      tag_257\n      jump\t// in\n    tag_256:\n      swap2\n      swap1\n      pop\n      sstore\n      pop\n        /* \"contracts/crowd_funding.sol\":2046:2055  msg.value */\n      callvalue\n        /* \"contracts/crowd_funding.sol\":2005:2012  backers */\n      0x06\n        /* \"contracts/crowd_funding.sol\":2005:2024  backers[msg.sender] */\n      0x00\n        /* \"contracts/crowd_funding.sol\":2013:2023  msg.sender */\n      caller\n        /* \"contracts/crowd_funding.sol\":2005:2024  backers[msg.sender] */\n      0xffffffffffffffffffffffffffffffffffffffff\n      and\n      0xffffffffffffffffffffffffffffffffffffffff\n      and\n      dup2\n      mstore\n      0x20\n      add\n      swap1\n      dup2\n      mstore\n      0x20\n      add\n      0x00\n      keccak256\n        /* \"contracts/crowd_funding.sol\":2005:2042  backers[msg.sender].totalContribution */\n      0x00\n      add\n      0x00\n        /* \"contracts/crowd_funding.sol\":2005:2055  backers[msg.sender].totalContribution += msg.value */\n      dup3\n      dup3\n      sload\n      tag_258\n      swap2\n      swap1\n      tag_154\n      jump\t// in\n    tag_258:\n      swap3\n      pop\n      pop\n      dup2\n      swap1\n      sstore\n      pop\n        /* \"contracts/crowd_funding.sol\":2111:2115  true */\n      0x01\n        /* \"contracts/crowd_funding.sol\":2065:2072  backers */\n      0x06\n        /* \"contracts/crowd_funding.sol\":2065:2084  backers[msg.sender] */\n      0x00\n        /* \"contracts/crowd_funding.sol\":2073:2083  msg.sender */\n      caller\n        /* \"contracts/crowd_funding.sol\":2065:2084  backers[msg.sender] */\n      0xffffffffffffffffffffffffffffffffffffffff\n      and\n      0xffffffffffffffffffffffffffffffffffffffff\n      and\n      dup2\n      mstore\n      0x20\n      add\n      swap1\n      dup2\n      mstore\n      0x20\n      add\n      0x00\n      keccak256\n        /* \"contracts/crowd_funding.sol\":2065:2096  backers[msg.sender].fundedTiers */\n      0x01\n      add\n        /* \"contracts/crowd_funding.sol\":2065:2108  backers[msg.sender].fundedTiers[_tierIndex] */\n      0x00\n        /* \"contracts/crowd_funding.sol\":2097:2107  _tierIndex */\n      dup4\n        /* \"contracts/crowd_funding.sol\":2065:2108  backers[msg.sender].fundedTiers[_tierIndex] */\n      dup2\n      mstore\n      0x20\n      add\n      swap1\n      dup2\n      mstore\n      0x20\n      add\n      0x00\n      keccak256\n      0x00\n        /* \"contracts/crowd_funding.sol\":2065:2115  backers[msg.sender].fundedTiers[_tierIndex] = true */\n      0x0100\n      exp\n      dup2\n      sload\n      dup2\n      0xff\n      mul\n      not\n      and\n      swap1\n      dup4\n      iszero\n      iszero\n      mul\n      or\n      swap1\n      sstore\n      pop\n        /* \"contracts/crowd_funding.sol\":2126:2155  checkAndUpdateCampaignState() */\n      tag_259\n        /* \"contracts/crowd_funding.sol\":2126:2153  checkAndUpdateCampaignState */\n      tag_160\n        /* \"contracts/crowd_funding.sol\":2126:2155  checkAndUpdateCampaignState() */\n      jump\t// in\n    tag_259:\n        /* \"contracts/crowd_funding.sol\":1745:2162  function fund (uint256 _tierIndex) public payable campaignOpen notPaused{... */\n      pop\n      jump\t// out\n        /* \"contracts/crowd_funding.sol\":3540:3625  function getTiers() public view returns (Tier[] memory) {... */\n    tag_112:\n        /* \"contracts/crowd_funding.sol\":3581:3594  Tier[] memory */\n      0x60\n        /* \"contracts/crowd_funding.sol\":3613:3618  tiers */\n      0x05\n        /* \"contracts/crowd_funding.sol\":3606:3618  return tiers */\n      dup1\n      sload\n      dup1\n      0x20\n      mul\n      0x20\n      add\n      mload(0x40)\n      swap1\n      dup2\n      add\n      0x40\n      mstore\n      dup1\n      swap3\n      swap2\n      swap1\n      dup2\n      dup2\n      mstore\n      0x20\n      add\n      0x00\n      swap1\n    tag_261:\n      dup3\n      dup3\n      lt\n      iszero\n      tag_262\n      jumpi\n      dup4\n      dup3\n      swap1\n      0x00\n      mstore\n      keccak256(0x00, 0x20)\n      swap1\n      0x03\n      mul\n      add\n      mload(0x40)\n      dup1\n      0x60\n      add\n      0x40\n      mstore\n      swap1\n      dup2\n      0x00\n      dup3\n      add\n      dup1\n      sload\n      tag_264\n      swap1\n      tag_118\n      jump\t// in\n    tag_264:\n      dup1\n      0x1f\n      add\n      0x20\n      dup1\n      swap2\n      div\n      mul\n      0x20\n      add\n      mload(0x40)\n      swap1\n      dup2\n      add\n      0x40\n      mstore\n      dup1\n      swap3\n      swap2\n      swap1\n      dup2\n      dup2\n      mstore\n      0x20\n      add\n      dup3\n      dup1\n      sload\n      tag_265\n      swap1\n      tag_118\n      jump\t// in\n    tag_265:\n      dup1\n      iszero\n      tag_266\n      jumpi\n      dup1\n      0x1f\n      lt\n      tag_267\n      jumpi\n      0x0100\n      dup1\n      dup4\n      sload\n      div\n      mul\n      dup4\n      mstore\n      swap2\n      0x20\n      add\n      swap2\n      jump(tag_266)\n    tag_267:\n      dup3\n      add\n      swap2\n      swap1\n      0x00\n      mstore\n      keccak256(0x00, 0x20)\n      swap1\n    tag_268:\n      dup2\n      sload\n      dup2\n      mstore\n      swap1\n      0x01\n      add\n      swap1\n      0x20\n      add\n      dup1\n      dup4\n      gt\n      tag_268\n      jumpi\n      dup3\n      swap1\n      sub\n      0x1f\n      and\n      dup3\n      add\n      swap2\n    tag_266:\n      pop\n      pop\n      pop\n      pop\n      pop\n      dup2\n      mstore\n      0x20\n      add\n      0x01\n      dup3\n      add\n      sload\n      dup2\n      mstore\n      0x20\n      add\n      0x02\n      dup3\n      add\n      sload\n      dup2\n      mstore\n      pop\n      pop\n      dup2\n      mstore\n      0x20\n      add\n      swap1\n      0x01\n      add\n      swap1\n      jump(tag_261)\n    tag_262:\n      pop\n      pop\n      pop\n      pop\n      swap1\n      pop\n        /* \"contracts/crowd_funding.sol\":3540:3625  function getTiers() public view returns (Tier[] memory) {... */\n      swap1\n      jump\t// out\n        /* \"contracts/crowd_funding.sol\":1327:1739  function checkAndUpdateCampaignState() internal {... */\n    tag_160:\n        /* \"contracts/crowd_funding.sol\":1397:1417  CampaignState.Active */\n      0x02\n        /* \"contracts/crowd_funding.sol\":1388:1417  state == CampaignState.Active */\n      dup1\n      dup2\n      gt\n      iszero\n      tag_270\n      jumpi\n      tag_271\n      tag_131\n      jump\t// in\n    tag_271:\n    tag_270:\n        /* \"contracts/crowd_funding.sol\":1388:1393  state */\n      0x04\n      0x15\n      swap1\n      sload\n      swap1\n      0x0100\n      exp\n      swap1\n      div\n      0xff\n      and\n        /* \"contracts/crowd_funding.sol\":1388:1417  state == CampaignState.Active */\n      0x02\n      dup2\n      gt\n      iszero\n      tag_272\n      jumpi\n      tag_273\n      tag_131\n      jump\t// in\n    tag_273:\n    tag_272:\n      sub\n        /* \"contracts/crowd_funding.sol\":1385:1733  if(state == CampaignState.Active) {... */\n      tag_274\n      jumpi\n        /* \"contracts/crowd_funding.sol\":1455:1463  deadline */\n      sload(0x03)\n        /* \"contracts/crowd_funding.sol\":1436:1451  block.timestamp */\n      timestamp\n        /* \"contracts/crowd_funding.sol\":1436:1463  block.timestamp >= deadline */\n      lt\n        /* \"contracts/crowd_funding.sol\":1433:1723  if(block.timestamp >= deadline) {... */\n      tag_275\n      jumpi\n        /* \"contracts/crowd_funding.sol\":1516:1520  goal */\n      sload(0x02)\n        /* \"contracts/crowd_funding.sol\":1491:1512  address(this).balance */\n      selfbalance\n        /* \"contracts/crowd_funding.sol\":1491:1520  address(this).balance >= goal */\n      lt\n      iszero\n        /* \"contracts/crowd_funding.sol\":1491:1570  address(this).balance >= goal ? CampaignState.Successful : CampaignState.Failed */\n      tag_276\n      jumpi\n        /* \"contracts/crowd_funding.sol\":1550:1570  CampaignState.Failed */\n      0x01\n        /* \"contracts/crowd_funding.sol\":1491:1570  address(this).balance >= goal ? CampaignState.Successful : CampaignState.Failed */\n      jump(tag_277)\n    tag_276:\n        /* \"contracts/crowd_funding.sol\":1523:1547  CampaignState.Successful */\n      0x00\n        /* \"contracts/crowd_funding.sol\":1491:1570  address(this).balance >= goal ? CampaignState.Successful : CampaignState.Failed */\n    tag_277:\n        /* \"contracts/crowd_funding.sol\":1483:1488  state */\n      0x04\n      0x15\n        /* \"contracts/crowd_funding.sol\":1483:1570  state = address(this).balance >= goal ? CampaignState.Successful : CampaignState.Failed */\n      0x0100\n      exp\n      dup2\n      sload\n      dup2\n      0xff\n      mul\n      not\n      and\n      swap1\n      dup4\n      0x02\n      dup2\n      gt\n      iszero\n      tag_278\n      jumpi\n      tag_279\n      tag_131\n      jump\t// in\n    tag_279:\n    tag_278:\n      mul\n      or\n      swap1\n      sstore\n      pop\n        /* \"contracts/crowd_funding.sol\":1433:1723  if(block.timestamp >= deadline) {... */\n      jump(tag_280)\n    tag_275:\n        /* \"contracts/crowd_funding.sol\":1654:1658  goal */\n      sload(0x02)\n        /* \"contracts/crowd_funding.sol\":1629:1650  address(this).balance */\n      selfbalance\n        /* \"contracts/crowd_funding.sol\":1629:1658  address(this).balance >= goal */\n      lt\n      iszero\n        /* \"contracts/crowd_funding.sol\":1629:1708  address(this).balance >= goal ? CampaignState.Successful : CampaignState.Active */\n      tag_281\n      jumpi\n        /* \"contracts/crowd_funding.sol\":1688:1708  CampaignState.Active */\n      0x02\n        /* \"contracts/crowd_funding.sol\":1629:1708  address(this).balance >= goal ? CampaignState.Successful : CampaignState.Active */\n      jump(tag_282)\n    tag_281:\n        /* \"contracts/crowd_funding.sol\":1661:1685  CampaignState.Successful */\n      0x00\n        /* \"contracts/crowd_funding.sol\":1629:1708  address(this).balance >= goal ? CampaignState.Successful : CampaignState.Active */\n    tag_282:\n        /* \"contracts/crowd_funding.sol\":1621:1626  state */\n      0x04\n      0x15\n        /* \"contracts/crowd_funding.sol\":1621:1708  state = address(this).balance >= goal ? CampaignState.Successful : CampaignState.Active */\n      0x0100\n      exp\n      dup2\n      sload\n      dup2\n      0xff\n      mul\n      not\n      and\n      swap1\n      dup4\n      0x02\n      dup2\n      gt\n      iszero\n      tag_283\n      jumpi\n      tag_284\n      tag_131\n      jump\t// in\n    tag_284:\n    tag_283:\n      mul\n      or\n      swap1\n      sstore\n      pop\n        /* \"contracts/crowd_funding.sol\":1433:1723  if(block.timestamp >= deadline) {... */\n    tag_280:\n        /* \"contracts/crowd_funding.sol\":1385:1733  if(state == CampaignState.Active) {... */\n    tag_274:\n        /* \"contracts/crowd_funding.sol\":1327:1739  function checkAndUpdateCampaignState() internal {... */\n      jump\t// out\n    tag_216:\n      pop\n      dup1\n      sload\n      tag_285\n      swap1\n      tag_118\n      jump\t// in\n    tag_285:\n      0x00\n      dup3\n      sstore\n      dup1\n      0x1f\n      lt\n      tag_287\n      jumpi\n      pop\n      jump(tag_286)\n    tag_287:\n      0x1f\n      add\n      0x20\n      swap1\n      div\n      swap1\n      0x00\n      mstore\n      keccak256(0x00, 0x20)\n      swap1\n      dup2\n      add\n      swap1\n      tag_288\n      swap2\n      swap1\n      tag_289\n      jump\t// in\n    tag_288:\n    tag_286:\n      pop\n      jump\t// out\n    tag_289:\n    tag_290:\n      dup1\n      dup3\n      gt\n      iszero\n      tag_291\n      jumpi\n      0x00\n      dup2\n      0x00\n      swap1\n      sstore\n      pop\n      0x01\n      add\n      jump(tag_290)\n    tag_291:\n      pop\n      swap1\n      jump\t// out\n        /* \"#utility.yul\":7:82   */\n    tag_292:\n        /* \"#utility.yul\":40:46   */\n      0x00\n        /* \"#utility.yul\":73:75   */\n      0x40\n        /* \"#utility.yul\":67:76   */\n      mload\n        /* \"#utility.yul\":57:76   */\n      swap1\n      pop\n        /* \"#utility.yul\":7:82   */\n      swap1\n      jump\t// out\n        /* \"#utility.yul\":88:205   */\n    tag_293:\n        /* \"#utility.yul\":197:198   */\n      0x00\n        /* \"#utility.yul\":194:195   */\n      dup1\n        /* \"#utility.yul\":187:199   */\n      revert\n        /* \"#utility.yul\":211:328   */\n    tag_294:\n        /* \"#utility.yul\":320:321   */\n      0x00\n        /* \"#utility.yul\":317:318   */\n      dup1\n        /* \"#utility.yul\":310:322   */\n      revert\n        /* \"#utility.yul\":334:411   */\n    tag_295:\n        /* \"#utility.yul\":371:378   */\n      0x00\n        /* \"#utility.yul\":400:405   */\n      dup2\n        /* \"#utility.yul\":389:405   */\n      swap1\n      pop\n        /* \"#utility.yul\":334:411   */\n      swap2\n      swap1\n      pop\n      jump\t// out\n        /* \"#utility.yul\":417:539   */\n    tag_296:\n        /* \"#utility.yul\":490:514   */\n      tag_380\n        /* \"#utility.yul\":508:513   */\n      dup2\n        /* \"#utility.yul\":490:514   */\n      tag_295\n      jump\t// in\n    tag_380:\n        /* \"#utility.yul\":483:488   */\n      dup2\n        /* \"#utility.yul\":480:515   */\n      eq\n        /* \"#utility.yul\":470:533   */\n      tag_381\n      jumpi\n        /* \"#utility.yul\":529:530   */\n      0x00\n        /* \"#utility.yul\":526:527   */\n      dup1\n        /* \"#utility.yul\":519:531   */\n      revert\n        /* \"#utility.yul\":470:533   */\n    tag_381:\n        /* \"#utility.yul\":417:539   */\n      pop\n      jump\t// out\n        /* \"#utility.yul\":545:684   */\n    tag_297:\n        /* \"#utility.yul\":591:596   */\n      0x00\n        /* \"#utility.yul\":629:635   */\n      dup2\n        /* \"#utility.yul\":616:636   */\n      calldataload\n        /* \"#utility.yul\":607:636   */\n      swap1\n      pop\n        /* \"#utility.yul\":645:678   */\n      tag_383\n        /* \"#utility.yul\":672:677   */\n      dup2\n        /* \"#utility.yul\":645:678   */\n      tag_296\n      jump\t// in\n    tag_383:\n        /* \"#utility.yul\":545:684   */\n      swap3\n      swap2\n      pop\n      pop\n      jump\t// out\n        /* \"#utility.yul\":690:1019   */\n    tag_28:\n        /* \"#utility.yul\":749:755   */\n      0x00\n        /* \"#utility.yul\":798:800   */\n      0x20\n        /* \"#utility.yul\":786:795   */\n      dup3\n        /* \"#utility.yul\":777:784   */\n      dup5\n        /* \"#utility.yul\":773:796   */\n      sub\n        /* \"#utility.yul\":769:801   */\n      slt\n        /* \"#utility.yul\":766:885   */\n      iszero\n      tag_385\n      jumpi\n        /* \"#utility.yul\":804:883   */\n      tag_386\n      tag_293\n      jump\t// in\n    tag_386:\n        /* \"#utility.yul\":766:885   */\n    tag_385:\n        /* \"#utility.yul\":924:925   */\n      0x00\n        /* \"#utility.yul\":949:1002   */\n      tag_387\n        /* \"#utility.yul\":994:1001   */\n      dup5\n        /* \"#utility.yul\":985:991   */\n      dup3\n        /* \"#utility.yul\":974:983   */\n      dup6\n        /* \"#utility.yul\":970:992   */\n      add\n        /* \"#utility.yul\":949:1002   */\n      tag_297\n      jump\t// in\n    tag_387:\n        /* \"#utility.yul\":939:1002   */\n      swap2\n      pop\n        /* \"#utility.yul\":895:1012   */\n      pop\n        /* \"#utility.yul\":690:1019   */\n      swap3\n      swap2\n      pop\n      pop\n      jump\t// out\n        /* \"#utility.yul\":1025:1124   */\n    tag_298:\n        /* \"#utility.yul\":1077:1083   */\n      0x00\n        /* \"#utility.yul\":1111:1116   */\n      dup2\n        /* \"#utility.yul\":1105:1117   */\n      mload\n        /* \"#utility.yul\":1095:1117   */\n      swap1\n      pop\n        /* \"#utility.yul\":1025:1124   */\n      swap2\n      swap1\n      pop\n      jump\t// out\n        /* \"#utility.yul\":1130:1299   */\n    tag_299:\n        /* \"#utility.yul\":1214:1225   */\n      0x00\n        /* \"#utility.yul\":1248:1254   */\n      dup3\n        /* \"#utility.yul\":1243:1246   */\n      dup3\n        /* \"#utility.yul\":1236:1255   */\n      mstore\n        /* \"#utility.yul\":1288:1292   */\n      0x20\n        /* \"#utility.yul\":1283:1286   */\n      dup3\n        /* \"#utility.yul\":1279:1293   */\n      add\n        /* \"#utility.yul\":1264:1293   */\n      swap1\n      pop\n        /* \"#utility.yul\":1130:1299   */\n      swap3\n      swap2\n      pop\n      pop\n      jump\t// out\n        /* \"#utility.yul\":1305:1444   */\n    tag_300:\n        /* \"#utility.yul\":1394:1400   */\n      dup3\n        /* \"#utility.yul\":1389:1392   */\n      dup2\n        /* \"#utility.yul\":1384:1387   */\n      dup4\n        /* \"#utility.yul\":1378:1401   */\n      mcopy\n        /* \"#utility.yul\":1435:1436   */\n      0x00\n        /* \"#utility.yul\":1426:1432   */\n      dup4\n        /* \"#utility.yul\":1421:1424   */\n      dup4\n        /* \"#utility.yul\":1417:1433   */\n      add\n        /* \"#utility.yul\":1410:1437   */\n      mstore\n        /* \"#utility.yul\":1305:1444   */\n      pop\n      pop\n      pop\n      jump\t// out\n        /* \"#utility.yul\":1450:1552   */\n    tag_301:\n        /* \"#utility.yul\":1491:1497   */\n      0x00\n        /* \"#utility.yul\":1542:1544   */\n      0x1f\n        /* \"#utility.yul\":1538:1545   */\n      not\n        /* \"#utility.yul\":1533:1535   */\n      0x1f\n        /* \"#utility.yul\":1526:1531   */\n      dup4\n        /* \"#utility.yul\":1522:1536   */\n      add\n        /* \"#utility.yul\":1518:1546   */\n      and\n        /* \"#utility.yul\":1508:1546   */\n      swap1\n      pop\n        /* \"#utility.yul\":1450:1552   */\n      swap2\n      swap1\n      pop\n      jump\t// out\n        /* \"#utility.yul\":1558:1935   */\n    tag_302:\n        /* \"#utility.yul\":1646:1649   */\n      0x00\n        /* \"#utility.yul\":1674:1713   */\n      tag_393\n        /* \"#utility.yul\":1707:1712   */\n      dup3\n        /* \"#utility.yul\":1674:1713   */\n      tag_298\n      jump\t// in\n    tag_393:\n        /* \"#utility.yul\":1729:1800   */\n      tag_394\n        /* \"#utility.yul\":1793:1799   */\n      dup2\n        /* \"#utility.yul\":1788:1791   */\n      dup6\n        /* \"#utility.yul\":1729:1800   */\n      tag_299\n      jump\t// in\n    tag_394:\n        /* \"#utility.yul\":1722:1800   */\n      swap4\n      pop\n        /* \"#utility.yul\":1809:1874   */\n      tag_395\n        /* \"#utility.yul\":1867:1873   */\n      dup2\n        /* \"#utility.yul\":1862:1865   */\n      dup6\n        /* \"#utility.yul\":1855:1859   */\n      0x20\n        /* \"#utility.yul\":1848:1853   */\n      dup7\n        /* \"#utility.yul\":1844:1860   */\n      add\n        /* \"#utility.yul\":1809:1874   */\n      tag_300\n      jump\t// in\n    tag_395:\n        /* \"#utility.yul\":1899:1928   */\n      tag_396\n        /* \"#utility.yul\":1921:1927   */\n      dup2\n        /* \"#utility.yul\":1899:1928   */\n      tag_301\n      jump\t// in\n    tag_396:\n        /* \"#utility.yul\":1894:1897   */\n      dup5\n        /* \"#utility.yul\":1890:1929   */\n      add\n        /* \"#utility.yul\":1883:1929   */\n      swap2\n      pop\n        /* \"#utility.yul\":1650:1935   */\n      pop\n        /* \"#utility.yul\":1558:1935   */\n      swap3\n      swap2\n      pop\n      pop\n      jump\t// out\n        /* \"#utility.yul\":1941:2059   */\n    tag_303:\n        /* \"#utility.yul\":2028:2052   */\n      tag_398\n        /* \"#utility.yul\":2046:2051   */\n      dup2\n        /* \"#utility.yul\":2028:2052   */\n      tag_295\n      jump\t// in\n    tag_398:\n        /* \"#utility.yul\":2023:2026   */\n      dup3\n        /* \"#utility.yul\":2016:2053   */\n      mstore\n        /* \"#utility.yul\":1941:2059   */\n      pop\n      pop\n      jump\t// out\n        /* \"#utility.yul\":2065:2598   */\n    tag_31:\n        /* \"#utility.yul\":2234:2238   */\n      0x00\n        /* \"#utility.yul\":2272:2274   */\n      0x60\n        /* \"#utility.yul\":2261:2270   */\n      dup3\n        /* \"#utility.yul\":2257:2275   */\n      add\n        /* \"#utility.yul\":2249:2275   */\n      swap1\n      pop\n        /* \"#utility.yul\":2321:2330   */\n      dup2\n        /* \"#utility.yul\":2315:2319   */\n      dup2\n        /* \"#utility.yul\":2311:2331   */\n      sub\n        /* \"#utility.yul\":2307:2308   */\n      0x00\n        /* \"#utility.yul\":2296:2305   */\n      dup4\n        /* \"#utility.yul\":2292:2309   */\n      add\n        /* \"#utility.yul\":2285:2332   */\n      mstore\n        /* \"#utility.yul\":2349:2427   */\n      tag_400\n        /* \"#utility.yul\":2422:2426   */\n      dup2\n        /* \"#utility.yul\":2413:2419   */\n      dup7\n        /* \"#utility.yul\":2349:2427   */\n      tag_302\n      jump\t// in\n    tag_400:\n        /* \"#utility.yul\":2341:2427   */\n      swap1\n      pop\n        /* \"#utility.yul\":2437:2509   */\n      tag_401\n        /* \"#utility.yul\":2505:2507   */\n      0x20\n        /* \"#utility.yul\":2494:2503   */\n      dup4\n        /* \"#utility.yul\":2490:2508   */\n      add\n        /* \"#utility.yul\":2481:2487   */\n      dup6\n        /* \"#utility.yul\":2437:2509   */\n      tag_303\n      jump\t// in\n    tag_401:\n        /* \"#utility.yul\":2519:2591   */\n      tag_402\n        /* \"#utility.yul\":2587:2589   */\n      0x40\n        /* \"#utility.yul\":2576:2585   */\n      dup4\n        /* \"#utility.yul\":2572:2590   */\n      add\n        /* \"#utility.yul\":2563:2569   */\n      dup5\n        /* \"#utility.yul\":2519:2591   */\n      tag_303\n      jump\t// in\n    tag_402:\n        /* \"#utility.yul\":2065:2598   */\n      swap5\n      swap4\n      pop\n      pop\n      pop\n      pop\n      jump\t// out\n        /* \"#utility.yul\":2604:2917   */\n    tag_36:\n        /* \"#utility.yul\":2717:2721   */\n      0x00\n        /* \"#utility.yul\":2755:2757   */\n      0x20\n        /* \"#utility.yul\":2744:2753   */\n      dup3\n        /* \"#utility.yul\":2740:2758   */\n      add\n        /* \"#utility.yul\":2732:2758   */\n      swap1\n      pop\n        /* \"#utility.yul\":2804:2813   */\n      dup2\n        /* \"#utility.yul\":2798:2802   */\n      dup2\n        /* \"#utility.yul\":2794:2814   */\n      sub\n        /* \"#utility.yul\":2790:2791   */\n      0x00\n        /* \"#utility.yul\":2779:2788   */\n      dup4\n        /* \"#utility.yul\":2775:2792   */\n      add\n        /* \"#utility.yul\":2768:2815   */\n      mstore\n        /* \"#utility.yul\":2832:2910   */\n      tag_404\n        /* \"#utility.yul\":2905:2909   */\n      dup2\n        /* \"#utility.yul\":2896:2902   */\n      dup5\n        /* \"#utility.yul\":2832:2910   */\n      tag_302\n      jump\t// in\n    tag_404:\n        /* \"#utility.yul\":2824:2910   */\n      swap1\n      pop\n        /* \"#utility.yul\":2604:2917   */\n      swap3\n      swap2\n      pop\n      pop\n      jump\t// out\n        /* \"#utility.yul\":2923:3103   */\n    tag_131:\n        /* \"#utility.yul\":2971:3048   */\n      0x4e487b7100000000000000000000000000000000000000000000000000000000\n        /* \"#utility.yul\":2968:2969   */\n      0x00\n        /* \"#utility.yul\":2961:3049   */\n      mstore\n        /* \"#utility.yul\":3068:3072   */\n      0x21\n        /* \"#utility.yul\":3065:3066   */\n      0x04\n        /* \"#utility.yul\":3058:3073   */\n      mstore\n        /* \"#utility.yul\":3092:3096   */\n      0x24\n        /* \"#utility.yul\":3089:3090   */\n      0x00\n        /* \"#utility.yul\":3082:3097   */\n      revert\n        /* \"#utility.yul\":3109:3230   */\n    tag_304:\n        /* \"#utility.yul\":3198:3199   */\n      0x03\n        /* \"#utility.yul\":3191:3196   */\n      dup2\n        /* \"#utility.yul\":3188:3200   */\n      lt\n        /* \"#utility.yul\":3178:3224   */\n      tag_407\n      jumpi\n        /* \"#utility.yul\":3204:3222   */\n      tag_408\n      tag_131\n      jump\t// in\n    tag_408:\n        /* \"#utility.yul\":3178:3224   */\n    tag_407:\n        /* \"#utility.yul\":3109:3230   */\n      pop\n      jump\t// out\n        /* \"#utility.yul\":3236:3379   */\n    tag_305:\n        /* \"#utility.yul\":3289:3296   */\n      0x00\n        /* \"#utility.yul\":3318:3323   */\n      dup2\n        /* \"#utility.yul\":3307:3323   */\n      swap1\n      pop\n        /* \"#utility.yul\":3324:3373   */\n      tag_410\n        /* \"#utility.yul\":3367:3372   */\n      dup3\n        /* \"#utility.yul\":3324:3373   */\n      tag_304\n      jump\t// in\n    tag_410:\n        /* \"#utility.yul\":3236:3379   */\n      swap2\n      swap1\n      pop\n      jump\t// out\n        /* \"#utility.yul\":3385:3528   */\n    tag_306:\n        /* \"#utility.yul\":3449:3458   */\n      0x00\n        /* \"#utility.yul\":3482:3522   */\n      tag_412\n        /* \"#utility.yul\":3516:3521   */\n      dup3\n        /* \"#utility.yul\":3482:3522   */\n      tag_305\n      jump\t// in\n    tag_412:\n        /* \"#utility.yul\":3469:3522   */\n      swap1\n      pop\n        /* \"#utility.yul\":3385:3528   */\n      swap2\n      swap1\n      pop\n      jump\t// out\n        /* \"#utility.yul\":3534:3693   */\n    tag_307:\n        /* \"#utility.yul\":3635:3686   */\n      tag_414\n        /* \"#utility.yul\":3680:3685   */\n      dup2\n        /* \"#utility.yul\":3635:3686   */\n      tag_306\n      jump\t// in\n    tag_414:\n        /* \"#utility.yul\":3630:3633   */\n      dup3\n        /* \"#utility.yul\":3623:3687   */\n      mstore\n        /* \"#utility.yul\":3534:3693   */\n      pop\n      pop\n      jump\t// out\n        /* \"#utility.yul\":3699:3949   */\n    tag_41:\n        /* \"#utility.yul\":3806:3810   */\n      0x00\n        /* \"#utility.yul\":3844:3846   */\n      0x20\n        /* \"#utility.yul\":3833:3842   */\n      dup3\n        /* \"#utility.yul\":3829:3847   */\n      add\n        /* \"#utility.yul\":3821:3847   */\n      swap1\n      pop\n        /* \"#utility.yul\":3857:3942   */\n      tag_416\n        /* \"#utility.yul\":3939:3940   */\n      0x00\n        /* \"#utility.yul\":3928:3937   */\n      dup4\n        /* \"#utility.yul\":3924:3941   */\n      add\n        /* \"#utility.yul\":3915:3921   */\n      dup5\n        /* \"#utility.yul\":3857:3942   */\n      tag_307\n      jump\t// in\n    tag_416:\n        /* \"#utility.yul\":3699:3949   */\n      swap3\n      swap2\n      pop\n      pop\n      jump\t// out\n        /* \"#utility.yul\":3955:4177   */\n    tag_46:\n        /* \"#utility.yul\":4048:4052   */\n      0x00\n        /* \"#utility.yul\":4086:4088   */\n      0x20\n        /* \"#utility.yul\":4075:4084   */\n      dup3\n        /* \"#utility.yul\":4071:4089   */\n      add\n        /* \"#utility.yul\":4063:4089   */\n      swap1\n      pop\n        /* \"#utility.yul\":4099:4170   */\n      tag_418\n        /* \"#utility.yul\":4167:4168   */\n      0x00\n        /* \"#utility.yul\":4156:4165   */\n      dup4\n        /* \"#utility.yul\":4152:4169   */\n      add\n        /* \"#utility.yul\":4143:4149   */\n      dup5\n        /* \"#utility.yul\":4099:4170   */\n      tag_303\n      jump\t// in\n    tag_418:\n        /* \"#utility.yul\":3955:4177   */\n      swap3\n      swap2\n      pop\n      pop\n      jump\t// out\n        /* \"#utility.yul\":4183:4273   */\n    tag_308:\n        /* \"#utility.yul\":4217:4224   */\n      0x00\n        /* \"#utility.yul\":4260:4265   */\n      dup2\n        /* \"#utility.yul\":4253:4266   */\n      iszero\n        /* \"#utility.yul\":4246:4267   */\n      iszero\n        /* \"#utility.yul\":4235:4267   */\n      swap1\n      pop\n        /* \"#utility.yul\":4183:4273   */\n      swap2\n      swap1\n      pop\n      jump\t// out\n        /* \"#utility.yul\":4279:4388   */\n    tag_309:\n        /* \"#utility.yul\":4360:4381   */\n      tag_421\n        /* \"#utility.yul\":4375:4380   */\n      dup2\n        /* \"#utility.yul\":4360:4381   */\n      tag_308\n      jump\t// in\n    tag_421:\n        /* \"#utility.yul\":4355:4358   */\n      dup3\n        /* \"#utility.yul\":4348:4382   */\n      mstore\n        /* \"#utility.yul\":4279:4388   */\n      pop\n      pop\n      jump\t// out\n        /* \"#utility.yul\":4394:4604   */\n    tag_65:\n        /* \"#utility.yul\":4481:4485   */\n      0x00\n        /* \"#utility.yul\":4519:4521   */\n      0x20\n        /* \"#utility.yul\":4508:4517   */\n      dup3\n        /* \"#utility.yul\":4504:4522   */\n      add\n        /* \"#utility.yul\":4496:4522   */\n      swap1\n      pop\n        /* \"#utility.yul\":4532:4597   */\n      tag_423\n        /* \"#utility.yul\":4594:4595   */\n      0x00\n        /* \"#utility.yul\":4583:4592   */\n      dup4\n        /* \"#utility.yul\":4579:4596   */\n      add\n        /* \"#utility.yul\":4570:4576   */\n      dup5\n        /* \"#utility.yul\":4532:4597   */\n      tag_309\n      jump\t// in\n    tag_423:\n        /* \"#utility.yul\":4394:4604   */\n      swap3\n      swap2\n      pop\n      pop\n      jump\t// out\n        /* \"#utility.yul\":4610:4736   */\n    tag_310:\n        /* \"#utility.yul\":4647:4654   */\n      0x00\n        /* \"#utility.yul\":4687:4729   */\n      0xffffffffffffffffffffffffffffffffffffffff\n        /* \"#utility.yul\":4680:4685   */\n      dup3\n        /* \"#utility.yul\":4676:4730   */\n      and\n        /* \"#utility.yul\":4665:4730   */\n      swap1\n      pop\n        /* \"#utility.yul\":4610:4736   */\n      swap2\n      swap1\n      pop\n      jump\t// out\n        /* \"#utility.yul\":4742:4838   */\n    tag_311:\n        /* \"#utility.yul\":4779:4786   */\n      0x00\n        /* \"#utility.yul\":4808:4832   */\n      tag_426\n        /* \"#utility.yul\":4826:4831   */\n      dup3\n        /* \"#utility.yul\":4808:4832   */\n      tag_310\n      jump\t// in\n    tag_426:\n        /* \"#utility.yul\":4797:4832   */\n      swap1\n      pop\n        /* \"#utility.yul\":4742:4838   */\n      swap2\n      swap1\n      pop\n      jump\t// out\n        /* \"#utility.yul\":4844:4966   */\n    tag_312:\n        /* \"#utility.yul\":4917:4941   */\n      tag_428\n        /* \"#utility.yul\":4935:4940   */\n      dup2\n        /* \"#utility.yul\":4917:4941   */\n      tag_311\n      jump\t// in\n    tag_428:\n        /* \"#utility.yul\":4910:4915   */\n      dup2\n        /* \"#utility.yul\":4907:4942   */\n      eq\n        /* \"#utility.yul\":4897:4960   */\n      tag_429\n      jumpi\n        /* \"#utility.yul\":4956:4957   */\n      0x00\n        /* \"#utility.yul\":4953:4954   */\n      dup1\n        /* \"#utility.yul\":4946:4958   */\n      revert\n        /* \"#utility.yul\":4897:4960   */\n    tag_429:\n        /* \"#utility.yul\":4844:4966   */\n      pop\n      jump\t// out\n        /* \"#utility.yul\":4972:5111   */\n    tag_313:\n        /* \"#utility.yul\":5018:5023   */\n      0x00\n        /* \"#utility.yul\":5056:5062   */\n      dup2\n        /* \"#utility.yul\":5043:5063   */\n      calldataload\n        /* \"#utility.yul\":5034:5063   */\n      swap1\n      pop\n        /* \"#utility.yul\":5072:5105   */\n      tag_431\n        /* \"#utility.yul\":5099:5104   */\n      dup2\n        /* \"#utility.yul\":5072:5105   */\n      tag_312\n      jump\t// in\n    tag_431:\n        /* \"#utility.yul\":4972:5111   */\n      swap3\n      swap2\n      pop\n      pop\n      jump\t// out\n        /* \"#utility.yul\":5117:5591   */\n    tag_81:\n        /* \"#utility.yul\":5185:5191   */\n      0x00\n        /* \"#utility.yul\":5193:5199   */\n      dup1\n        /* \"#utility.yul\":5242:5244   */\n      0x40\n        /* \"#utility.yul\":5230:5239   */\n      dup4\n        /* \"#utility.yul\":5221:5228   */\n      dup6\n        /* \"#utility.yul\":5217:5240   */\n      sub\n        /* \"#utility.yul\":5213:5245   */\n      slt\n        /* \"#utility.yul\":5210:5329   */\n      iszero\n      tag_433\n      jumpi\n        /* \"#utility.yul\":5248:5327   */\n      tag_434\n      tag_293\n      jump\t// in\n    tag_434:\n        /* \"#utility.yul\":5210:5329   */\n    tag_433:\n        /* \"#utility.yul\":5368:5369   */\n      0x00\n        /* \"#utility.yul\":5393:5446   */\n      tag_435\n        /* \"#utility.yul\":5438:5445   */\n      dup6\n        /* \"#utility.yul\":5429:5435   */\n      dup3\n        /* \"#utility.yul\":5418:5427   */\n      dup7\n        /* \"#utility.yul\":5414:5436   */\n      add\n        /* \"#utility.yul\":5393:5446   */\n      tag_313\n      jump\t// in\n    tag_435:\n        /* \"#utility.yul\":5383:5446   */\n      swap3\n      pop\n        /* \"#utility.yul\":5339:5456   */\n      pop\n        /* \"#utility.yul\":5495:5497   */\n      0x20\n        /* \"#utility.yul\":5521:5574   */\n      tag_436\n        /* \"#utility.yul\":5566:5573   */\n      dup6\n        /* \"#utility.yul\":5557:5563   */\n      dup3\n        /* \"#utility.yul\":5546:5555   */\n      dup7\n        /* \"#utility.yul\":5542:5564   */\n      add\n        /* \"#utility.yul\":5521:5574   */\n      tag_297\n      jump\t// in\n    tag_436:\n        /* \"#utility.yul\":5511:5574   */\n      swap2\n      pop\n        /* \"#utility.yul\":5466:5584   */\n      pop\n        /* \"#utility.yul\":5117:5591   */\n      swap3\n      pop\n      swap3\n      swap1\n      pop\n      jump\t// out\n        /* \"#utility.yul\":5597:5715   */\n    tag_314:\n        /* \"#utility.yul\":5684:5708   */\n      tag_438\n        /* \"#utility.yul\":5702:5707   */\n      dup2\n        /* \"#utility.yul\":5684:5708   */\n      tag_311\n      jump\t// in\n    tag_438:\n        /* \"#utility.yul\":5679:5682   */\n      dup3\n        /* \"#utility.yul\":5672:5709   */\n      mstore\n        /* \"#utility.yul\":5597:5715   */\n      pop\n      pop\n      jump\t// out\n        /* \"#utility.yul\":5721:5943   */\n    tag_88:\n        /* \"#utility.yul\":5814:5818   */\n      0x00\n        /* \"#utility.yul\":5852:5854   */\n      0x20\n        /* \"#utility.yul\":5841:5850   */\n      dup3\n        /* \"#utility.yul\":5837:5855   */\n      add\n        /* \"#utility.yul\":5829:5855   */\n      swap1\n      pop\n        /* \"#utility.yul\":5865:5936   */\n      tag_440\n        /* \"#utility.yul\":5933:5934   */\n      0x00\n        /* \"#utility.yul\":5922:5931   */\n      dup4\n        /* \"#utility.yul\":5918:5935   */\n      add\n        /* \"#utility.yul\":5909:5915   */\n      dup5\n        /* \"#utility.yul\":5865:5936   */\n      tag_314\n      jump\t// in\n    tag_440:\n        /* \"#utility.yul\":5721:5943   */\n      swap3\n      swap2\n      pop\n      pop\n      jump\t// out\n        /* \"#utility.yul\":5949:6066   */\n    tag_315:\n        /* \"#utility.yul\":6058:6059   */\n      0x00\n        /* \"#utility.yul\":6055:6056   */\n      dup1\n        /* \"#utility.yul\":6048:6060   */\n      revert\n        /* \"#utility.yul\":6072:6189   */\n    tag_316:\n        /* \"#utility.yul\":6181:6182   */\n      0x00\n        /* \"#utility.yul\":6178:6179   */\n      dup1\n        /* \"#utility.yul\":6171:6183   */\n      revert\n        /* \"#utility.yul\":6195:6375   */\n    tag_317:\n        /* \"#utility.yul\":6243:6320   */\n      0x4e487b7100000000000000000000000000000000000000000000000000000000\n        /* \"#utility.yul\":6240:6241   */\n      0x00\n        /* \"#utility.yul\":6233:6321   */\n      mstore\n        /* \"#utility.yul\":6340:6344   */\n      0x41\n        /* \"#utility.yul\":6337:6338   */\n      0x04\n        /* \"#utility.yul\":6330:6345   */\n      mstore\n        /* \"#utility.yul\":6364:6368   */\n      0x24\n        /* \"#utility.yul\":6361:6362   */\n      0x00\n        /* \"#utility.yul\":6354:6369   */\n      revert\n        /* \"#utility.yul\":6381:6662   */\n    tag_318:\n        /* \"#utility.yul\":6464:6491   */\n      tag_445\n        /* \"#utility.yul\":6486:6490   */\n      dup3\n        /* \"#utility.yul\":6464:6491   */\n      tag_301\n      jump\t// in\n    tag_445:\n        /* \"#utility.yul\":6456:6462   */\n      dup2\n        /* \"#utility.yul\":6452:6492   */\n      add\n        /* \"#utility.yul\":6594:6600   */\n      dup2\n        /* \"#utility.yul\":6582:6592   */\n      dup2\n        /* \"#utility.yul\":6579:6601   */\n      lt\n        /* \"#utility.yul\":6558:6576   */\n      0xffffffffffffffff\n        /* \"#utility.yul\":6546:6556   */\n      dup3\n        /* \"#utility.yul\":6543:6577   */\n      gt\n        /* \"#utility.yul\":6540:6602   */\n      or\n        /* \"#utility.yul\":6537:6625   */\n      iszero\n      tag_446\n      jumpi\n        /* \"#utility.yul\":6605:6623   */\n      tag_447\n      tag_317\n      jump\t// in\n    tag_447:\n        /* \"#utility.yul\":6537:6625   */\n    tag_446:\n        /* \"#utility.yul\":6645:6655   */\n      dup1\n        /* \"#utility.yul\":6641:6643   */\n      0x40\n        /* \"#utility.yul\":6634:6656   */\n      mstore\n        /* \"#utility.yul\":6424:6662   */\n      pop\n        /* \"#utility.yul\":6381:6662   */\n      pop\n      pop\n      jump\t// out\n        /* \"#utility.yul\":6668:6797   */\n    tag_319:\n        /* \"#utility.yul\":6702:6708   */\n      0x00\n        /* \"#utility.yul\":6729:6749   */\n      tag_449\n      tag_292\n      jump\t// in\n    tag_449:\n        /* \"#utility.yul\":6719:6749   */\n      swap1\n      pop\n        /* \"#utility.yul\":6758:6791   */\n      tag_450\n        /* \"#utility.yul\":6786:6790   */\n      dup3\n        /* \"#utility.yul\":6778:6784   */\n      dup3\n        /* \"#utility.yul\":6758:6791   */\n      tag_318\n      jump\t// in\n    tag_450:\n        /* \"#utility.yul\":6668:6797   */\n      swap2\n      swap1\n      pop\n      jump\t// out\n        /* \"#utility.yul\":6803:7111   */\n    tag_320:\n        /* \"#utility.yul\":6865:6869   */\n      0x00\n        /* \"#utility.yul\":6955:6973   */\n      0xffffffffffffffff\n        /* \"#utility.yul\":6947:6953   */\n      dup3\n        /* \"#utility.yul\":6944:6974   */\n      gt\n        /* \"#utility.yul\":6941:6997   */\n      iszero\n      tag_452\n      jumpi\n        /* \"#utility.yul\":6977:6995   */\n      tag_453\n      tag_317\n      jump\t// in\n    tag_453:\n        /* \"#utility.yul\":6941:6997   */\n    tag_452:\n        /* \"#utility.yul\":7015:7044   */\n      tag_454\n        /* \"#utility.yul\":7037:7043   */\n      dup3\n        /* \"#utility.yul\":7015:7044   */\n      tag_301\n      jump\t// in\n    tag_454:\n        /* \"#utility.yul\":7007:7044   */\n      swap1\n      pop\n        /* \"#utility.yul\":7099:7103   */\n      0x20\n        /* \"#utility.yul\":7093:7097   */\n      dup2\n        /* \"#utility.yul\":7089:7104   */\n      add\n        /* \"#utility.yul\":7081:7104   */\n      swap1\n      pop\n        /* \"#utility.yul\":6803:7111   */\n      swap2\n      swap1\n      pop\n      jump\t// out\n        /* \"#utility.yul\":7117:7265   */\n    tag_321:\n        /* \"#utility.yul\":7215:7221   */\n      dup3\n        /* \"#utility.yul\":7210:7213   */\n      dup2\n        /* \"#utility.yul\":7205:7208   */\n      dup4\n        /* \"#utility.yul\":7192:7222   */\n      calldatacopy\n        /* \"#utility.yul\":7256:7257   */\n      0x00\n        /* \"#utility.yul\":7247:7253   */\n      dup4\n        /* \"#utility.yul\":7242:7245   */\n      dup4\n        /* \"#utility.yul\":7238:7254   */\n      add\n        /* \"#utility.yul\":7231:7258   */\n      mstore\n        /* \"#utility.yul\":7117:7265   */\n      pop\n      pop\n      pop\n      jump\t// out\n        /* \"#utility.yul\":7271:7696   */\n    tag_322:\n        /* \"#utility.yul\":7349:7354   */\n      0x00\n        /* \"#utility.yul\":7374:7440   */\n      tag_457\n        /* \"#utility.yul\":7390:7439   */\n      tag_458\n        /* \"#utility.yul\":7432:7438   */\n      dup5\n        /* \"#utility.yul\":7390:7439   */\n      tag_320\n      jump\t// in\n    tag_458:\n        /* \"#utility.yul\":7374:7440   */\n      tag_319\n      jump\t// in\n    tag_457:\n        /* \"#utility.yul\":7365:7440   */\n      swap1\n      pop\n        /* \"#utility.yul\":7463:7469   */\n      dup3\n        /* \"#utility.yul\":7456:7461   */\n      dup2\n        /* \"#utility.yul\":7449:7470   */\n      mstore\n        /* \"#utility.yul\":7501:7505   */\n      0x20\n        /* \"#utility.yul\":7494:7499   */\n      dup2\n        /* \"#utility.yul\":7490:7506   */\n      add\n        /* \"#utility.yul\":7539:7542   */\n      dup5\n        /* \"#utility.yul\":7530:7536   */\n      dup5\n        /* \"#utility.yul\":7525:7528   */\n      dup5\n        /* \"#utility.yul\":7521:7537   */\n      add\n        /* \"#utility.yul\":7518:7543   */\n      gt\n        /* \"#utility.yul\":7515:7627   */\n      iszero\n      tag_459\n      jumpi\n        /* \"#utility.yul\":7546:7625   */\n      tag_460\n      tag_316\n      jump\t// in\n    tag_460:\n        /* \"#utility.yul\":7515:7627   */\n    tag_459:\n        /* \"#utility.yul\":7636:7690   */\n      tag_461\n        /* \"#utility.yul\":7683:7689   */\n      dup5\n        /* \"#utility.yul\":7678:7681   */\n      dup3\n        /* \"#utility.yul\":7673:7676   */\n      dup6\n        /* \"#utility.yul\":7636:7690   */\n      tag_321\n      jump\t// in\n    tag_461:\n        /* \"#utility.yul\":7355:7696   */\n      pop\n        /* \"#utility.yul\":7271:7696   */\n      swap4\n      swap3\n      pop\n      pop\n      pop\n      jump\t// out\n        /* \"#utility.yul\":7716:8056   */\n    tag_323:\n        /* \"#utility.yul\":7772:7777   */\n      0x00\n        /* \"#utility.yul\":7821:7824   */\n      dup3\n        /* \"#utility.yul\":7814:7818   */\n      0x1f\n        /* \"#utility.yul\":7806:7812   */\n      dup4\n        /* \"#utility.yul\":7802:7819   */\n      add\n        /* \"#utility.yul\":7798:7825   */\n      slt\n        /* \"#utility.yul\":7788:7910   */\n      tag_463\n      jumpi\n        /* \"#utility.yul\":7829:7908   */\n      tag_464\n      tag_315\n      jump\t// in\n    tag_464:\n        /* \"#utility.yul\":7788:7910   */\n    tag_463:\n        /* \"#utility.yul\":7946:7952   */\n      dup2\n        /* \"#utility.yul\":7933:7953   */\n      calldataload\n        /* \"#utility.yul\":7971:8050   */\n      tag_465\n        /* \"#utility.yul\":8046:8049   */\n      dup5\n        /* \"#utility.yul\":8038:8044   */\n      dup3\n        /* \"#utility.yul\":8031:8035   */\n      0x20\n        /* \"#utility.yul\":8023:8029   */\n      dup7\n        /* \"#utility.yul\":8019:8036   */\n      add\n        /* \"#utility.yul\":7971:8050   */\n      tag_322\n      jump\t// in\n    tag_465:\n        /* \"#utility.yul\":7962:8050   */\n      swap2\n      pop\n        /* \"#utility.yul\":7778:8056   */\n      pop\n        /* \"#utility.yul\":7716:8056   */\n      swap3\n      swap2\n      pop\n      pop\n      jump\t// out\n        /* \"#utility.yul\":8062:8716   */\n    tag_92:\n        /* \"#utility.yul\":8140:8146   */\n      0x00\n        /* \"#utility.yul\":8148:8154   */\n      dup1\n        /* \"#utility.yul\":8197:8199   */\n      0x40\n        /* \"#utility.yul\":8185:8194   */\n      dup4\n        /* \"#utility.yul\":8176:8183   */\n      dup6\n        /* \"#utility.yul\":8172:8195   */\n      sub\n        /* \"#utility.yul\":8168:8200   */\n      slt\n        /* \"#utility.yul\":8165:8284   */\n      iszero\n      tag_467\n      jumpi\n        /* \"#utility.yul\":8203:8282   */\n      tag_468\n      tag_293\n      jump\t// in\n    tag_468:\n        /* \"#utility.yul\":8165:8284   */\n    tag_467:\n        /* \"#utility.yul\":8351:8352   */\n      0x00\n        /* \"#utility.yul\":8340:8349   */\n      dup4\n        /* \"#utility.yul\":8336:8353   */\n      add\n        /* \"#utility.yul\":8323:8354   */\n      calldataload\n        /* \"#utility.yul\":8381:8399   */\n      0xffffffffffffffff\n        /* \"#utility.yul\":8373:8379   */\n      dup2\n        /* \"#utility.yul\":8370:8400   */\n      gt\n        /* \"#utility.yul\":8367:8484   */\n      iszero\n      tag_469\n      jumpi\n        /* \"#utility.yul\":8403:8482   */\n      tag_470\n      tag_294\n      jump\t// in\n    tag_470:\n        /* \"#utility.yul\":8367:8484   */\n    tag_469:\n        /* \"#utility.yul\":8508:8571   */\n      tag_471\n        /* \"#utility.yul\":8563:8570   */\n      dup6\n        /* \"#utility.yul\":8554:8560   */\n      dup3\n        /* \"#utility.yul\":8543:8552   */\n      dup7\n        /* \"#utility.yul\":8539:8561   */\n      add\n        /* \"#utility.yul\":8508:8571   */\n      tag_323\n      jump\t// in\n    tag_471:\n        /* \"#utility.yul\":8498:8571   */\n      swap3\n      pop\n        /* \"#utility.yul\":8294:8581   */\n      pop\n        /* \"#utility.yul\":8620:8622   */\n      0x20\n        /* \"#utility.yul\":8646:8699   */\n      tag_472\n        /* \"#utility.yul\":8691:8698   */\n      dup6\n        /* \"#utility.yul\":8682:8688   */\n      dup3\n        /* \"#utility.yul\":8671:8680   */\n      dup7\n        /* \"#utility.yul\":8667:8689   */\n      add\n        /* \"#utility.yul\":8646:8699   */\n      tag_297\n      jump\t// in\n    tag_472:\n        /* \"#utility.yul\":8636:8699   */\n      swap2\n      pop\n        /* \"#utility.yul\":8591:8709   */\n      pop\n        /* \"#utility.yul\":8062:8716   */\n      swap3\n      pop\n      swap3\n      swap1\n      pop\n      jump\t// out\n        /* \"#utility.yul\":8722:9051   */\n    tag_97:\n        /* \"#utility.yul\":8781:8787   */\n      0x00\n        /* \"#utility.yul\":8830:8832   */\n      0x20\n        /* \"#utility.yul\":8818:8827   */\n      dup3\n        /* \"#utility.yul\":8809:8816   */\n      dup5\n        /* \"#utility.yul\":8805:8828   */\n      sub\n        /* \"#utility.yul\":8801:8833   */\n      slt\n        /* \"#utility.yul\":8798:8917   */\n      iszero\n      tag_474\n      jumpi\n        /* \"#utility.yul\":8836:8915   */\n      tag_475\n      tag_293\n      jump\t// in\n    tag_475:\n        /* \"#utility.yul\":8798:8917   */\n    tag_474:\n        /* \"#utility.yul\":8956:8957   */\n      0x00\n        /* \"#utility.yul\":8981:9034   */\n      tag_476\n        /* \"#utility.yul\":9026:9033   */\n      dup5\n        /* \"#utility.yul\":9017:9023   */\n      dup3\n        /* \"#utility.yul\":9006:9015   */\n      dup6\n        /* \"#utility.yul\":9002:9024   */\n      add\n        /* \"#utility.yul\":8981:9034   */\n      tag_313\n      jump\t// in\n    tag_476:\n        /* \"#utility.yul\":8971:9034   */\n      swap2\n      pop\n        /* \"#utility.yul\":8927:9044   */\n      pop\n        /* \"#utility.yul\":8722:9051   */\n      swap3\n      swap2\n      pop\n      pop\n      jump\t// out\n        /* \"#utility.yul\":9057:9191   */\n    tag_324:\n        /* \"#utility.yul\":9144:9150   */\n      0x00\n        /* \"#utility.yul\":9178:9183   */\n      dup2\n        /* \"#utility.yul\":9172:9184   */\n      mload\n        /* \"#utility.yul\":9162:9184   */\n      swap1\n      pop\n        /* \"#utility.yul\":9057:9191   */\n      swap2\n      swap1\n      pop\n      jump\t// out\n        /* \"#utility.yul\":9197:9401   */\n    tag_325:\n        /* \"#utility.yul\":9316:9327   */\n      0x00\n        /* \"#utility.yul\":9350:9356   */\n      dup3\n        /* \"#utility.yul\":9345:9348   */\n      dup3\n        /* \"#utility.yul\":9338:9357   */\n      mstore\n        /* \"#utility.yul\":9390:9394   */\n      0x20\n        /* \"#utility.yul\":9385:9388   */\n      dup3\n        /* \"#utility.yul\":9381:9395   */\n      add\n        /* \"#utility.yul\":9366:9395   */\n      swap1\n      pop\n        /* \"#utility.yul\":9197:9401   */\n      swap3\n      swap2\n      pop\n      pop\n      jump\t// out\n        /* \"#utility.yul\":9407:9559   */\n    tag_326:\n        /* \"#utility.yul\":9494:9498   */\n      0x00\n        /* \"#utility.yul\":9517:9520   */\n      dup2\n        /* \"#utility.yul\":9509:9520   */\n      swap1\n      pop\n        /* \"#utility.yul\":9547:9551   */\n      0x20\n        /* \"#utility.yul\":9542:9545   */\n      dup3\n        /* \"#utility.yul\":9538:9552   */\n      add\n        /* \"#utility.yul\":9530:9552   */\n      swap1\n      pop\n        /* \"#utility.yul\":9407:9559   */\n      swap2\n      swap1\n      pop\n      jump\t// out\n        /* \"#utility.yul\":9565:9724   */\n    tag_327:\n        /* \"#utility.yul\":9639:9650   */\n      0x00\n        /* \"#utility.yul\":9673:9679   */\n      dup3\n        /* \"#utility.yul\":9668:9671   */\n      dup3\n        /* \"#utility.yul\":9661:9680   */\n      mstore\n        /* \"#utility.yul\":9713:9717   */\n      0x20\n        /* \"#utility.yul\":9708:9711   */\n      dup3\n        /* \"#utility.yul\":9704:9718   */\n      add\n        /* \"#utility.yul\":9689:9718   */\n      swap1\n      pop\n        /* \"#utility.yul\":9565:9724   */\n      swap3\n      swap2\n      pop\n      pop\n      jump\t// out\n        /* \"#utility.yul\":9730:10087   */\n    tag_328:\n        /* \"#utility.yul\":9808:9811   */\n      0x00\n        /* \"#utility.yul\":9836:9875   */\n      tag_482\n        /* \"#utility.yul\":9869:9874   */\n      dup3\n        /* \"#utility.yul\":9836:9875   */\n      tag_298\n      jump\t// in\n    tag_482:\n        /* \"#utility.yul\":9891:9952   */\n      tag_483\n        /* \"#utility.yul\":9945:9951   */\n      dup2\n        /* \"#utility.yul\":9940:9943   */\n      dup6\n        /* \"#utility.yul\":9891:9952   */\n      tag_327\n      jump\t// in\n    tag_483:\n        /* \"#utility.yul\":9884:9952   */\n      swap4\n      pop\n        /* \"#utility.yul\":9961:10026   */\n      tag_484\n        /* \"#utility.yul\":10019:10025   */\n      dup2\n        /* \"#utility.yul\":10014:10017   */\n      dup6\n        /* \"#utility.yul\":10007:10011   */\n      0x20\n        /* \"#utility.yul\":10000:10005   */\n      dup7\n        /* \"#utility.yul\":9996:10012   */\n      add\n        /* \"#utility.yul\":9961:10026   */\n      tag_300\n      jump\t// in\n    tag_484:\n        /* \"#utility.yul\":10051:10080   */\n      tag_485\n        /* \"#utility.yul\":10073:10079   */\n      dup2\n        /* \"#utility.yul\":10051:10080   */\n      tag_301\n      jump\t// in\n    tag_485:\n        /* \"#utility.yul\":10046:10049   */\n      dup5\n        /* \"#utility.yul\":10042:10081   */\n      add\n        /* \"#utility.yul\":10035:10081   */\n      swap2\n      pop\n        /* \"#utility.yul\":9812:10087   */\n      pop\n        /* \"#utility.yul\":9730:10087   */\n      swap3\n      swap2\n      pop\n      pop\n      jump\t// out\n        /* \"#utility.yul\":10093:10201   */\n    tag_329:\n        /* \"#utility.yul\":10170:10194   */\n      tag_487\n        /* \"#utility.yul\":10188:10193   */\n      dup2\n        /* \"#utility.yul\":10170:10194   */\n      tag_295\n      jump\t// in\n    tag_487:\n        /* \"#utility.yul\":10165:10168   */\n      dup3\n        /* \"#utility.yul\":10158:10195   */\n      mstore\n        /* \"#utility.yul\":10093:10201   */\n      pop\n      pop\n      jump\t// out\n        /* \"#utility.yul\":10267:11032   */\n    tag_330:\n        /* \"#utility.yul\":10366:10369   */\n      0x00\n        /* \"#utility.yul\":10402:10406   */\n      0x60\n        /* \"#utility.yul\":10397:10400   */\n      dup4\n        /* \"#utility.yul\":10393:10407   */\n      add\n        /* \"#utility.yul\":10489:10493   */\n      0x00\n        /* \"#utility.yul\":10482:10487   */\n      dup4\n        /* \"#utility.yul\":10478:10494   */\n      add\n        /* \"#utility.yul\":10472:10495   */\n      mload\n        /* \"#utility.yul\":10542:10545   */\n      dup5\n        /* \"#utility.yul\":10536:10540   */\n      dup3\n        /* \"#utility.yul\":10532:10546   */\n      sub\n        /* \"#utility.yul\":10525:10529   */\n      0x00\n        /* \"#utility.yul\":10520:10523   */\n      dup7\n        /* \"#utility.yul\":10516:10530   */\n      add\n        /* \"#utility.yul\":10509:10547   */\n      mstore\n        /* \"#utility.yul\":10568:10641   */\n      tag_489\n        /* \"#utility.yul\":10636:10640   */\n      dup3\n        /* \"#utility.yul\":10622:10634   */\n      dup3\n        /* \"#utility.yul\":10568:10641   */\n      tag_328\n      jump\t// in\n    tag_489:\n        /* \"#utility.yul\":10560:10641   */\n      swap2\n      pop\n        /* \"#utility.yul\":10417:10652   */\n      pop\n        /* \"#utility.yul\":10736:10740   */\n      0x20\n        /* \"#utility.yul\":10729:10734   */\n      dup4\n        /* \"#utility.yul\":10725:10741   */\n      add\n        /* \"#utility.yul\":10719:10742   */\n      mload\n        /* \"#utility.yul\":10755:10818   */\n      tag_490\n        /* \"#utility.yul\":10812:10816   */\n      0x20\n        /* \"#utility.yul\":10807:10810   */\n      dup7\n        /* \"#utility.yul\":10803:10817   */\n      add\n        /* \"#utility.yul\":10789:10801   */\n      dup3\n        /* \"#utility.yul\":10755:10818   */\n      tag_329\n      jump\t// in\n    tag_490:\n        /* \"#utility.yul\":10662:10828   */\n      pop\n        /* \"#utility.yul\":10913:10917   */\n      0x40\n        /* \"#utility.yul\":10906:10911   */\n      dup4\n        /* \"#utility.yul\":10902:10918   */\n      add\n        /* \"#utility.yul\":10896:10919   */\n      mload\n        /* \"#utility.yul\":10932:10995   */\n      tag_491\n        /* \"#utility.yul\":10989:10993   */\n      0x40\n        /* \"#utility.yul\":10984:10987   */\n      dup7\n        /* \"#utility.yul\":10980:10994   */\n      add\n        /* \"#utility.yul\":10966:10978   */\n      dup3\n        /* \"#utility.yul\":10932:10995   */\n      tag_329\n      jump\t// in\n    tag_491:\n        /* \"#utility.yul\":10838:11005   */\n      pop\n        /* \"#utility.yul\":11022:11026   */\n      dup1\n        /* \"#utility.yul\":11015:11026   */\n      swap2\n      pop\n        /* \"#utility.yul\":10371:11032   */\n      pop\n        /* \"#utility.yul\":10267:11032   */\n      swap3\n      swap2\n      pop\n      pop\n      jump\t// out\n        /* \"#utility.yul\":11038:11274   */\n    tag_331:\n        /* \"#utility.yul\":11147:11157   */\n      0x00\n        /* \"#utility.yul\":11182:11268   */\n      tag_493\n        /* \"#utility.yul\":11264:11267   */\n      dup4\n        /* \"#utility.yul\":11256:11262   */\n      dup4\n        /* \"#utility.yul\":11182:11268   */\n      tag_330\n      jump\t// in\n    tag_493:\n        /* \"#utility.yul\":11168:11268   */\n      swap1\n      pop\n        /* \"#utility.yul\":11038:11274   */\n      swap3\n      swap2\n      pop\n      pop\n      jump\t// out\n        /* \"#utility.yul\":11280:11413   */\n    tag_332:\n        /* \"#utility.yul\":11370:11374   */\n      0x00\n        /* \"#utility.yul\":11402:11406   */\n      0x20\n        /* \"#utility.yul\":11397:11400   */\n      dup3\n        /* \"#utility.yul\":11393:11407   */\n      add\n        /* \"#utility.yul\":11385:11407   */\n      swap1\n      pop\n        /* \"#utility.yul\":11280:11413   */\n      swap2\n      swap1\n      pop\n      jump\t// out\n        /* \"#utility.yul\":11483:12554   */\n    tag_333:\n        /* \"#utility.yul\":11642:11645   */\n      0x00\n        /* \"#utility.yul\":11671:11745   */\n      tag_496\n        /* \"#utility.yul\":11739:11744   */\n      dup3\n        /* \"#utility.yul\":11671:11745   */\n      tag_324\n      jump\t// in\n    tag_496:\n        /* \"#utility.yul\":11761:11867   */\n      tag_497\n        /* \"#utility.yul\":11860:11866   */\n      dup2\n        /* \"#utility.yul\":11855:11858   */\n      dup6\n        /* \"#utility.yul\":11761:11867   */\n      tag_325\n      jump\t// in\n    tag_497:\n        /* \"#utility.yul\":11754:11867   */\n      swap4\n      pop\n        /* \"#utility.yul\":11893:11896   */\n      dup4\n        /* \"#utility.yul\":11938:11942   */\n      0x20\n        /* \"#utility.yul\":11930:11936   */\n      dup3\n        /* \"#utility.yul\":11926:11943   */\n      mul\n        /* \"#utility.yul\":11921:11924   */\n      dup6\n        /* \"#utility.yul\":11917:11944   */\n      add\n        /* \"#utility.yul\":11968:12044   */\n      tag_498\n        /* \"#utility.yul\":12038:12043   */\n      dup6\n        /* \"#utility.yul\":11968:12044   */\n      tag_326\n      jump\t// in\n    tag_498:\n        /* \"#utility.yul\":12067:12074   */\n      dup1\n        /* \"#utility.yul\":12098:12099   */\n      0x00\n        /* \"#utility.yul\":12083:12509   */\n    tag_499:\n        /* \"#utility.yul\":12108:12114   */\n      dup6\n        /* \"#utility.yul\":12105:12106   */\n      dup2\n        /* \"#utility.yul\":12102:12115   */\n      lt\n        /* \"#utility.yul\":12083:12509   */\n      iszero\n      tag_501\n      jumpi\n        /* \"#utility.yul\":12179:12188   */\n      dup5\n        /* \"#utility.yul\":12173:12177   */\n      dup5\n        /* \"#utility.yul\":12169:12189   */\n      sub\n        /* \"#utility.yul\":12164:12167   */\n      dup10\n        /* \"#utility.yul\":12157:12190   */\n      mstore\n        /* \"#utility.yul\":12230:12236   */\n      dup2\n        /* \"#utility.yul\":12224:12237   */\n      mload\n        /* \"#utility.yul\":12258:12362   */\n      tag_502\n        /* \"#utility.yul\":12357:12361   */\n      dup6\n        /* \"#utility.yul\":12342:12355   */\n      dup3\n        /* \"#utility.yul\":12258:12362   */\n      tag_331\n      jump\t// in\n    tag_502:\n        /* \"#utility.yul\":12250:12362   */\n      swap5\n      pop\n        /* \"#utility.yul\":12385:12465   */\n      tag_503\n        /* \"#utility.yul\":12458:12464   */\n      dup4\n        /* \"#utility.yul\":12385:12465   */\n      tag_332\n      jump\t// in\n    tag_503:\n        /* \"#utility.yul\":12375:12465   */\n      swap3\n      pop\n        /* \"#utility.yul\":12494:12498   */\n      0x20\n        /* \"#utility.yul\":12489:12492   */\n      dup11\n        /* \"#utility.yul\":12485:12499   */\n      add\n        /* \"#utility.yul\":12478:12499   */\n      swap10\n      pop\n        /* \"#utility.yul\":12143:12509   */\n      pop\n        /* \"#utility.yul\":12130:12131   */\n      0x01\n        /* \"#utility.yul\":12127:12128   */\n      dup2\n        /* \"#utility.yul\":12123:12132   */\n      add\n        /* \"#utility.yul\":12118:12132   */\n      swap1\n      pop\n        /* \"#utility.yul\":12083:12509   */\n      jump(tag_499)\n    tag_501:\n        /* \"#utility.yul\":12087:12101   */\n      pop\n        /* \"#utility.yul\":12525:12529   */\n      dup3\n        /* \"#utility.yul\":12518:12529   */\n      swap8\n      pop\n        /* \"#utility.yul\":12545:12548   */\n      dup8\n        /* \"#utility.yul\":12538:12548   */\n      swap6\n      pop\n        /* \"#utility.yul\":11647:12554   */\n      pop\n      pop\n      pop\n      pop\n      pop\n        /* \"#utility.yul\":11483:12554   */\n      swap3\n      swap2\n      pop\n      pop\n      jump\t// out\n        /* \"#utility.yul\":12560:13013   */\n    tag_114:\n        /* \"#utility.yul\":12743:12747   */\n      0x00\n        /* \"#utility.yul\":12781:12783   */\n      0x20\n        /* \"#utility.yul\":12770:12779   */\n      dup3\n        /* \"#utility.yul\":12766:12784   */\n      add\n        /* \"#utility.yul\":12758:12784   */\n      swap1\n      pop\n        /* \"#utility.yul\":12830:12839   */\n      dup2\n        /* \"#utility.yul\":12824:12828   */\n      dup2\n        /* \"#utility.yul\":12820:12840   */\n      sub\n        /* \"#utility.yul\":12816:12817   */\n      0x00\n        /* \"#utility.yul\":12805:12814   */\n      dup4\n        /* \"#utility.yul\":12801:12818   */\n      add\n        /* \"#utility.yul\":12794:12841   */\n      mstore\n        /* \"#utility.yul\":12858:13006   */\n      tag_505\n        /* \"#utility.yul\":13001:13005   */\n      dup2\n        /* \"#utility.yul\":12992:12998   */\n      dup5\n        /* \"#utility.yul\":12858:13006   */\n      tag_333\n      jump\t// in\n    tag_505:\n        /* \"#utility.yul\":12850:13006   */\n      swap1\n      pop\n        /* \"#utility.yul\":12560:13013   */\n      swap3\n      swap2\n      pop\n      pop\n      jump\t// out\n        /* \"#utility.yul\":13019:13199   */\n    tag_334:\n        /* \"#utility.yul\":13067:13144   */\n      0x4e487b7100000000000000000000000000000000000000000000000000000000\n        /* \"#utility.yul\":13064:13065   */\n      0x00\n        /* \"#utility.yul\":13057:13145   */\n      mstore\n        /* \"#utility.yul\":13164:13168   */\n      0x22\n        /* \"#utility.yul\":13161:13162   */\n      0x04\n        /* \"#utility.yul\":13154:13169   */\n      mstore\n        /* \"#utility.yul\":13188:13192   */\n      0x24\n        /* \"#utility.yul\":13185:13186   */\n      0x00\n        /* \"#utility.yul\":13178:13193   */\n      revert\n        /* \"#utility.yul\":13205:13525   */\n    tag_118:\n        /* \"#utility.yul\":13249:13255   */\n      0x00\n        /* \"#utility.yul\":13286:13287   */\n      0x02\n        /* \"#utility.yul\":13280:13284   */\n      dup3\n        /* \"#utility.yul\":13276:13288   */\n      div\n        /* \"#utility.yul\":13266:13288   */\n      swap1\n      pop\n        /* \"#utility.yul\":13333:13334   */\n      0x01\n        /* \"#utility.yul\":13327:13331   */\n      dup3\n        /* \"#utility.yul\":13323:13335   */\n      and\n        /* \"#utility.yul\":13354:13372   */\n      dup1\n        /* \"#utility.yul\":13344:13425   */\n      tag_508\n      jumpi\n        /* \"#utility.yul\":13410:13414   */\n      0x7f\n        /* \"#utility.yul\":13402:13408   */\n      dup3\n        /* \"#utility.yul\":13398:13415   */\n      and\n        /* \"#utility.yul\":13388:13415   */\n      swap2\n      pop\n        /* \"#utility.yul\":13344:13425   */\n    tag_508:\n        /* \"#utility.yul\":13472:13474   */\n      0x20\n        /* \"#utility.yul\":13464:13470   */\n      dup3\n        /* \"#utility.yul\":13461:13475   */\n      lt\n        /* \"#utility.yul\":13441:13459   */\n      dup2\n        /* \"#utility.yul\":13438:13476   */\n      sub\n        /* \"#utility.yul\":13435:13519   */\n      tag_509\n      jumpi\n        /* \"#utility.yul\":13491:13509   */\n      tag_510\n      tag_334\n      jump\t// in\n    tag_510:\n        /* \"#utility.yul\":13435:13519   */\n    tag_509:\n        /* \"#utility.yul\":13256:13525   */\n      pop\n        /* \"#utility.yul\":13205:13525   */\n      swap2\n      swap1\n      pop\n      jump\t// out\n        /* \"#utility.yul\":13531:13758   */\n    tag_335:\n        /* \"#utility.yul\":13671:13705   */\n      0x4f6e6c7920746865206f776e65722063616e2077697468647261772074686520\n        /* \"#utility.yul\":13667:13668   */\n      0x00\n        /* \"#utility.yul\":13659:13665   */\n      dup3\n        /* \"#utility.yul\":13655:13669   */\n      add\n        /* \"#utility.yul\":13648:13706   */\n      mstore\n        /* \"#utility.yul\":13740:13750   */\n      0x66756e64732e2e2e000000000000000000000000000000000000000000000000\n        /* \"#utility.yul\":13735:13737   */\n      0x20\n        /* \"#utility.yul\":13727:13733   */\n      dup3\n        /* \"#utility.yul\":13723:13738   */\n      add\n        /* \"#utility.yul\":13716:13751   */\n      mstore\n        /* \"#utility.yul\":13531:13758   */\n      pop\n      jump\t// out\n        /* \"#utility.yul\":13764:14130   */\n    tag_336:\n        /* \"#utility.yul\":13906:13909   */\n      0x00\n        /* \"#utility.yul\":13927:13994   */\n      tag_513\n        /* \"#utility.yul\":13991:13993   */\n      0x28\n        /* \"#utility.yul\":13986:13989   */\n      dup4\n        /* \"#utility.yul\":13927:13994   */\n      tag_299\n      jump\t// in\n    tag_513:\n        /* \"#utility.yul\":13920:13994   */\n      swap2\n      pop\n        /* \"#utility.yul\":14003:14096   */\n      tag_514\n        /* \"#utility.yul\":14092:14095   */\n      dup3\n        /* \"#utility.yul\":14003:14096   */\n      tag_335\n      jump\t// in\n    tag_514:\n        /* \"#utility.yul\":14121:14123   */\n      0x40\n        /* \"#utility.yul\":14116:14119   */\n      dup3\n        /* \"#utility.yul\":14112:14124   */\n      add\n        /* \"#utility.yul\":14105:14124   */\n      swap1\n      pop\n        /* \"#utility.yul\":13764:14130   */\n      swap2\n      swap1\n      pop\n      jump\t// out\n        /* \"#utility.yul\":14136:14555   */\n    tag_141:\n        /* \"#utility.yul\":14302:14306   */\n      0x00\n        /* \"#utility.yul\":14340:14342   */\n      0x20\n        /* \"#utility.yul\":14329:14338   */\n      dup3\n        /* \"#utility.yul\":14325:14343   */\n      add\n        /* \"#utility.yul\":14317:14343   */\n      swap1\n      pop\n        /* \"#utility.yul\":14389:14398   */\n      dup2\n        /* \"#utility.yul\":14383:14387   */\n      dup2\n        /* \"#utility.yul\":14379:14399   */\n      sub\n        /* \"#utility.yul\":14375:14376   */\n      0x00\n        /* \"#utility.yul\":14364:14373   */\n      dup4\n        /* \"#utility.yul\":14360:14377   */\n      add\n        /* \"#utility.yul\":14353:14400   */\n      mstore\n        /* \"#utility.yul\":14417:14548   */\n      tag_516\n        /* \"#utility.yul\":14543:14547   */\n      dup2\n        /* \"#utility.yul\":14417:14548   */\n      tag_336\n      jump\t// in\n    tag_516:\n        /* \"#utility.yul\":14409:14548   */\n      swap1\n      pop\n        /* \"#utility.yul\":14136:14555   */\n      swap2\n      swap1\n      pop\n      jump\t// out\n        /* \"#utility.yul\":14561:14736   */\n    tag_337:\n        /* \"#utility.yul\":14701:14728   */\n      0x43616d706169676e206973206e6f74206163746976652e2e2e00000000000000\n        /* \"#utility.yul\":14697:14698   */\n      0x00\n        /* \"#utility.yul\":14689:14695   */\n      dup3\n        /* \"#utility.yul\":14685:14699   */\n      add\n        /* \"#utility.yul\":14678:14729   */\n      mstore\n        /* \"#utility.yul\":14561:14736   */\n      pop\n      jump\t// out\n        /* \"#utility.yul\":14742:15108   */\n    tag_338:\n        /* \"#utility.yul\":14884:14887   */\n      0x00\n        /* \"#utility.yul\":14905:14972   */\n      tag_519\n        /* \"#utility.yul\":14969:14971   */\n      0x19\n        /* \"#utility.yul\":14964:14967   */\n      dup4\n        /* \"#utility.yul\":14905:14972   */\n      tag_299\n      jump\t// in\n    tag_519:\n        /* \"#utility.yul\":14898:14972   */\n      swap2\n      pop\n        /* \"#utility.yul\":14981:15074   */\n      tag_520\n        /* \"#utility.yul\":15070:15073   */\n      dup3\n        /* \"#utility.yul\":14981:15074   */\n      tag_337\n      jump\t// in\n    tag_520:\n        /* \"#utility.yul\":15099:15101   */\n      0x20\n        /* \"#utility.yul\":15094:15097   */\n      dup3\n        /* \"#utility.yul\":15090:15102   */\n      add\n        /* \"#utility.yul\":15083:15102   */\n      swap1\n      pop\n        /* \"#utility.yul\":14742:15108   */\n      swap2\n      swap1\n      pop\n      jump\t// out\n        /* \"#utility.yul\":15114:15533   */\n    tag_149:\n        /* \"#utility.yul\":15280:15284   */\n      0x00\n        /* \"#utility.yul\":15318:15320   */\n      0x20\n        /* \"#utility.yul\":15307:15316   */\n      dup3\n        /* \"#utility.yul\":15303:15321   */\n      add\n        /* \"#utility.yul\":15295:15321   */\n      swap1\n      pop\n        /* \"#utility.yul\":15367:15376   */\n      dup2\n        /* \"#utility.yul\":15361:15365   */\n      dup2\n        /* \"#utility.yul\":15357:15377   */\n      sub\n        /* \"#utility.yul\":15353:15354   */\n      0x00\n        /* \"#utility.yul\":15342:15351   */\n      dup4\n        /* \"#utility.yul\":15338:15355   */\n      add\n        /* \"#utility.yul\":15331:15378   */\n      mstore\n        /* \"#utility.yul\":15395:15526   */\n      tag_522\n        /* \"#utility.yul\":15521:15525   */\n      dup2\n        /* \"#utility.yul\":15395:15526   */\n      tag_338\n      jump\t// in\n    tag_522:\n        /* \"#utility.yul\":15387:15526   */\n      swap1\n      pop\n        /* \"#utility.yul\":15114:15533   */\n      swap2\n      swap1\n      pop\n      jump\t// out\n        /* \"#utility.yul\":15539:15719   */\n    tag_339:\n        /* \"#utility.yul\":15587:15664   */\n      0x4e487b7100000000000000000000000000000000000000000000000000000000\n        /* \"#utility.yul\":15584:15585   */\n      0x00\n        /* \"#utility.yul\":15577:15665   */\n      mstore\n        /* \"#utility.yul\":15684:15688   */\n      0x11\n        /* \"#utility.yul\":15681:15682   */\n      0x04\n        /* \"#utility.yul\":15674:15689   */\n      mstore\n        /* \"#utility.yul\":15708:15712   */\n      0x24\n        /* \"#utility.yul\":15705:15706   */\n      0x00\n        /* \"#utility.yul\":15698:15713   */\n      revert\n        /* \"#utility.yul\":15725:16135   */\n    tag_152:\n        /* \"#utility.yul\":15765:15772   */\n      0x00\n        /* \"#utility.yul\":15788:15808   */\n      tag_525\n        /* \"#utility.yul\":15806:15807   */\n      dup3\n        /* \"#utility.yul\":15788:15808   */\n      tag_295\n      jump\t// in\n    tag_525:\n        /* \"#utility.yul\":15783:15808   */\n      swap2\n      pop\n        /* \"#utility.yul\":15822:15842   */\n      tag_526\n        /* \"#utility.yul\":15840:15841   */\n      dup4\n        /* \"#utility.yul\":15822:15842   */\n      tag_295\n      jump\t// in\n    tag_526:\n        /* \"#utility.yul\":15817:15842   */\n      swap3\n      pop\n        /* \"#utility.yul\":15877:15878   */\n      dup3\n        /* \"#utility.yul\":15874:15875   */\n      dup3\n        /* \"#utility.yul\":15870:15879   */\n      mul\n        /* \"#utility.yul\":15899:15929   */\n      tag_527\n        /* \"#utility.yul\":15917:15928   */\n      dup2\n        /* \"#utility.yul\":15899:15929   */\n      tag_295\n      jump\t// in\n    tag_527:\n        /* \"#utility.yul\":15888:15929   */\n      swap2\n      pop\n        /* \"#utility.yul\":16078:16079   */\n      dup3\n        /* \"#utility.yul\":16069:16076   */\n      dup3\n        /* \"#utility.yul\":16065:16080   */\n      div\n        /* \"#utility.yul\":16062:16063   */\n      dup5\n        /* \"#utility.yul\":16059:16081   */\n      eq\n        /* \"#utility.yul\":16039:16040   */\n      dup4\n        /* \"#utility.yul\":16032:16041   */\n      iszero\n        /* \"#utility.yul\":16012:16095   */\n      or\n        /* \"#utility.yul\":15989:16128   */\n      tag_528\n      jumpi\n        /* \"#utility.yul\":16108:16126   */\n      tag_529\n      tag_339\n      jump\t// in\n    tag_529:\n        /* \"#utility.yul\":15989:16128   */\n    tag_528:\n        /* \"#utility.yul\":15773:16135   */\n      pop\n        /* \"#utility.yul\":15725:16135   */\n      swap3\n      swap2\n      pop\n      pop\n      jump\t// out\n        /* \"#utility.yul\":16141:16332   */\n    tag_154:\n        /* \"#utility.yul\":16181:16184   */\n      0x00\n        /* \"#utility.yul\":16200:16220   */\n      tag_531\n        /* \"#utility.yul\":16218:16219   */\n      dup3\n        /* \"#utility.yul\":16200:16220   */\n      tag_295\n      jump\t// in\n    tag_531:\n        /* \"#utility.yul\":16195:16220   */\n      swap2\n      pop\n        /* \"#utility.yul\":16234:16254   */\n      tag_532\n        /* \"#utility.yul\":16252:16253   */\n      dup4\n        /* \"#utility.yul\":16234:16254   */\n      tag_295\n      jump\t// in\n    tag_532:\n        /* \"#utility.yul\":16229:16254   */\n      swap3\n      pop\n        /* \"#utility.yul\":16277:16278   */\n      dup3\n        /* \"#utility.yul\":16274:16275   */\n      dup3\n        /* \"#utility.yul\":16270:16279   */\n      add\n        /* \"#utility.yul\":16263:16279   */\n      swap1\n      pop\n        /* \"#utility.yul\":16298:16301   */\n      dup1\n        /* \"#utility.yul\":16295:16296   */\n      dup3\n        /* \"#utility.yul\":16292:16302   */\n      gt\n        /* \"#utility.yul\":16289:16325   */\n      iszero\n      tag_533\n      jumpi\n        /* \"#utility.yul\":16305:16323   */\n      tag_534\n      tag_339\n      jump\t// in\n    tag_534:\n        /* \"#utility.yul\":16289:16325   */\n    tag_533:\n        /* \"#utility.yul\":16141:16332   */\n      swap3\n      swap2\n      pop\n      pop\n      jump\t// out\n        /* \"#utility.yul\":16338:16517   */\n    tag_340:\n        /* \"#utility.yul\":16478:16509   */\n      0x43616d706169676e206973206e6f74207375636365737366756c2e2e2e000000\n        /* \"#utility.yul\":16474:16475   */\n      0x00\n        /* \"#utility.yul\":16466:16472   */\n      dup3\n        /* \"#utility.yul\":16462:16476   */\n      add\n        /* \"#utility.yul\":16455:16510   */\n      mstore\n        /* \"#utility.yul\":16338:16517   */\n      pop\n      jump\t// out\n        /* \"#utility.yul\":16523:16889   */\n    tag_341:\n        /* \"#utility.yul\":16665:16668   */\n      0x00\n        /* \"#utility.yul\":16686:16753   */\n      tag_537\n        /* \"#utility.yul\":16750:16752   */\n      0x1d\n        /* \"#utility.yul\":16745:16748   */\n      dup4\n        /* \"#utility.yul\":16686:16753   */\n      tag_299\n      jump\t// in\n    tag_537:\n        /* \"#utility.yul\":16679:16753   */\n      swap2\n      pop\n        /* \"#utility.yul\":16762:16855   */\n      tag_538\n        /* \"#utility.yul\":16851:16854   */\n      dup3\n        /* \"#utility.yul\":16762:16855   */\n      tag_340\n      jump\t// in\n    tag_538:\n        /* \"#utility.yul\":16880:16882   */\n      0x20\n        /* \"#utility.yul\":16875:16878   */\n      dup3\n        /* \"#utility.yul\":16871:16883   */\n      add\n        /* \"#utility.yul\":16864:16883   */\n      swap1\n      pop\n        /* \"#utility.yul\":16523:16889   */\n      swap2\n      swap1\n      pop\n      jump\t// out\n        /* \"#utility.yul\":16895:17314   */\n    tag_167:\n        /* \"#utility.yul\":17061:17065   */\n      0x00\n        /* \"#utility.yul\":17099:17101   */\n      0x20\n        /* \"#utility.yul\":17088:17097   */\n      dup3\n        /* \"#utility.yul\":17084:17102   */\n      add\n        /* \"#utility.yul\":17076:17102   */\n      swap1\n      pop\n        /* \"#utility.yul\":17148:17157   */\n      dup2\n        /* \"#utility.yul\":17142:17146   */\n      dup2\n        /* \"#utility.yul\":17138:17158   */\n      sub\n        /* \"#utility.yul\":17134:17135   */\n      0x00\n        /* \"#utility.yul\":17123:17132   */\n      dup4\n        /* \"#utility.yul\":17119:17136   */\n      add\n        /* \"#utility.yul\":17112:17159   */\n      mstore\n        /* \"#utility.yul\":17176:17307   */\n      tag_540\n        /* \"#utility.yul\":17302:17306   */\n      dup2\n        /* \"#utility.yul\":17176:17307   */\n      tag_341\n      jump\t// in\n    tag_540:\n        /* \"#utility.yul\":17168:17307   */\n      swap1\n      pop\n        /* \"#utility.yul\":16895:17314   */\n      swap2\n      swap1\n      pop\n      jump\t// out\n        /* \"#utility.yul\":17320:17493   */\n    tag_342:\n        /* \"#utility.yul\":17460:17485   */\n      0x5468652062616c616e6365206973207a65726f2e2e2e2e000000000000000000\n        /* \"#utility.yul\":17456:17457   */\n      0x00\n        /* \"#utility.yul\":17448:17454   */\n      dup3\n        /* \"#utility.yul\":17444:17458   */\n      add\n        /* \"#utility.yul\":17437:17486   */\n      mstore\n        /* \"#utility.yul\":17320:17493   */\n      pop\n      jump\t// out\n        /* \"#utility.yul\":17499:17865   */\n    tag_343:\n        /* \"#utility.yul\":17641:17644   */\n      0x00\n        /* \"#utility.yul\":17662:17729   */\n      tag_543\n        /* \"#utility.yul\":17726:17728   */\n      0x17\n        /* \"#utility.yul\":17721:17724   */\n      dup4\n        /* \"#utility.yul\":17662:17729   */\n      tag_299\n      jump\t// in\n    tag_543:\n        /* \"#utility.yul\":17655:17729   */\n      swap2\n      pop\n        /* \"#utility.yul\":17738:17831   */\n      tag_544\n        /* \"#utility.yul\":17827:17830   */\n      dup3\n        /* \"#utility.yul\":17738:17831   */\n      tag_342\n      jump\t// in\n    tag_544:\n        /* \"#utility.yul\":17856:17858   */\n      0x20\n        /* \"#utility.yul\":17851:17854   */\n      dup3\n        /* \"#utility.yul\":17847:17859   */\n      add\n        /* \"#utility.yul\":17840:17859   */\n      swap1\n      pop\n        /* \"#utility.yul\":17499:17865   */\n      swap2\n      swap1\n      pop\n      jump\t// out\n        /* \"#utility.yul\":17871:18290   */\n    tag_170:\n        /* \"#utility.yul\":18037:18041   */\n      0x00\n        /* \"#utility.yul\":18075:18077   */\n      0x20\n        /* \"#utility.yul\":18064:18073   */\n      dup3\n        /* \"#utility.yul\":18060:18078   */\n      add\n        /* \"#utility.yul\":18052:18078   */\n      swap1\n      pop\n        /* \"#utility.yul\":18124:18133   */\n      dup2\n        /* \"#utility.yul\":18118:18122   */\n      dup2\n        /* \"#utility.yul\":18114:18134   */\n      sub\n        /* \"#utility.yul\":18110:18111   */\n      0x00\n        /* \"#utility.yul\":18099:18108   */\n      dup4\n        /* \"#utility.yul\":18095:18112   */\n      add\n        /* \"#utility.yul\":18088:18135   */\n      mstore\n        /* \"#utility.yul\":18152:18283   */\n      tag_546\n        /* \"#utility.yul\":18278:18282   */\n      dup2\n        /* \"#utility.yul\":18152:18283   */\n      tag_343\n      jump\t// in\n    tag_546:\n        /* \"#utility.yul\":18144:18283   */\n      swap1\n      pop\n        /* \"#utility.yul\":17871:18290   */\n      swap2\n      swap1\n      pop\n      jump\t// out\n        /* \"#utility.yul\":18296:18468   */\n    tag_344:\n        /* \"#utility.yul\":18436:18460   */\n      0x526566756e6473206e6f7420617661696c61626c652e00000000000000000000\n        /* \"#utility.yul\":18432:18433   */\n      0x00\n        /* \"#utility.yul\":18424:18430   */\n      dup3\n        /* \"#utility.yul\":18420:18434   */\n      add\n        /* \"#utility.yul\":18413:18461   */\n      mstore\n        /* \"#utility.yul\":18296:18468   */\n      pop\n      jump\t// out\n        /* \"#utility.yul\":18474:18840   */\n    tag_345:\n        /* \"#utility.yul\":18616:18619   */\n      0x00\n        /* \"#utility.yul\":18637:18704   */\n      tag_549\n        /* \"#utility.yul\":18701:18703   */\n      0x16\n        /* \"#utility.yul\":18696:18699   */\n      dup4\n        /* \"#utility.yul\":18637:18704   */\n      tag_299\n      jump\t// in\n    tag_549:\n        /* \"#utility.yul\":18630:18704   */\n      swap2\n      pop\n        /* \"#utility.yul\":18713:18806   */\n      tag_550\n        /* \"#utility.yul\":18802:18805   */\n      dup3\n        /* \"#utility.yul\":18713:18806   */\n      tag_344\n      jump\t// in\n    tag_550:\n        /* \"#utility.yul\":18831:18833   */\n      0x20\n        /* \"#utility.yul\":18826:18829   */\n      dup3\n        /* \"#utility.yul\":18822:18834   */\n      add\n        /* \"#utility.yul\":18815:18834   */\n      swap1\n      pop\n        /* \"#utility.yul\":18474:18840   */\n      swap2\n      swap1\n      pop\n      jump\t// out\n        /* \"#utility.yul\":18846:19265   */\n    tag_181:\n        /* \"#utility.yul\":19012:19016   */\n      0x00\n        /* \"#utility.yul\":19050:19052   */\n      0x20\n        /* \"#utility.yul\":19039:19048   */\n      dup3\n        /* \"#utility.yul\":19035:19053   */\n      add\n        /* \"#utility.yul\":19027:19053   */\n      swap1\n      pop\n        /* \"#utility.yul\":19099:19108   */\n      dup2\n        /* \"#utility.yul\":19093:19097   */\n      dup2\n        /* \"#utility.yul\":19089:19109   */\n      sub\n        /* \"#utility.yul\":19085:19086   */\n      0x00\n        /* \"#utility.yul\":19074:19083   */\n      dup4\n        /* \"#utility.yul\":19070:19087   */\n      add\n        /* \"#utility.yul\":19063:19110   */\n      mstore\n        /* \"#utility.yul\":19127:19258   */\n      tag_552\n        /* \"#utility.yul\":19253:19257   */\n      dup2\n        /* \"#utility.yul\":19127:19258   */\n      tag_345\n      jump\t// in\n    tag_552:\n        /* \"#utility.yul\":19119:19258   */\n      swap1\n      pop\n        /* \"#utility.yul\":18846:19265   */\n      swap2\n      swap1\n      pop\n      jump\t// out\n        /* \"#utility.yul\":19271:19446   */\n    tag_346:\n        /* \"#utility.yul\":19411:19438   */\n      0x4e6f20636f6e747269627574696f6e20746f20726566756e6400000000000000\n        /* \"#utility.yul\":19407:19408   */\n      0x00\n        /* \"#utility.yul\":19399:19405   */\n      dup3\n        /* \"#utility.yul\":19395:19409   */\n      add\n        /* \"#utility.yul\":19388:19439   */\n      mstore\n        /* \"#utility.yul\":19271:19446   */\n      pop\n      jump\t// out\n        /* \"#utility.yul\":19452:19818   */\n    tag_347:\n        /* \"#utility.yul\":19594:19597   */\n      0x00\n        /* \"#utility.yul\":19615:19682   */\n      tag_555\n        /* \"#utility.yul\":19679:19681   */\n      0x19\n        /* \"#utility.yul\":19674:19677   */\n      dup4\n        /* \"#utility.yul\":19615:19682   */\n      tag_299\n      jump\t// in\n    tag_555:\n        /* \"#utility.yul\":19608:19682   */\n      swap2\n      pop\n        /* \"#utility.yul\":19691:19784   */\n      tag_556\n        /* \"#utility.yul\":19780:19783   */\n      dup3\n        /* \"#utility.yul\":19691:19784   */\n      tag_346\n      jump\t// in\n    tag_556:\n        /* \"#utility.yul\":19809:19811   */\n      0x20\n        /* \"#utility.yul\":19804:19807   */\n      dup3\n        /* \"#utility.yul\":19800:19812   */\n      add\n        /* \"#utility.yul\":19793:19812   */\n      swap1\n      pop\n        /* \"#utility.yul\":19452:19818   */\n      swap2\n      swap1\n      pop\n      jump\t// out\n        /* \"#utility.yul\":19824:20243   */\n    tag_184:\n        /* \"#utility.yul\":19990:19994   */\n      0x00\n        /* \"#utility.yul\":20028:20030   */\n      0x20\n        /* \"#utility.yul\":20017:20026   */\n      dup3\n        /* \"#utility.yul\":20013:20031   */\n      add\n        /* \"#utility.yul\":20005:20031   */\n      swap1\n      pop\n        /* \"#utility.yul\":20077:20086   */\n      dup2\n        /* \"#utility.yul\":20071:20075   */\n      dup2\n        /* \"#utility.yul\":20067:20087   */\n      sub\n        /* \"#utility.yul\":20063:20064   */\n      0x00\n        /* \"#utility.yul\":20052:20061   */\n      dup4\n        /* \"#utility.yul\":20048:20065   */\n      add\n        /* \"#utility.yul\":20041:20088   */\n      mstore\n        /* \"#utility.yul\":20105:20236   */\n      tag_558\n        /* \"#utility.yul\":20231:20235   */\n      dup2\n        /* \"#utility.yul\":20105:20236   */\n      tag_347\n      jump\t// in\n    tag_558:\n        /* \"#utility.yul\":20097:20236   */\n      swap1\n      pop\n        /* \"#utility.yul\":19824:20243   */\n      swap2\n      swap1\n      pop\n      jump\t// out\n        /* \"#utility.yul\":20249:20420   */\n    tag_348:\n        /* \"#utility.yul\":20389:20412   */\n      0x5469657220646f65736e27742065786973742e2e2e0000000000000000000000\n        /* \"#utility.yul\":20385:20386   */\n      0x00\n        /* \"#utility.yul\":20377:20383   */\n      dup3\n        /* \"#utility.yul\":20373:20387   */\n      add\n        /* \"#utility.yul\":20366:20413   */\n      mstore\n        /* \"#utility.yul\":20249:20420   */\n      pop\n      jump\t// out\n        /* \"#utility.yul\":20426:20792   */\n    tag_349:\n        /* \"#utility.yul\":20568:20571   */\n      0x00\n        /* \"#utility.yul\":20589:20656   */\n      tag_561\n        /* \"#utility.yul\":20653:20655   */\n      0x15\n        /* \"#utility.yul\":20648:20651   */\n      dup4\n        /* \"#utility.yul\":20589:20656   */\n      tag_299\n      jump\t// in\n    tag_561:\n        /* \"#utility.yul\":20582:20656   */\n      swap2\n      pop\n        /* \"#utility.yul\":20665:20758   */\n      tag_562\n        /* \"#utility.yul\":20754:20757   */\n      dup3\n        /* \"#utility.yul\":20665:20758   */\n      tag_348\n      jump\t// in\n    tag_562:\n        /* \"#utility.yul\":20783:20785   */\n      0x20\n        /* \"#utility.yul\":20778:20781   */\n      dup3\n        /* \"#utility.yul\":20774:20786   */\n      add\n        /* \"#utility.yul\":20767:20786   */\n      swap1\n      pop\n        /* \"#utility.yul\":20426:20792   */\n      swap2\n      swap1\n      pop\n      jump\t// out\n        /* \"#utility.yul\":20798:21217   */\n    tag_199:\n        /* \"#utility.yul\":20964:20968   */\n      0x00\n        /* \"#utility.yul\":21002:21004   */\n      0x20\n        /* \"#utility.yul\":20991:21000   */\n      dup3\n        /* \"#utility.yul\":20987:21005   */\n      add\n        /* \"#utility.yul\":20979:21005   */\n      swap1\n      pop\n        /* \"#utility.yul\":21051:21060   */\n      dup2\n        /* \"#utility.yul\":21045:21049   */\n      dup2\n        /* \"#utility.yul\":21041:21061   */\n      sub\n        /* \"#utility.yul\":21037:21038   */\n      0x00\n        /* \"#utility.yul\":21026:21035   */\n      dup4\n        /* \"#utility.yul\":21022:21039   */\n      add\n        /* \"#utility.yul\":21015:21062   */\n      mstore\n        /* \"#utility.yul\":21079:21210   */\n      tag_564\n        /* \"#utility.yul\":21205:21209   */\n      dup2\n        /* \"#utility.yul\":21079:21210   */\n      tag_349\n      jump\t// in\n    tag_564:\n        /* \"#utility.yul\":21071:21210   */\n      swap1\n      pop\n        /* \"#utility.yul\":20798:21217   */\n      swap2\n      swap1\n      pop\n      jump\t// out\n        /* \"#utility.yul\":21223:21417   */\n    tag_201:\n        /* \"#utility.yul\":21263:21267   */\n      0x00\n        /* \"#utility.yul\":21283:21303   */\n      tag_566\n        /* \"#utility.yul\":21301:21302   */\n      dup3\n        /* \"#utility.yul\":21283:21303   */\n      tag_295\n      jump\t// in\n    tag_566:\n        /* \"#utility.yul\":21278:21303   */\n      swap2\n      pop\n        /* \"#utility.yul\":21317:21337   */\n      tag_567\n        /* \"#utility.yul\":21335:21336   */\n      dup4\n        /* \"#utility.yul\":21317:21337   */\n      tag_295\n      jump\t// in\n    tag_567:\n        /* \"#utility.yul\":21312:21337   */\n      swap3\n      pop\n        /* \"#utility.yul\":21361:21362   */\n      dup3\n        /* \"#utility.yul\":21358:21359   */\n      dup3\n        /* \"#utility.yul\":21354:21363   */\n      sub\n        /* \"#utility.yul\":21346:21363   */\n      swap1\n      pop\n        /* \"#utility.yul\":21385:21386   */\n      dup2\n        /* \"#utility.yul\":21379:21383   */\n      dup2\n        /* \"#utility.yul\":21376:21387   */\n      gt\n        /* \"#utility.yul\":21373:21410   */\n      iszero\n      tag_568\n      jumpi\n        /* \"#utility.yul\":21390:21408   */\n      tag_569\n      tag_339\n      jump\t// in\n    tag_569:\n        /* \"#utility.yul\":21373:21410   */\n    tag_568:\n        /* \"#utility.yul\":21223:21417   */\n      swap3\n      swap2\n      pop\n      pop\n      jump\t// out\n        /* \"#utility.yul\":21423:21603   */\n    tag_204:\n        /* \"#utility.yul\":21471:21548   */\n      0x4e487b7100000000000000000000000000000000000000000000000000000000\n        /* \"#utility.yul\":21468:21469   */\n      0x00\n        /* \"#utility.yul\":21461:21549   */\n      mstore\n        /* \"#utility.yul\":21568:21572   */\n      0x32\n        /* \"#utility.yul\":21565:21566   */\n      0x04\n        /* \"#utility.yul\":21558:21573   */\n      mstore\n        /* \"#utility.yul\":21592:21596   */\n      0x24\n        /* \"#utility.yul\":21589:21590   */\n      0x00\n        /* \"#utility.yul\":21582:21597   */\n      revert\n        /* \"#utility.yul\":21609:21758   */\n    tag_350:\n        /* \"#utility.yul\":21658:21664   */\n      0x00\n        /* \"#utility.yul\":21692:21697   */\n      dup2\n        /* \"#utility.yul\":21686:21698   */\n      sload\n        /* \"#utility.yul\":21676:21698   */\n      swap1\n      pop\n        /* \"#utility.yul\":21718:21751   */\n      tag_572\n        /* \"#utility.yul\":21744:21750   */\n      dup2\n        /* \"#utility.yul\":21718:21751   */\n      tag_118\n      jump\t// in\n    tag_572:\n        /* \"#utility.yul\":21708:21751   */\n      swap1\n      pop\n        /* \"#utility.yul\":21609:21758   */\n      swap2\n      swap1\n      pop\n      jump\t// out\n        /* \"#utility.yul\":21764:21905   */\n    tag_351:\n        /* \"#utility.yul\":21813:21817   */\n      0x00\n        /* \"#utility.yul\":21836:21839   */\n      dup2\n        /* \"#utility.yul\":21828:21839   */\n      swap1\n      pop\n        /* \"#utility.yul\":21859:21862   */\n      dup2\n        /* \"#utility.yul\":21856:21857   */\n      0x00\n        /* \"#utility.yul\":21849:21863   */\n      mstore\n        /* \"#utility.yul\":21893:21897   */\n      0x20\n        /* \"#utility.yul\":21890:21891   */\n      0x00\n        /* \"#utility.yul\":21880:21898   */\n      keccak256\n        /* \"#utility.yul\":21872:21898   */\n      swap1\n      pop\n        /* \"#utility.yul\":21764:21905   */\n      swap2\n      swap1\n      pop\n      jump\t// out\n        /* \"#utility.yul\":21911:22004   */\n    tag_352:\n        /* \"#utility.yul\":21948:21954   */\n      0x00\n        /* \"#utility.yul\":21995:21997   */\n      0x20\n        /* \"#utility.yul\":21990:21992   */\n      0x1f\n        /* \"#utility.yul\":21983:21988   */\n      dup4\n        /* \"#utility.yul\":21979:21993   */\n      add\n        /* \"#utility.yul\":21975:21998   */\n      div\n        /* \"#utility.yul\":21965:21998   */\n      swap1\n      pop\n        /* \"#utility.yul\":21911:22004   */\n      swap2\n      swap1\n      pop\n      jump\t// out\n        /* \"#utility.yul\":22010:22117   */\n    tag_353:\n        /* \"#utility.yul\":22054:22062   */\n      0x00\n        /* \"#utility.yul\":22104:22109   */\n      dup3\n        /* \"#utility.yul\":22098:22102   */\n      dup3\n        /* \"#utility.yul\":22094:22110   */\n      shl\n        /* \"#utility.yul\":22073:22110   */\n      swap1\n      pop\n        /* \"#utility.yul\":22010:22117   */\n      swap3\n      swap2\n      pop\n      pop\n      jump\t// out\n        /* \"#utility.yul\":22123:22516   */\n    tag_354:\n        /* \"#utility.yul\":22192:22198   */\n      0x00\n        /* \"#utility.yul\":22242:22243   */\n      0x08\n        /* \"#utility.yul\":22230:22240   */\n      dup4\n        /* \"#utility.yul\":22226:22244   */\n      mul\n        /* \"#utility.yul\":22265:22362   */\n      tag_577\n        /* \"#utility.yul\":22295:22361   */\n      0xffffffffffffffffffffffffffffffffffffffffffffffffffffffffffffffff\n        /* \"#utility.yul\":22284:22293   */\n      dup3\n        /* \"#utility.yul\":22265:22362   */\n      tag_353\n      jump\t// in\n    tag_577:\n        /* \"#utility.yul\":22383:22422   */\n      tag_578\n        /* \"#utility.yul\":22413:22421   */\n      dup7\n        /* \"#utility.yul\":22402:22411   */\n      dup4\n        /* \"#utility.yul\":22383:22422   */\n      tag_353\n      jump\t// in\n    tag_578:\n        /* \"#utility.yul\":22371:22422   */\n      swap6\n      pop\n        /* \"#utility.yul\":22455:22459   */\n      dup1\n        /* \"#utility.yul\":22451:22460   */\n      not\n        /* \"#utility.yul\":22444:22449   */\n      dup5\n        /* \"#utility.yul\":22440:22461   */\n      and\n        /* \"#utility.yul\":22431:22461   */\n      swap4\n      pop\n        /* \"#utility.yul\":22504:22508   */\n      dup1\n        /* \"#utility.yul\":22494:22502   */\n      dup7\n        /* \"#utility.yul\":22490:22509   */\n      and\n        /* \"#utility.yul\":22483:22488   */\n      dup5\n        /* \"#utility.yul\":22480:22510   */\n      or\n        /* \"#utility.yul\":22470:22510   */\n      swap3\n      pop\n        /* \"#utility.yul\":22199:22516   */\n      pop\n      pop\n        /* \"#utility.yul\":22123:22516   */\n      swap4\n      swap3\n      pop\n      pop\n      pop\n      jump\t// out\n        /* \"#utility.yul\":22522:22582   */\n    tag_355:\n        /* \"#utility.yul\":22550:22553   */\n      0x00\n        /* \"#utility.yul\":22571:22576   */\n      dup2\n        /* \"#utility.yul\":22564:22576   */\n      swap1\n      pop\n        /* \"#utility.yul\":22522:22582   */\n      swap2\n      swap1\n      pop\n      jump\t// out\n        /* \"#utility.yul\":22588:22730   */\n    tag_356:\n        /* \"#utility.yul\":22638:22647   */\n      0x00\n        /* \"#utility.yul\":22671:22724   */\n      tag_581\n        /* \"#utility.yul\":22689:22723   */\n      tag_582\n        /* \"#utility.yul\":22698:22722   */\n      tag_583\n        /* \"#utility.yul\":22716:22721   */\n      dup5\n        /* \"#utility.yul\":22698:22722   */\n      tag_295\n      jump\t// in\n    tag_583:\n        /* \"#utility.yul\":22689:22723   */\n      tag_355\n      jump\t// in\n    tag_582:\n        /* \"#utility.yul\":22671:22724   */\n      tag_295\n      jump\t// in\n    tag_581:\n        /* \"#utility.yul\":22658:22724   */\n      swap1\n      pop\n        /* \"#utility.yul\":22588:22730   */\n      swap2\n      swap1\n      pop\n      jump\t// out\n        /* \"#utility.yul\":22736:22811   */\n    tag_357:\n        /* \"#utility.yul\":22779:22782   */\n      0x00\n        /* \"#utility.yul\":22800:22805   */\n      dup2\n        /* \"#utility.yul\":22793:22805   */\n      swap1\n      pop\n        /* \"#utility.yul\":22736:22811   */\n      swap2\n      swap1\n      pop\n      jump\t// out\n        /* \"#utility.yul\":22817:23086   */\n    tag_358:\n        /* \"#utility.yul\":22927:22966   */\n      tag_586\n        /* \"#utility.yul\":22958:22965   */\n      dup4\n        /* \"#utility.yul\":22927:22966   */\n      tag_356\n      jump\t// in\n    tag_586:\n        /* \"#utility.yul\":22988:23079   */\n      tag_587\n        /* \"#utility.yul\":23037:23078   */\n      tag_588\n        /* \"#utility.yul\":23061:23077   */\n      dup3\n        /* \"#utility.yul\":23037:23078   */\n      tag_357\n      jump\t// in\n    tag_588:\n        /* \"#utility.yul\":23029:23035   */\n      dup5\n        /* \"#utility.yul\":23022:23026   */\n      dup5\n        /* \"#utility.yul\":23016:23027   */\n      sload\n        /* \"#utility.yul\":22988:23079   */\n      tag_354\n      jump\t// in\n    tag_587:\n        /* \"#utility.yul\":22982:22986   */\n      dup3\n        /* \"#utility.yul\":22975:23080   */\n      sstore\n        /* \"#utility.yul\":22893:23086   */\n      pop\n        /* \"#utility.yul\":22817:23086   */\n      pop\n      pop\n      pop\n      jump\t// out\n        /* \"#utility.yul\":23092:23165   */\n    tag_359:\n        /* \"#utility.yul\":23137:23140   */\n      0x00\n        /* \"#utility.yul\":23092:23165   */\n      swap1\n      jump\t// out\n        /* \"#utility.yul\":23171:23360   */\n    tag_360:\n        /* \"#utility.yul\":23248:23280   */\n      tag_591\n      tag_359\n      jump\t// in\n    tag_591:\n        /* \"#utility.yul\":23289:23354   */\n      tag_592\n        /* \"#utility.yul\":23347:23353   */\n      dup2\n        /* \"#utility.yul\":23339:23345   */\n      dup5\n        /* \"#utility.yul\":23333:23337   */\n      dup5\n        /* \"#utility.yul\":23289:23354   */\n      tag_358\n      jump\t// in\n    tag_592:\n        /* \"#utility.yul\":23224:23360   */\n      pop\n        /* \"#utility.yul\":23171:23360   */\n      pop\n      pop\n      jump\t// out\n        /* \"#utility.yul\":23366:23552   */\n    tag_361:\n        /* \"#utility.yul\":23426:23546   */\n    tag_594:\n        /* \"#utility.yul\":23443:23446   */\n      dup2\n        /* \"#utility.yul\":23436:23441   */\n      dup2\n        /* \"#utility.yul\":23433:23447   */\n      lt\n        /* \"#utility.yul\":23426:23546   */\n      iszero\n      tag_596\n      jumpi\n        /* \"#utility.yul\":23497:23536   */\n      tag_597\n        /* \"#utility.yul\":23534:23535   */\n      0x00\n        /* \"#utility.yul\":23527:23532   */\n      dup3\n        /* \"#utility.yul\":23497:23536   */\n      tag_360\n      jump\t// in\n    tag_597:\n        /* \"#utility.yul\":23470:23471   */\n      0x01\n        /* \"#utility.yul\":23463:23468   */\n      dup2\n        /* \"#utility.yul\":23459:23472   */\n      add\n        /* \"#utility.yul\":23450:23472   */\n      swap1\n      pop\n        /* \"#utility.yul\":23426:23546   */\n      jump(tag_594)\n    tag_596:\n        /* \"#utility.yul\":23366:23552   */\n      pop\n      pop\n      jump\t// out\n        /* \"#utility.yul\":23558:24101   */\n    tag_362:\n        /* \"#utility.yul\":23659:23661   */\n      0x1f\n        /* \"#utility.yul\":23654:23657   */\n      dup3\n        /* \"#utility.yul\":23651:23662   */\n      gt\n        /* \"#utility.yul\":23648:24094   */\n      iszero\n      tag_599\n      jumpi\n        /* \"#utility.yul\":23693:23731   */\n      tag_600\n        /* \"#utility.yul\":23725:23730   */\n      dup2\n        /* \"#utility.yul\":23693:23731   */\n      tag_351\n      jump\t// in\n    tag_600:\n        /* \"#utility.yul\":23777:23806   */\n      tag_601\n        /* \"#utility.yul\":23795:23805   */\n      dup5\n        /* \"#utility.yul\":23777:23806   */\n      tag_352\n      jump\t// in\n    tag_601:\n        /* \"#utility.yul\":23767:23775   */\n      dup2\n        /* \"#utility.yul\":23763:23807   */\n      add\n        /* \"#utility.yul\":23960:23962   */\n      0x20\n        /* \"#utility.yul\":23948:23958   */\n      dup6\n        /* \"#utility.yul\":23945:23963   */\n      lt\n        /* \"#utility.yul\":23942:23991   */\n      iszero\n      tag_602\n      jumpi\n        /* \"#utility.yul\":23981:23989   */\n      dup2\n        /* \"#utility.yul\":23966:23989   */\n      swap1\n      pop\n        /* \"#utility.yul\":23942:23991   */\n    tag_602:\n        /* \"#utility.yul\":24004:24084   */\n      tag_603\n        /* \"#utility.yul\":24060:24082   */\n      tag_604\n        /* \"#utility.yul\":24078:24081   */\n      dup6\n        /* \"#utility.yul\":24060:24082   */\n      tag_352\n      jump\t// in\n    tag_604:\n        /* \"#utility.yul\":24050:24058   */\n      dup4\n        /* \"#utility.yul\":24046:24083   */\n      add\n        /* \"#utility.yul\":24033:24044   */\n      dup3\n        /* \"#utility.yul\":24004:24084   */\n      tag_361\n      jump\t// in\n    tag_603:\n        /* \"#utility.yul\":23663:24094   */\n      pop\n      pop\n        /* \"#utility.yul\":23648:24094   */\n    tag_599:\n        /* \"#utility.yul\":23558:24101   */\n      pop\n      pop\n      pop\n      jump\t// out\n        /* \"#utility.yul\":24107:24224   */\n    tag_363:\n        /* \"#utility.yul\":24161:24169   */\n      0x00\n        /* \"#utility.yul\":24211:24216   */\n      dup3\n        /* \"#utility.yul\":24205:24209   */\n      dup3\n        /* \"#utility.yul\":24201:24217   */\n      shr\n        /* \"#utility.yul\":24180:24217   */\n      swap1\n      pop\n        /* \"#utility.yul\":24107:24224   */\n      swap3\n      swap2\n      pop\n      pop\n      jump\t// out\n        /* \"#utility.yul\":24230:24399   */\n    tag_364:\n        /* \"#utility.yul\":24274:24280   */\n      0x00\n        /* \"#utility.yul\":24307:24358   */\n      tag_607\n        /* \"#utility.yul\":24355:24356   */\n      0x00\n        /* \"#utility.yul\":24351:24357   */\n      not\n        /* \"#utility.yul\":24343:24348   */\n      dup5\n        /* \"#utility.yul\":24340:24341   */\n      0x08\n        /* \"#utility.yul\":24336:24349   */\n      mul\n        /* \"#utility.yul\":24307:24358   */\n      tag_363\n      jump\t// in\n    tag_607:\n        /* \"#utility.yul\":24303:24359   */\n      not\n        /* \"#utility.yul\":24388:24392   */\n      dup1\n        /* \"#utility.yul\":24382:24386   */\n      dup4\n        /* \"#utility.yul\":24378:24393   */\n      and\n        /* \"#utility.yul\":24368:24393   */\n      swap2\n      pop\n        /* \"#utility.yul\":24281:24399   */\n      pop\n        /* \"#utility.yul\":24230:24399   */\n      swap3\n      swap2\n      pop\n      pop\n      jump\t// out\n        /* \"#utility.yul\":24404:24699   */\n    tag_365:\n        /* \"#utility.yul\":24480:24484   */\n      0x00\n        /* \"#utility.yul\":24626:24655   */\n      tag_609\n        /* \"#utility.yul\":24651:24654   */\n      dup4\n        /* \"#utility.yul\":24645:24649   */\n      dup4\n        /* \"#utility.yul\":24626:24655   */\n      tag_364\n      jump\t// in\n    tag_609:\n        /* \"#utility.yul\":24618:24655   */\n      swap2\n      pop\n        /* \"#utility.yul\":24688:24691   */\n      dup3\n        /* \"#utility.yul\":24685:24686   */\n      0x02\n        /* \"#utility.yul\":24681:24692   */\n      mul\n        /* \"#utility.yul\":24675:24679   */\n      dup3\n        /* \"#utility.yul\":24672:24693   */\n      or\n        /* \"#utility.yul\":24664:24693   */\n      swap1\n      pop\n        /* \"#utility.yul\":24404:24699   */\n      swap3\n      swap2\n      pop\n      pop\n      jump\t// out\n        /* \"#utility.yul\":24704:26155   */\n    tag_210:\n        /* \"#utility.yul\":24815:24818   */\n      dup2\n        /* \"#utility.yul\":24809:24813   */\n      dup2\n        /* \"#utility.yul\":24806:24819   */\n      sub\n        /* \"#utility.yul\":24803:24829   */\n      tag_611\n      jumpi\n        /* \"#utility.yul\":24822:24827   */\n      pop\n      pop\n      jump(tag_610)\n        /* \"#utility.yul\":24803:24829   */\n    tag_611:\n        /* \"#utility.yul\":24853:24887   */\n      tag_612\n        /* \"#utility.yul\":24883:24886   */\n      dup3\n        /* \"#utility.yul\":24853:24887   */\n      tag_350\n      jump\t// in\n    tag_612:\n        /* \"#utility.yul\":24952:24970   */\n      0xffffffffffffffff\n        /* \"#utility.yul\":24944:24950   */\n      dup2\n        /* \"#utility.yul\":24941:24971   */\n      gt\n        /* \"#utility.yul\":24938:24994   */\n      iszero\n      tag_613\n      jumpi\n        /* \"#utility.yul\":24974:24992   */\n      tag_614\n      tag_317\n      jump\t// in\n    tag_614:\n        /* \"#utility.yul\":24938:24994   */\n    tag_613:\n        /* \"#utility.yul\":25018:25056   */\n      tag_615\n        /* \"#utility.yul\":25050:25054   */\n      dup3\n        /* \"#utility.yul\":25044:25055   */\n      sload\n        /* \"#utility.yul\":25018:25056   */\n      tag_118\n      jump\t// in\n    tag_615:\n        /* \"#utility.yul\":25103:25170   */\n      tag_616\n        /* \"#utility.yul\":25163:25169   */\n      dup3\n        /* \"#utility.yul\":25155:25161   */\n      dup3\n        /* \"#utility.yul\":25149:25153   */\n      dup6\n        /* \"#utility.yul\":25103:25170   */\n      tag_362\n      jump\t// in\n    tag_616:\n        /* \"#utility.yul\":25197:25198   */\n      0x00\n        /* \"#utility.yul\":25226:25228   */\n      0x1f\n        /* \"#utility.yul\":25218:25224   */\n      dup4\n        /* \"#utility.yul\":25215:25229   */\n      gt\n        /* \"#utility.yul\":25243:25244   */\n      0x01\n        /* \"#utility.yul\":25238:25910   */\n      dup2\n      eq\n      tag_618\n      jumpi\n        /* \"#utility.yul\":25954:25955   */\n      0x00\n        /* \"#utility.yul\":25971:25977   */\n      dup5\n        /* \"#utility.yul\":25968:26045   */\n      iszero\n      tag_619\n      jumpi\n        /* \"#utility.yul\":26020:26029   */\n      dup3\n        /* \"#utility.yul\":26015:26018   */\n      dup8\n        /* \"#utility.yul\":26011:26030   */\n      add\n        /* \"#utility.yul\":26005:26031   */\n      sload\n        /* \"#utility.yul\":25996:26031   */\n      swap1\n      pop\n        /* \"#utility.yul\":25968:26045   */\n    tag_619:\n        /* \"#utility.yul\":26071:26138   */\n      tag_620\n        /* \"#utility.yul\":26131:26137   */\n      dup6\n        /* \"#utility.yul\":26124:26129   */\n      dup3\n        /* \"#utility.yul\":26071:26138   */\n      tag_365\n      jump\t// in\n    tag_620:\n        /* \"#utility.yul\":26065:26069   */\n      dup7\n        /* \"#utility.yul\":26058:26139   */\n      sstore\n        /* \"#utility.yul\":25927:26149   */\n      pop\n        /* \"#utility.yul\":25208:26149   */\n      jump(tag_617)\n        /* \"#utility.yul\":25238:25910   */\n    tag_618:\n        /* \"#utility.yul\":25290:25294   */\n      0x1f\n        /* \"#utility.yul\":25286:25295   */\n      not\n        /* \"#utility.yul\":25278:25284   */\n      dup5\n        /* \"#utility.yul\":25274:25296   */\n      and\n        /* \"#utility.yul\":25316:25352   */\n      tag_621\n        /* \"#utility.yul\":25348:25351   */\n      dup8\n        /* \"#utility.yul\":25316:25352   */\n      tag_351\n      jump\t// in\n    tag_621:\n        /* \"#utility.yul\":25309:25352   */\n      swap7\n      pop\n        /* \"#utility.yul\":25379:25416   */\n      tag_622\n        /* \"#utility.yul\":25411:25415   */\n      dup7\n        /* \"#utility.yul\":25379:25416   */\n      tag_351\n      jump\t// in\n    tag_622:\n        /* \"#utility.yul\":25438:25439   */\n      0x00\n        /* \"#utility.yul\":25452:25659   */\n    tag_623:\n        /* \"#utility.yul\":25466:25473   */\n      dup3\n        /* \"#utility.yul\":25463:25464   */\n      dup2\n        /* \"#utility.yul\":25460:25474   */\n      lt\n        /* \"#utility.yul\":25452:25659   */\n      iszero\n      tag_625\n      jumpi\n        /* \"#utility.yul\":25545:25554   */\n      dup5\n        /* \"#utility.yul\":25540:25543   */\n      dup10\n        /* \"#utility.yul\":25536:25555   */\n      add\n        /* \"#utility.yul\":25530:25556   */\n      sload\n        /* \"#utility.yul\":25522:25528   */\n      dup3\n        /* \"#utility.yul\":25515:25557   */\n      sstore\n        /* \"#utility.yul\":25596:25597   */\n      0x01\n        /* \"#utility.yul\":25588:25594   */\n      dup3\n        /* \"#utility.yul\":25584:25598   */\n      add\n        /* \"#utility.yul\":25574:25598   */\n      swap2\n      pop\n        /* \"#utility.yul\":25643:25644   */\n      0x01\n        /* \"#utility.yul\":25632:25641   */\n      dup6\n        /* \"#utility.yul\":25628:25645   */\n      add\n        /* \"#utility.yul\":25615:25645   */\n      swap5\n      pop\n        /* \"#utility.yul\":25489:25493   */\n      0x20\n        /* \"#utility.yul\":25486:25487   */\n      dup2\n        /* \"#utility.yul\":25482:25494   */\n      add\n        /* \"#utility.yul\":25477:25494   */\n      swap1\n      pop\n        /* \"#utility.yul\":25452:25659   */\n      jump(tag_623)\n    tag_625:\n        /* \"#utility.yul\":25687:25693   */\n      dup7\n        /* \"#utility.yul\":25678:25685   */\n      dup4\n        /* \"#utility.yul\":25675:25694   */\n      lt\n        /* \"#utility.yul\":25672:25851   */\n      iszero\n      tag_626\n      jumpi\n        /* \"#utility.yul\":25745:25754   */\n      dup5\n        /* \"#utility.yul\":25740:25743   */\n      dup10\n        /* \"#utility.yul\":25736:25755   */\n      add\n        /* \"#utility.yul\":25730:25756   */\n      sload\n        /* \"#utility.yul\":25788:25836   */\n      tag_627\n        /* \"#utility.yul\":25830:25834   */\n      0x1f\n        /* \"#utility.yul\":25822:25828   */\n      dup10\n        /* \"#utility.yul\":25818:25835   */\n      and\n        /* \"#utility.yul\":25807:25816   */\n      dup3\n        /* \"#utility.yul\":25788:25836   */\n      tag_364\n      jump\t// in\n    tag_627:\n        /* \"#utility.yul\":25780:25786   */\n      dup4\n        /* \"#utility.yul\":25773:25837   */\n      sstore\n        /* \"#utility.yul\":25695:25851   */\n      pop\n        /* \"#utility.yul\":25672:25851   */\n    tag_626:\n        /* \"#utility.yul\":25897:25898   */\n      0x01\n        /* \"#utility.yul\":25893:25894   */\n      0x02\n        /* \"#utility.yul\":25885:25891   */\n      dup9\n        /* \"#utility.yul\":25881:25895   */\n      mul\n        /* \"#utility.yul\":25877:25899   */\n      add\n        /* \"#utility.yul\":25871:25875   */\n      dup9\n        /* \"#utility.yul\":25864:25900   */\n      sstore\n        /* \"#utility.yul\":25245:25910   */\n      pop\n      pop\n      pop\n        /* \"#utility.yul\":25208:26149   */\n    tag_617:\n      pop\n        /* \"#utility.yul\":24793:26155   */\n      pop\n      pop\n      pop\n        /* \"#utility.yul\":24704:26155   */\n      pop\n      pop\n    tag_610:\n      jump\t// out\n        /* \"#utility.yul\":26161:26341   */\n    tag_213:\n        /* \"#utility.yul\":26209:26286   */\n      0x4e487b7100000000000000000000000000000000000000000000000000000000\n        /* \"#utility.yul\":26206:26207   */\n      0x00\n        /* \"#utility.yul\":26199:26287   */\n      mstore\n        /* \"#utility.yul\":26306:26310   */\n      0x31\n        /* \"#utility.yul\":26303:26304   */\n      0x04\n        /* \"#utility.yul\":26296:26311   */\n      mstore\n        /* \"#utility.yul\":26330:26334   */\n      0x24\n        /* \"#utility.yul\":26327:26328   */\n      0x00\n        /* \"#utility.yul\":26320:26335   */\n      revert\n        /* \"#utility.yul\":26347:26519   */\n    tag_366:\n        /* \"#utility.yul\":26487:26511   */\n      0x5468652062616c616e6365206973207a65726f2e2e2e00000000000000000000\n        /* \"#utility.yul\":26483:26484   */\n      0x00\n        /* \"#utility.yul\":26475:26481   */\n      dup3\n        /* \"#utility.yul\":26471:26485   */\n      add\n        /* \"#utility.yul\":26464:26512   */\n      mstore\n        /* \"#utility.yul\":26347:26519   */\n      pop\n      jump\t// out\n        /* \"#utility.yul\":26525:26891   */\n    tag_367:\n        /* \"#utility.yul\":26667:26670   */\n      0x00\n        /* \"#utility.yul\":26688:26755   */\n      tag_631\n        /* \"#utility.yul\":26752:26754   */\n      0x16\n        /* \"#utility.yul\":26747:26750   */\n      dup4\n        /* \"#utility.yul\":26688:26755   */\n      tag_299\n      jump\t// in\n    tag_631:\n        /* \"#utility.yul\":26681:26755   */\n      swap2\n      pop\n        /* \"#utility.yul\":26764:26857   */\n      tag_632\n        /* \"#utility.yul\":26853:26856   */\n      dup3\n        /* \"#utility.yul\":26764:26857   */\n      tag_366\n      jump\t// in\n    tag_632:\n        /* \"#utility.yul\":26882:26884   */\n      0x20\n        /* \"#utility.yul\":26877:26880   */\n      dup3\n        /* \"#utility.yul\":26873:26885   */\n      add\n        /* \"#utility.yul\":26866:26885   */\n      swap1\n      pop\n        /* \"#utility.yul\":26525:26891   */\n      swap2\n      swap1\n      pop\n      jump\t// out\n        /* \"#utility.yul\":26897:27316   */\n    tag_224:\n        /* \"#utility.yul\":27063:27067   */\n      0x00\n        /* \"#utility.yul\":27101:27103   */\n      0x20\n        /* \"#utility.yul\":27090:27099   */\n      dup3\n        /* \"#utility.yul\":27086:27104   */\n      add\n        /* \"#utility.yul\":27078:27104   */\n      swap1\n      pop\n        /* \"#utility.yul\":27150:27159   */\n      dup2\n        /* \"#utility.yul\":27144:27148   */\n      dup2\n        /* \"#utility.yul\":27140:27160   */\n      sub\n        /* \"#utility.yul\":27136:27137   */\n      0x00\n        /* \"#utility.yul\":27125:27134   */\n      dup4\n        /* \"#utility.yul\":27121:27138   */\n      add\n        /* \"#utility.yul\":27114:27161   */\n      mstore\n        /* \"#utility.yul\":27178:27309   */\n      tag_634\n        /* \"#utility.yul\":27304:27308   */\n      dup2\n        /* \"#utility.yul\":27178:27309   */\n      tag_367\n      jump\t// in\n    tag_634:\n        /* \"#utility.yul\":27170:27309   */\n      swap1\n      pop\n        /* \"#utility.yul\":26897:27316   */\n      swap2\n      swap1\n      pop\n      jump\t// out\n        /* \"#utility.yul\":27322:28717   */\n    tag_227:\n        /* \"#utility.yul\":27439:27476   */\n      tag_636\n        /* \"#utility.yul\":27472:27475   */\n      dup3\n        /* \"#utility.yul\":27439:27476   */\n      tag_298\n      jump\t// in\n    tag_636:\n        /* \"#utility.yul\":27541:27559   */\n      0xffffffffffffffff\n        /* \"#utility.yul\":27533:27539   */\n      dup2\n        /* \"#utility.yul\":27530:27560   */\n      gt\n        /* \"#utility.yul\":27527:27583   */\n      iszero\n      tag_637\n      jumpi\n        /* \"#utility.yul\":27563:27581   */\n      tag_638\n      tag_317\n      jump\t// in\n    tag_638:\n        /* \"#utility.yul\":27527:27583   */\n    tag_637:\n        /* \"#utility.yul\":27607:27645   */\n      tag_639\n        /* \"#utility.yul\":27639:27643   */\n      dup3\n        /* \"#utility.yul\":27633:27644   */\n      sload\n        /* \"#utility.yul\":27607:27645   */\n      tag_118\n      jump\t// in\n    tag_639:\n        /* \"#utility.yul\":27692:27759   */\n      tag_640\n        /* \"#utility.yul\":27752:27758   */\n      dup3\n        /* \"#utility.yul\":27744:27750   */\n      dup3\n        /* \"#utility.yul\":27738:27742   */\n      dup6\n        /* \"#utility.yul\":27692:27759   */\n      tag_362\n      jump\t// in\n    tag_640:\n        /* \"#utility.yul\":27786:27787   */\n      0x00\n        /* \"#utility.yul\":27810:27814   */\n      0x20\n        /* \"#utility.yul\":27797:27814   */\n      swap1\n      pop\n        /* \"#utility.yul\":27842:27844   */\n      0x1f\n        /* \"#utility.yul\":27834:27840   */\n      dup4\n        /* \"#utility.yul\":27831:27845   */\n      gt\n        /* \"#utility.yul\":27859:27860   */\n      0x01\n        /* \"#utility.yul\":27854:28472   */\n      dup2\n      eq\n      tag_642\n      jumpi\n        /* \"#utility.yul\":28516:28517   */\n      0x00\n        /* \"#utility.yul\":28533:28539   */\n      dup5\n        /* \"#utility.yul\":28530:28607   */\n      iszero\n      tag_643\n      jumpi\n        /* \"#utility.yul\":28582:28591   */\n      dup3\n        /* \"#utility.yul\":28577:28580   */\n      dup8\n        /* \"#utility.yul\":28573:28592   */\n      add\n        /* \"#utility.yul\":28567:28593   */\n      mload\n        /* \"#utility.yul\":28558:28593   */\n      swap1\n      pop\n        /* \"#utility.yul\":28530:28607   */\n    tag_643:\n        /* \"#utility.yul\":28633:28700   */\n      tag_644\n        /* \"#utility.yul\":28693:28699   */\n      dup6\n        /* \"#utility.yul\":28686:28691   */\n      dup3\n        /* \"#utility.yul\":28633:28700   */\n      tag_365\n      jump\t// in\n    tag_644:\n        /* \"#utility.yul\":28627:28631   */\n      dup7\n        /* \"#utility.yul\":28620:28701   */\n      sstore\n        /* \"#utility.yul\":28489:28711   */\n      pop\n        /* \"#utility.yul\":27824:28711   */\n      jump(tag_641)\n        /* \"#utility.yul\":27854:28472   */\n    tag_642:\n        /* \"#utility.yul\":27906:27910   */\n      0x1f\n        /* \"#utility.yul\":27902:27911   */\n      not\n        /* \"#utility.yul\":27894:27900   */\n      dup5\n        /* \"#utility.yul\":27890:27912   */\n      and\n        /* \"#utility.yul\":27940:27977   */\n      tag_645\n        /* \"#utility.yul\":27972:27976   */\n      dup7\n        /* \"#utility.yul\":27940:27977   */\n      tag_351\n      jump\t// in\n    tag_645:\n        /* \"#utility.yul\":27999:28000   */\n      0x00\n        /* \"#utility.yul\":28013:28221   */\n    tag_646:\n        /* \"#utility.yul\":28027:28034   */\n      dup3\n        /* \"#utility.yul\":28024:28025   */\n      dup2\n        /* \"#utility.yul\":28021:28035   */\n      lt\n        /* \"#utility.yul\":28013:28221   */\n      iszero\n      tag_648\n      jumpi\n        /* \"#utility.yul\":28106:28115   */\n      dup5\n        /* \"#utility.yul\":28101:28104   */\n      dup10\n        /* \"#utility.yul\":28097:28116   */\n      add\n        /* \"#utility.yul\":28091:28117   */\n      mload\n        /* \"#utility.yul\":28083:28089   */\n      dup3\n        /* \"#utility.yul\":28076:28118   */\n      sstore\n        /* \"#utility.yul\":28157:28158   */\n      0x01\n        /* \"#utility.yul\":28149:28155   */\n      dup3\n        /* \"#utility.yul\":28145:28159   */\n      add\n        /* \"#utility.yul\":28135:28159   */\n      swap2\n      pop\n        /* \"#utility.yul\":28204:28206   */\n      0x20\n        /* \"#utility.yul\":28193:28202   */\n      dup6\n        /* \"#utility.yul\":28189:28207   */\n      add\n        /* \"#utility.yul\":28176:28207   */\n      swap5\n      pop\n        /* \"#utility.yul\":28050:28054   */\n      0x20\n        /* \"#utility.yul\":28047:28048   */\n      dup2\n        /* \"#utility.yul\":28043:28055   */\n      add\n        /* \"#utility.yul\":28038:28055   */\n      swap1\n      pop\n        /* \"#utility.yul\":28013:28221   */\n      jump(tag_646)\n    tag_648:\n        /* \"#utility.yul\":28249:28255   */\n      dup7\n        /* \"#utility.yul\":28240:28247   */\n      dup4\n        /* \"#utility.yul\":28237:28256   */\n      lt\n        /* \"#utility.yul\":28234:28413   */\n      iszero\n      tag_649\n      jumpi\n        /* \"#utility.yul\":28307:28316   */\n      dup5\n        /* \"#utility.yul\":28302:28305   */\n      dup10\n        /* \"#utility.yul\":28298:28317   */\n      add\n        /* \"#utility.yul\":28292:28318   */\n      mload\n        /* \"#utility.yul\":28350:28398   */\n      tag_650\n        /* \"#utility.yul\":28392:28396   */\n      0x1f\n        /* \"#utility.yul\":28384:28390   */\n      dup10\n        /* \"#utility.yul\":28380:28397   */\n      and\n        /* \"#utility.yul\":28369:28378   */\n      dup3\n        /* \"#utility.yul\":28350:28398   */\n      tag_364\n      jump\t// in\n    tag_650:\n        /* \"#utility.yul\":28342:28348   */\n      dup4\n        /* \"#utility.yul\":28335:28399   */\n      sstore\n        /* \"#utility.yul\":28257:28413   */\n      pop\n        /* \"#utility.yul\":28234:28413   */\n    tag_649:\n        /* \"#utility.yul\":28459:28460   */\n      0x01\n        /* \"#utility.yul\":28455:28456   */\n      0x02\n        /* \"#utility.yul\":28447:28453   */\n      dup9\n        /* \"#utility.yul\":28443:28457   */\n      mul\n        /* \"#utility.yul\":28439:28461   */\n      add\n        /* \"#utility.yul\":28433:28437   */\n      dup9\n        /* \"#utility.yul\":28426:28462   */\n      sstore\n        /* \"#utility.yul\":27861:28472   */\n      pop\n      pop\n      pop\n        /* \"#utility.yul\":27824:28711   */\n    tag_641:\n      pop\n        /* \"#utility.yul\":27414:28717   */\n      pop\n      pop\n      pop\n        /* \"#utility.yul\":27322:28717   */\n      pop\n      pop\n      jump\t// out\n        /* \"#utility.yul\":28723:28892   */\n    tag_368:\n        /* \"#utility.yul\":28863:28884   */\n      0x436f6e7472616374206973207061757365642e00000000000000000000000000\n        /* \"#utility.yul\":28859:28860   */\n      0x00\n        /* \"#utility.yul\":28851:28857   */\n      dup3\n        /* \"#utility.yul\":28847:28861   */\n      add\n        /* \"#utility.yul\":28840:28885   */\n      mstore\n        /* \"#utility.yul\":28723:28892   */\n      pop\n      jump\t// out\n        /* \"#utility.yul\":28898:29264   */\n    tag_369:\n        /* \"#utility.yul\":29040:29043   */\n      0x00\n        /* \"#utility.yul\":29061:29128   */\n      tag_653\n        /* \"#utility.yul\":29125:29127   */\n      0x13\n        /* \"#utility.yul\":29120:29123   */\n      dup4\n        /* \"#utility.yul\":29061:29128   */\n      tag_299\n      jump\t// in\n    tag_653:\n        /* \"#utility.yul\":29054:29128   */\n      swap2\n      pop\n        /* \"#utility.yul\":29137:29230   */\n      tag_654\n        /* \"#utility.yul\":29226:29229   */\n      dup3\n        /* \"#utility.yul\":29137:29230   */\n      tag_368\n      jump\t// in\n    tag_654:\n        /* \"#utility.yul\":29255:29257   */\n      0x20\n        /* \"#utility.yul\":29250:29253   */\n      dup3\n        /* \"#utility.yul\":29246:29258   */\n      add\n        /* \"#utility.yul\":29239:29258   */\n      swap1\n      pop\n        /* \"#utility.yul\":28898:29264   */\n      swap2\n      swap1\n      pop\n      jump\t// out\n        /* \"#utility.yul\":29270:29689   */\n    tag_242:\n        /* \"#utility.yul\":29436:29440   */\n      0x00\n        /* \"#utility.yul\":29474:29476   */\n      0x20\n        /* \"#utility.yul\":29463:29472   */\n      dup3\n        /* \"#utility.yul\":29459:29477   */\n      add\n        /* \"#utility.yul\":29451:29477   */\n      swap1\n      pop\n        /* \"#utility.yul\":29523:29532   */\n      dup2\n        /* \"#utility.yul\":29517:29521   */\n      dup2\n        /* \"#utility.yul\":29513:29533   */\n      sub\n        /* \"#utility.yul\":29509:29510   */\n      0x00\n        /* \"#utility.yul\":29498:29507   */\n      dup4\n        /* \"#utility.yul\":29494:29511   */\n      add\n        /* \"#utility.yul\":29487:29534   */\n      mstore\n        /* \"#utility.yul\":29551:29682   */\n      tag_656\n        /* \"#utility.yul\":29677:29681   */\n      dup2\n        /* \"#utility.yul\":29551:29682   */\n      tag_369\n      jump\t// in\n    tag_656:\n        /* \"#utility.yul\":29543:29682   */\n      swap1\n      pop\n        /* \"#utility.yul\":29270:29689   */\n      swap2\n      swap1\n      pop\n      jump\t// out\n        /* \"#utility.yul\":29695:29860   */\n    tag_370:\n        /* \"#utility.yul\":29835:29852   */\n      0x496e76616c696420746965722e2e2e0000000000000000000000000000000000\n        /* \"#utility.yul\":29831:29832   */\n      0x00\n        /* \"#utility.yul\":29823:29829   */\n      dup3\n        /* \"#utility.yul\":29819:29833   */\n      add\n        /* \"#utility.yul\":29812:29853   */\n      mstore\n        /* \"#utility.yul\":29695:29860   */\n      pop\n      jump\t// out\n        /* \"#utility.yul\":29866:30232   */\n    tag_371:\n        /* \"#utility.yul\":30008:30011   */\n      0x00\n        /* \"#utility.yul\":30029:30096   */\n      tag_659\n        /* \"#utility.yul\":30093:30095   */\n      0x0f\n        /* \"#utility.yul\":30088:30091   */\n      dup4\n        /* \"#utility.yul\":30029:30096   */\n      tag_299\n      jump\t// in\n    tag_659:\n        /* \"#utility.yul\":30022:30096   */\n      swap2\n      pop\n        /* \"#utility.yul\":30105:30198   */\n      tag_660\n        /* \"#utility.yul\":30194:30197   */\n      dup3\n        /* \"#utility.yul\":30105:30198   */\n      tag_370\n      jump\t// in\n    tag_660:\n        /* \"#utility.yul\":30223:30225   */\n      0x20\n        /* \"#utility.yul\":30218:30221   */\n      dup3\n        /* \"#utility.yul\":30214:30226   */\n      add\n        /* \"#utility.yul\":30207:30226   */\n      swap1\n      pop\n        /* \"#utility.yul\":29866:30232   */\n      swap2\n      swap1\n      pop\n      jump\t// out\n        /* \"#utility.yul\":30238:30657   */\n    tag_246:\n        /* \"#utility.yul\":30404:30408   */\n      0x00\n        /* \"#utility.yul\":30442:30444   */\n      0x20\n        /* \"#utility.yul\":30431:30440   */\n      dup3\n        /* \"#utility.yul\":30427:30445   */\n      add\n        /* \"#utility.yul\":30419:30445   */\n      swap1\n      pop\n        /* \"#utility.yul\":30491:30500   */\n      dup2\n        /* \"#utility.yul\":30485:30489   */\n      dup2\n        /* \"#utility.yul\":30481:30501   */\n      sub\n        /* \"#utility.yul\":30477:30478   */\n      0x00\n        /* \"#utility.yul\":30466:30475   */\n      dup4\n        /* \"#utility.yul\":30462:30479   */\n      add\n        /* \"#utility.yul\":30455:30502   */\n      mstore\n        /* \"#utility.yul\":30519:30650   */\n      tag_662\n        /* \"#utility.yul\":30645:30649   */\n      dup2\n        /* \"#utility.yul\":30519:30650   */\n      tag_371\n      jump\t// in\n    tag_662:\n        /* \"#utility.yul\":30511:30650   */\n      swap1\n      pop\n        /* \"#utility.yul\":30238:30657   */\n      swap2\n      swap1\n      pop\n      jump\t// out\n        /* \"#utility.yul\":30663:30832   */\n    tag_372:\n        /* \"#utility.yul\":30803:30824   */\n      0x496e636f727265637420616d6f756e742e2e2e00000000000000000000000000\n        /* \"#utility.yul\":30799:30800   */\n      0x00\n        /* \"#utility.yul\":30791:30797   */\n      dup3\n        /* \"#utility.yul\":30787:30801   */\n      add\n        /* \"#utility.yul\":30780:30825   */\n      mstore\n        /* \"#utility.yul\":30663:30832   */\n      pop\n      jump\t// out\n        /* \"#utility.yul\":30838:31204   */\n    tag_373:\n        /* \"#utility.yul\":30980:30983   */\n      0x00\n        /* \"#utility.yul\":31001:31068   */\n      tag_665\n        /* \"#utility.yul\":31065:31067   */\n      0x13\n        /* \"#utility.yul\":31060:31063   */\n      dup4\n        /* \"#utility.yul\":31001:31068   */\n      tag_299\n      jump\t// in\n    tag_665:\n        /* \"#utility.yul\":30994:31068   */\n      swap2\n      pop\n        /* \"#utility.yul\":31077:31170   */\n      tag_666\n        /* \"#utility.yul\":31166:31169   */\n      dup3\n        /* \"#utility.yul\":31077:31170   */\n      tag_372\n      jump\t// in\n    tag_666:\n        /* \"#utility.yul\":31195:31197   */\n      0x20\n        /* \"#utility.yul\":31190:31193   */\n      dup3\n        /* \"#utility.yul\":31186:31198   */\n      add\n        /* \"#utility.yul\":31179:31198   */\n      swap1\n      pop\n        /* \"#utility.yul\":30838:31204   */\n      swap2\n      swap1\n      pop\n      jump\t// out\n        /* \"#utility.yul\":31210:31629   */\n    tag_252:\n        /* \"#utility.yul\":31376:31380   */\n      0x00\n        /* \"#utility.yul\":31414:31416   */\n      0x20\n        /* \"#utility.yul\":31403:31412   */\n      dup3\n        /* \"#utility.yul\":31399:31417   */\n      add\n        /* \"#utility.yul\":31391:31417   */\n      swap1\n      pop\n        /* \"#utility.yul\":31463:31472   */\n      dup2\n        /* \"#utility.yul\":31457:31461   */\n      dup2\n        /* \"#utility.yul\":31453:31473   */\n      sub\n        /* \"#utility.yul\":31449:31450   */\n      0x00\n        /* \"#utility.yul\":31438:31447   */\n      dup4\n        /* \"#utility.yul\":31434:31451   */\n      add\n        /* \"#utility.yul\":31427:31474   */\n      mstore\n        /* \"#utility.yul\":31491:31622   */\n      tag_668\n        /* \"#utility.yul\":31617:31621   */\n      dup2\n        /* \"#utility.yul\":31491:31622   */\n      tag_373\n      jump\t// in\n    tag_668:\n        /* \"#utility.yul\":31483:31622   */\n      swap1\n      pop\n        /* \"#utility.yul\":31210:31629   */\n      swap2\n      swap1\n      pop\n      jump\t// out\n        /* \"#utility.yul\":31635:31868   */\n    tag_257:\n        /* \"#utility.yul\":31674:31677   */\n      0x00\n        /* \"#utility.yul\":31697:31721   */\n      tag_670\n        /* \"#utility.yul\":31715:31720   */\n      dup3\n        /* \"#utility.yul\":31697:31721   */\n      tag_295\n      jump\t// in\n    tag_670:\n        /* \"#utility.yul\":31688:31721   */\n      swap2\n      pop\n        /* \"#utility.yul\":31743:31809   */\n      0xffffffffffffffffffffffffffffffffffffffffffffffffffffffffffffffff\n        /* \"#utility.yul\":31736:31741   */\n      dup3\n        /* \"#utility.yul\":31733:31810   */\n      sub\n        /* \"#utility.yul\":31730:31833   */\n      tag_671\n      jumpi\n        /* \"#utility.yul\":31813:31831   */\n      tag_672\n      tag_339\n      jump\t// in\n    tag_672:\n        /* \"#utility.yul\":31730:31833   */\n    tag_671:\n        /* \"#utility.yul\":31860:31861   */\n      0x01\n        /* \"#utility.yul\":31853:31858   */\n      dup3\n        /* \"#utility.yul\":31849:31862   */\n      add\n        /* \"#utility.yul\":31842:31862   */\n      swap1\n      pop\n        /* \"#utility.yul\":31635:31868   */\n      swap2\n      swap1\n      pop\n      jump\t// out\n\n    auxdata: 0xa264697066735822122085dbd117ebb9300aea2b3de67dfb139d37f339c38a4fea60fbd50e09bf20eaa364736f6c634300081a0033\n}\n",
				"bytecode": {
					"linkReferences": {},
					"object": "608060405234801561000f575f80fd5b50604051612ae3380380612ae38339818101604052810190610031919061026b565b835f908161003f919061050b565b50826001908161004f919061050b565b508160028190555062015180816100669190610607565b426100719190610648565b6003819055503360045f6101000a81548173ffffffffffffffffffffffffffffffffffffffff021916908373ffffffffffffffffffffffffffffffffffffffff1602179055506002600460156101000a81548160ff021916908360028111156100dd576100dc61067b565b5b0217905550505050506106a8565b5f604051905090565b5f80fd5b5f80fd5b5f80fd5b5f80fd5b5f601f19601f8301169050919050565b7f4e487b71000000000000000000000000000000000000000000000000000000005f52604160045260245ffd5b61014a82610104565b810181811067ffffffffffffffff8211171561016957610168610114565b5b80604052505050565b5f61017b6100eb565b90506101878282610141565b919050565b5f67ffffffffffffffff8211156101a6576101a5610114565b5b6101af82610104565b9050602081019050919050565b8281835e5f83830152505050565b5f6101dc6101d78461018c565b610172565b9050828152602081018484840111156101f8576101f7610100565b5b6102038482856101bc565b509392505050565b5f82601f83011261021f5761021e6100fc565b5b815161022f8482602086016101ca565b91505092915050565b5f819050919050565b61024a81610238565b8114610254575f80fd5b50565b5f8151905061026581610241565b92915050565b5f805f8060808587031215610283576102826100f4565b5b5f85015167ffffffffffffffff8111156102a05761029f6100f8565b5b6102ac8782880161020b565b945050602085015167ffffffffffffffff8111156102cd576102cc6100f8565b5b6102d98782880161020b565b93505060406102ea87828801610257565b92505060606102fb87828801610257565b91505092959194509250565b5f81519050919050565b7f4e487b71000000000000000000000000000000000000000000000000000000005f52602260045260245ffd5b5f600282049050600182168061035557607f821691505b60208210810361036857610367610311565b5b50919050565b5f819050815f5260205f209050919050565b5f6020601f8301049050919050565b5f82821b905092915050565b5f600883026103ca7fffffffffffffffffffffffffffffffffffffffffffffffffffffffffffffffff8261038f565b6103d4868361038f565b95508019841693508086168417925050509392505050565b5f819050919050565b5f61040f61040a61040584610238565b6103ec565b610238565b9050919050565b5f819050919050565b610428836103f5565b61043c61043482610416565b84845461039b565b825550505050565b5f90565b610450610444565b61045b81848461041f565b505050565b5b8181101561047e576104735f82610448565b600181019050610461565b5050565b601f8211156104c3576104948161036e565b61049d84610380565b810160208510156104ac578190505b6104c06104b885610380565b830182610460565b50505b505050565b5f82821c905092915050565b5f6104e35f19846008026104c8565b1980831691505092915050565b5f6104fb83836104d4565b9150826002028217905092915050565b61051482610307565b67ffffffffffffffff81111561052d5761052c610114565b5b610537825461033e565b610542828285610482565b5f60209050601f831160018114610573575f8415610561578287015190505b61056b85826104f0565b8655506105d2565b601f1984166105818661036e565b5f5b828110156105a857848901518255600182019150602085019450602081019050610583565b868310156105c557848901516105c1601f8916826104d4565b8355505b6001600288020188555050505b505050505050565b7f4e487b71000000000000000000000000000000000000000000000000000000005f52601160045260245ffd5b5f61061182610238565b915061061c83610238565b925082820261062a81610238565b91508282048414831517610641576106406105da565b5b5092915050565b5f61065282610238565b915061065d83610238565b9250828201905080821115610675576106746105da565b5b92915050565b7f4e487b71000000000000000000000000000000000000000000000000000000005f52602160045260245ffd5b61242e806106b55f395ff3fe60806040526004361061011e575f3560e01c80637284e4161161009f578063b85dfb8011610063578063b85dfb8014610390578063c19d93fb146103cc578063c4ae3168146103f6578063ca1d209d1461040c578063de170570146104285761011e565b80637284e416146102b05780637497211b146102da5780637adba527146103025780638da5cb5b1461033e5780638ece7b91146103685761011e565b80633ccfd60b116100e65780633ccfd60b14610206578063401938831461021c578063590e1ae3146102465780635c975abb1461025c5780636f9fb98a146102865761011e565b8063039af9eb1461012257806306fdde0314610160578063105505151461018a57806329dcb0cf146101b4578063389b7533146101de575b5f80fd5b34801561012d575f80fd5b5061014860048036038101906101439190611454565b610452565b604051610157939291906114fe565b60405180910390f35b34801561016b575f80fd5b5061017461050d565b604051610181919061153a565b60405180910390f35b348015610195575f80fd5b5061019e610598565b6040516101ab91906115cd565b60405180910390f35b3480156101bf575f80fd5b506101c8610611565b6040516101d591906115e6565b60405180910390f35b3480156101e9575f80fd5b5061020460048036038101906101ff9190611454565b610617565b005b348015610211575f80fd5b5061021a610744565b005b348015610227575f80fd5b506102306108fe565b60405161023d91906115e6565b60405180910390f35b348015610251575f80fd5b5061025a610904565b005b348015610267575f80fd5b50610270610a92565b60405161027d9190611619565b60405180910390f35b348015610291575f80fd5b5061029a610aa5565b6040516102a791906115e6565b60405180910390f35b3480156102bb575f80fd5b506102c4610aac565b6040516102d1919061153a565b60405180910390f35b3480156102e5575f80fd5b5061030060048036038101906102fb9190611454565b610b38565b005b34801561030d575f80fd5b506103286004803603810190610323919061168c565b610cd1565b6040516103359190611619565b60405180910390f35b348015610349575f80fd5b50610352610d36565b60405161035f91906116d9565b60405180910390f35b348015610373575f80fd5b5061038e6004803603810190610389919061181e565b610d5b565b005b34801561039b575f80fd5b506103b660048036038101906103b19190611878565b610e9d565b6040516103c391906115e6565b60405180910390f35b3480156103d7575f80fd5b506103e0610eb7565b6040516103ed91906115cd565b60405180910390f35b348015610401575f80fd5b5061040a610eca565b005b61042660048036038101906104219190611454565b610f85565b005b348015610433575f80fd5b5061043c6111f5565b6040516104499190611a02565b60405180910390f35b60058181548110610461575f80fd5b905f5260205f2090600302015f91509050805f01805461048090611a4f565b80601f01602080910402602001604051908101604052809291908181526020018280546104ac90611a4f565b80156104f75780601f106104ce576101008083540402835291602001916104f7565b820191905f5260205f20905b8154815290600101906020018083116104da57829003601f168201915b5050505050908060010154908060020154905083565b5f805461051990611a4f565b80601f016020809104026020016040519081016040528092919081815260200182805461054590611a4f565b80156105905780601f1061056757610100808354040283529160200191610590565b820191905f5260205f20905b81548152906001019060200180831161057357829003601f168201915b505050505081565b5f6002808111156105ac576105ab61155a565b5b600460159054906101000a900460ff1660028111156105ce576105cd61155a565b5b1480156105dc575060035442115b156105fb576002544710156105f25760016105f4565b5f5b905061060e565b600460159054906101000a900460ff1690505b90565b60035481565b60045f9054906101000a900473ffffffffffffffffffffffffffffffffffffffff1673ffffffffffffffffffffffffffffffffffffffff163373ffffffffffffffffffffffffffffffffffffffff16146106a6576040517f08c379a000000000000000000000000000000000000000000000000000000000815260040161069d90611aef565b60405180910390fd5b6002808111156106b9576106b861155a565b5b600460159054906101000a900460ff1660028111156106db576106da61155a565b5b1461071b576040517f08c379a000000000000000000000000000000000000000000000000000000000815260040161071290611b57565b60405180910390fd5b620151808161072a9190611ba2565b60035f82825461073a9190611be3565b9250508190555050565b60045f9054906101000a900473ffffffffffffffffffffffffffffffffffffffff1673ffffffffffffffffffffffffffffffffffffffff163373ffffffffffffffffffffffffffffffffffffffff16146107d3576040517f08c379a00000000000000000000000000000000000000000000000000000000081526004016107ca90611aef565b60405180910390fd5b6107db6112f4565b5f60028111156107ee576107ed61155a565b5b600460159054906101000a900460ff1660028111156108105761080f61155a565b5b14610850576040517f08c379a000000000000000000000000000000000000000000000000000000000815260040161084790611c60565b60405180910390fd5b5f4790505f8111610896576040517f08c379a000000000000000000000000000000000000000000000000000000000815260040161088d90611cc8565b60405180910390fd5b60045f9054906101000a900473ffffffffffffffffffffffffffffffffffffffff1673ffffffffffffffffffffffffffffffffffffffff166108fc8290811502906040515f60405180830381858888f193505050501580156108fa573d5f803e3d5ffd5b5050565b60025481565b61090c6112f4565b600160028111156109205761091f61155a565b5b600460159054906101000a900460ff1660028111156109425761094161155a565b5b14610982576040517f08c379a000000000000000000000000000000000000000000000000000000000815260040161097990611d30565b60405180910390fd5b5f60065f3373ffffffffffffffffffffffffffffffffffffffff1673ffffffffffffffffffffffffffffffffffffffff1681526020019081526020015f205f015490505f8111610a07576040517f08c379a00000000000000000000000000000000000000000000000000000000081526004016109fe90611d98565b60405180910390fd5b5f60065f3373ffffffffffffffffffffffffffffffffffffffff1673ffffffffffffffffffffffffffffffffffffffff1681526020019081526020015f205f01819055503373ffffffffffffffffffffffffffffffffffffffff166108fc8290811502906040515f60405180830381858888f19350505050158015610a8e573d5f803e3d5ffd5b5050565b600460149054906101000a900460ff1681565b5f47905090565b60018054610ab990611a4f565b80601f0160208091040260200160405190810160405280929190818152602001828054610ae590611a4f565b8015610b305780601f10610b0757610100808354040283529160200191610b30565b820191905f5260205f20905b815481529060010190602001808311610b1357829003601f168201915b505050505081565b60045f9054906101000a900473ffffffffffffffffffffffffffffffffffffffff1673ffffffffffffffffffffffffffffffffffffffff163373ffffffffffffffffffffffffffffffffffffffff1614610bc7576040517f08c379a0000000000000000000000000000000000000000000000000000000008152600401610bbe90611aef565b60405180910390fd5b6005805490508110610c0e576040517f08c379a0000000000000000000000000000000000000000000000000000000008152600401610c0590611e00565b60405180910390fd5b60056001600580549050610c229190611e1e565b81548110610c3357610c32611e51565b5b905f5260205f20906003020160058281548110610c5357610c52611e51565b5b905f5260205f2090600302015f8201815f019081610c719190612030565b5060018201548160010155600282015481600201559050506005805480610c9b57610c9a612115565b5b600190038181905f5260205f2090600302015f8082015f610cbc91906113b8565b600182015f9055600282015f90555050905550565b5f60065f8473ffffffffffffffffffffffffffffffffffffffff1673ffffffffffffffffffffffffffffffffffffffff1681526020019081526020015f206001015f8381526020019081526020015f205f9054906101000a900460ff16905092915050565b60045f9054906101000a900473ffffffffffffffffffffffffffffffffffffffff1681565b60045f9054906101000a900473ffffffffffffffffffffffffffffffffffffffff1673ffffffffffffffffffffffffffffffffffffffff163373ffffffffffffffffffffffffffffffffffffffff1614610dea576040517f08c379a0000000000000000000000000000000000000000000000000000000008152600401610de190611aef565b60405180910390fd5b5f8111610e2c576040517f08c379a0000000000000000000000000000000000000000000000000000000008152600401610e239061218c565b60405180910390fd5b600560405180606001604052808481526020018381526020015f815250908060018154018082558091505060019003905f5260205f2090600302015f909190919091505f820151815f019081610e8291906121aa565b50602082015181600101556040820151816002015550505050565b6006602052805f5260405f205f91509050805f0154905081565b600460159054906101000a900460ff1681565b60045f9054906101000a900473ffffffffffffffffffffffffffffffffffffffff1673ffffffffffffffffffffffffffffffffffffffff163373ffffffffffffffffffffffffffffffffffffffff1614610f59576040517f08c379a0000000000000000000000000000000000000000000000000000000008152600401610f5090611aef565b60405180910390fd5b600460149054906101000a900460ff1615600460146101000a81548160ff021916908315150217905550565b600280811115610f9857610f9761155a565b5b600460159054906101000a900460ff166002811115610fba57610fb961155a565b5b14610ffa576040517f08c379a0000000000000000000000000000000000000000000000000000000008152600401610ff190611b57565b60405180910390fd5b600460149054906101000a900460ff161561104a576040517f08c379a0000000000000000000000000000000000000000000000000000000008152600401611041906122c3565b60405180910390fd5b6005805490508110611091576040517f08c379a00000000000000000000000000000000000000000000000000000000081526004016110889061232b565b60405180910390fd5b600581815481106110a5576110a4611e51565b5b905f5260205f2090600302016001015434146110f6576040517f08c379a00000000000000000000000000000000000000000000000000000000081526004016110ed90612393565b60405180910390fd5b6005818154811061110a57611109611e51565b5b905f5260205f2090600302016002015f815480929190611129906123b1565b91905055503460065f3373ffffffffffffffffffffffffffffffffffffffff1673ffffffffffffffffffffffffffffffffffffffff1681526020019081526020015f205f015f82825461117c9190611be3565b92505081905550600160065f3373ffffffffffffffffffffffffffffffffffffffff1673ffffffffffffffffffffffffffffffffffffffff1681526020019081526020015f206001015f8381526020019081526020015f205f6101000a81548160ff0219169083151502179055506111f26112f4565b50565b60606005805480602002602001604051908101604052809291908181526020015f905b828210156112eb578382905f5260205f2090600302016040518060600160405290815f8201805461124890611a4f565b80601f016020809104026020016040519081016040528092919081815260200182805461127490611a4f565b80156112bf5780601f10611296576101008083540402835291602001916112bf565b820191905f5260205f20905b8154815290600101906020018083116112a257829003601f168201915b505050505081526020016001820154815260200160028201548152505081526020019060010190611218565b50505050905090565b6002808111156113075761130661155a565b5b600460159054906101000a900460ff1660028111156113295761132861155a565b5b036113b65760035442106113785760025447101561134857600161134a565b5f5b600460156101000a81548160ff0219169083600281111561136e5761136d61155a565b5b02179055506113b5565b60025447101561138957600261138b565b5f5b600460156101000a81548160ff021916908360028111156113af576113ae61155a565b5b02179055505b5b565b5080546113c490611a4f565b5f825580601f106113d557506113f2565b601f0160209004905f5260205f20908101906113f191906113f5565b5b50565b5b8082111561140c575f815f9055506001016113f6565b5090565b5f604051905090565b5f80fd5b5f80fd5b5f819050919050565b61143381611421565b811461143d575f80fd5b50565b5f8135905061144e8161142a565b92915050565b5f6020828403121561146957611468611419565b5b5f61147684828501611440565b91505092915050565b5f81519050919050565b5f82825260208201905092915050565b8281835e5f83830152505050565b5f601f19601f8301169050919050565b5f6114c18261147f565b6114cb8185611489565b93506114db818560208601611499565b6114e4816114a7565b840191505092915050565b6114f881611421565b82525050565b5f6060820190508181035f83015261151681866114b7565b905061152560208301856114ef565b61153260408301846114ef565b949350505050565b5f6020820190508181035f83015261155281846114b7565b905092915050565b7f4e487b71000000000000000000000000000000000000000000000000000000005f52602160045260245ffd5b600381106115985761159761155a565b5b50565b5f8190506115a882611587565b919050565b5f6115b78261159b565b9050919050565b6115c7816115ad565b82525050565b5f6020820190506115e05f8301846115be565b92915050565b5f6020820190506115f95f8301846114ef565b92915050565b5f8115159050919050565b611613816115ff565b82525050565b5f60208201905061162c5f83018461160a565b92915050565b5f73ffffffffffffffffffffffffffffffffffffffff82169050919050565b5f61165b82611632565b9050919050565b61166b81611651565b8114611675575f80fd5b50565b5f8135905061168681611662565b92915050565b5f80604083850312156116a2576116a1611419565b5b5f6116af85828601611678565b92505060206116c085828601611440565b9150509250929050565b6116d381611651565b82525050565b5f6020820190506116ec5f8301846116ca565b92915050565b5f80fd5b5f80fd5b7f4e487b71000000000000000000000000000000000000000000000000000000005f52604160045260245ffd5b611730826114a7565b810181811067ffffffffffffffff8211171561174f5761174e6116fa565b5b80604052505050565b5f611761611410565b905061176d8282611727565b919050565b5f67ffffffffffffffff82111561178c5761178b6116fa565b5b611795826114a7565b9050602081019050919050565b828183375f83830152505050565b5f6117c26117bd84611772565b611758565b9050828152602081018484840111156117de576117dd6116f6565b5b6117e98482856117a2565b509392505050565b5f82601f830112611805576118046116f2565b5b81356118158482602086016117b0565b91505092915050565b5f806040838503121561183457611833611419565b5b5f83013567ffffffffffffffff8111156118515761185061141d565b5b61185d858286016117f1565b925050602061186e85828601611440565b9150509250929050565b5f6020828403121561188d5761188c611419565b5b5f61189a84828501611678565b91505092915050565b5f81519050919050565b5f82825260208201905092915050565b5f819050602082019050919050565b5f82825260208201905092915050565b5f6118e68261147f565b6118f081856118cc565b9350611900818560208601611499565b611909816114a7565b840191505092915050565b61191d81611421565b82525050565b5f606083015f8301518482035f86015261193d82826118dc565b91505060208301516119526020860182611914565b5060408301516119656040860182611914565b508091505092915050565b5f61197b8383611923565b905092915050565b5f602082019050919050565b5f611999826118a3565b6119a381856118ad565b9350836020820285016119b5856118bd565b805f5b858110156119f057848403895281516119d18582611970565b94506119dc83611983565b925060208a019950506001810190506119b8565b50829750879550505050505092915050565b5f6020820190508181035f830152611a1a818461198f565b905092915050565b7f4e487b71000000000000000000000000000000000000000000000000000000005f52602260045260245ffd5b5f6002820490506001821680611a6657607f821691505b602082108103611a7957611a78611a22565b5b50919050565b7f4f6e6c7920746865206f776e65722063616e20776974686472617720746865205f8201527f66756e64732e2e2e000000000000000000000000000000000000000000000000602082015250565b5f611ad9602883611489565b9150611ae482611a7f565b604082019050919050565b5f6020820190508181035f830152611b0681611acd565b9050919050565b7f43616d706169676e206973206e6f74206163746976652e2e2e000000000000005f82015250565b5f611b41601983611489565b9150611b4c82611b0d565b602082019050919050565b5f6020820190508181035f830152611b6e81611b35565b9050919050565b7f4e487b71000000000000000000000000000000000000000000000000000000005f52601160045260245ffd5b5f611bac82611421565b9150611bb783611421565b9250828202611bc581611421565b91508282048414831517611bdc57611bdb611b75565b5b5092915050565b5f611bed82611421565b9150611bf883611421565b9250828201905080821115611c1057611c0f611b75565b5b92915050565b7f43616d706169676e206973206e6f74207375636365737366756c2e2e2e0000005f82015250565b5f611c4a601d83611489565b9150611c5582611c16565b602082019050919050565b5f6020820190508181035f830152611c7781611c3e565b9050919050565b7f5468652062616c616e6365206973207a65726f2e2e2e2e0000000000000000005f82015250565b5f611cb2601783611489565b9150611cbd82611c7e565b602082019050919050565b5f6020820190508181035f830152611cdf81611ca6565b9050919050565b7f526566756e6473206e6f7420617661696c61626c652e000000000000000000005f82015250565b5f611d1a601683611489565b9150611d2582611ce6565b602082019050919050565b5f6020820190508181035f830152611d4781611d0e565b9050919050565b7f4e6f20636f6e747269627574696f6e20746f20726566756e64000000000000005f82015250565b5f611d82601983611489565b9150611d8d82611d4e565b602082019050919050565b5f6020820190508181035f830152611daf81611d76565b9050919050565b7f5469657220646f65736e27742065786973742e2e2e00000000000000000000005f82015250565b5f611dea601583611489565b9150611df582611db6565b602082019050919050565b5f6020820190508181035f830152611e1781611dde565b9050919050565b5f611e2882611421565b9150611e3383611421565b9250828203905081811115611e4b57611e4a611b75565b5b92915050565b7f4e487b71000000000000000000000000000000000000000000000000000000005f52603260045260245ffd5b5f81549050611e8c81611a4f565b9050919050565b5f819050815f5260205f209050919050565b5f6020601f8301049050919050565b5f82821b905092915050565b5f60088302611eef7fffffffffffffffffffffffffffffffffffffffffffffffffffffffffffffffff82611eb4565b611ef98683611eb4565b95508019841693508086168417925050509392505050565b5f819050919050565b5f611f34611f2f611f2a84611421565b611f11565b611421565b9050919050565b5f819050919050565b611f4d83611f1a565b611f61611f5982611f3b565b848454611ec0565b825550505050565b5f90565b611f75611f69565b611f80818484611f44565b505050565b5b81811015611fa357611f985f82611f6d565b600181019050611f86565b5050565b601f821115611fe857611fb981611e93565b611fc284611ea5565b81016020851015611fd1578190505b611fe5611fdd85611ea5565b830182611f85565b50505b505050565b5f82821c905092915050565b5f6120085f1984600802611fed565b1980831691505092915050565b5f6120208383611ff9565b9150826002028217905092915050565b81810361203e575050612113565b61204782611e7e565b67ffffffffffffffff8111156120605761205f6116fa565b5b61206a8254611a4f565b612075828285611fa7565b5f601f8311600181146120a2575f8415612090578287015490505b61209a8582612015565b86555061210c565b601f1984166120b087611e93565b96506120bb86611e93565b5f5b828110156120e2578489015482556001820191506001850194506020810190506120bd565b868310156120ff57848901546120fb601f891682611ff9565b8355505b6001600288020188555050505b5050505050505b565b7f4e487b71000000000000000000000000000000000000000000000000000000005f52603160045260245ffd5b7f5468652062616c616e6365206973207a65726f2e2e2e000000000000000000005f82015250565b5f612176601683611489565b915061218182612142565b602082019050919050565b5f6020820190508181035f8301526121a38161216a565b9050919050565b6121b38261147f565b67ffffffffffffffff8111156121cc576121cb6116fa565b5b6121d68254611a4f565b6121e1828285611fa7565b5f60209050601f831160018114612212575f8415612200578287015190505b61220a8582612015565b865550612271565b601f19841661222086611e93565b5f5b8281101561224757848901518255600182019150602085019450602081019050612222565b868310156122645784890151612260601f891682611ff9565b8355505b6001600288020188555050505b505050505050565b7f436f6e7472616374206973207061757365642e000000000000000000000000005f82015250565b5f6122ad601383611489565b91506122b882612279565b602082019050919050565b5f6020820190508181035f8301526122da816122a1565b9050919050565b7f496e76616c696420746965722e2e2e00000000000000000000000000000000005f82015250565b5f612315600f83611489565b9150612320826122e1565b602082019050919050565b5f6020820190508181035f83015261234281612309565b9050919050565b7f496e636f727265637420616d6f756e742e2e2e000000000000000000000000005f82015250565b5f61237d601383611489565b915061238882612349565b602082019050919050565b5f6020820190508181035f8301526123aa81612371565b9050919050565b5f6123bb82611421565b91507fffffffffffffffffffffffffffffffffffffffffffffffffffffffffffffffff82036123ed576123ec611b75565b5b60018201905091905056fea264697066735822122085dbd117ebb9300aea2b3de67dfb139d37f339c38a4fea60fbd50e09bf20eaa364736f6c634300081a0033",
					"opcodes": "PUSH1 0x80 PUSH1 0x40 MSTORE CALLVALUE DUP1 ISZERO PUSH2 0xF JUMPI PUSH0 DUP1 REVERT JUMPDEST POP PUSH1 0x40 MLOAD PUSH2 0x2AE3 CODESIZE SUB DUP1 PUSH2 0x2AE3 DUP4 CODECOPY DUP2 DUP2 ADD PUSH1 0x40 MSTORE DUP2 ADD SWAP1 PUSH2 0x31 SWAP2 SWAP1 PUSH2 0x26B JUMP JUMPDEST DUP4 PUSH0 SWAP1 DUP2 PUSH2 0x3F SWAP2 SWAP1 PUSH2 0x50B JUMP JUMPDEST POP DUP3 PUSH1 0x1 SWAP1 DUP2 PUSH2 0x4F SWAP2 SWAP1 PUSH2 0x50B JUMP JUMPDEST POP DUP2 PUSH1 0x2 DUP2 SWAP1 SSTORE POP PUSH3 0x15180 DUP2 PUSH2 0x66 SWAP2 SWAP1 PUSH2 0x607 JUMP JUMPDEST TIMESTAMP PUSH2 0x71 SWAP2 SWAP1 PUSH2 0x648 JUMP JUMPDEST PUSH1 0x3 DUP2 SWAP1 SSTORE POP CALLER PUSH1 0x4 PUSH0 PUSH2 0x100 EXP DUP2 SLOAD DUP2 PUSH20 0xFFFFFFFFFFFFFFFFFFFFFFFFFFFFFFFFFFFFFFFF MUL NOT AND SWAP1 DUP4 PUSH20 0xFFFFFFFFFFFFFFFFFFFFFFFFFFFFFFFFFFFFFFFF AND MUL OR SWAP1 SSTORE POP PUSH1 0x2 PUSH1 0x4 PUSH1 0x15 PUSH2 0x100 EXP DUP2 SLOAD DUP2 PUSH1 0xFF MUL NOT AND SWAP1 DUP4 PUSH1 0x2 DUP2 GT ISZERO PUSH2 0xDD JUMPI PUSH2 0xDC PUSH2 0x67B JUMP JUMPDEST JUMPDEST MUL OR SWAP1 SSTORE POP POP POP POP POP PUSH2 0x6A8 JUMP JUMPDEST PUSH0 PUSH1 0x40 MLOAD SWAP1 POP SWAP1 JUMP JUMPDEST PUSH0 DUP1 REVERT JUMPDEST PUSH0 DUP1 REVERT JUMPDEST PUSH0 DUP1 REVERT JUMPDEST PUSH0 DUP1 REVERT JUMPDEST PUSH0 PUSH1 0x1F NOT PUSH1 0x1F DUP4 ADD AND SWAP1 POP SWAP2 SWAP1 POP JUMP JUMPDEST PUSH32 0x4E487B7100000000000000000000000000000000000000000000000000000000 PUSH0 MSTORE PUSH1 0x41 PUSH1 0x4 MSTORE PUSH1 0x24 PUSH0 REVERT JUMPDEST PUSH2 0x14A DUP3 PUSH2 0x104 JUMP JUMPDEST DUP2 ADD DUP2 DUP2 LT PUSH8 0xFFFFFFFFFFFFFFFF DUP3 GT OR ISZERO PUSH2 0x169 JUMPI PUSH2 0x168 PUSH2 0x114 JUMP JUMPDEST JUMPDEST DUP1 PUSH1 0x40 MSTORE POP POP POP JUMP JUMPDEST PUSH0 PUSH2 0x17B PUSH2 0xEB JUMP JUMPDEST SWAP1 POP PUSH2 0x187 DUP3 DUP3 PUSH2 0x141 JUMP JUMPDEST SWAP2 SWAP1 POP JUMP JUMPDEST PUSH0 PUSH8 0xFFFFFFFFFFFFFFFF DUP3 GT ISZERO PUSH2 0x1A6 JUMPI PUSH2 0x1A5 PUSH2 0x114 JUMP JUMPDEST JUMPDEST PUSH2 0x1AF DUP3 PUSH2 0x104 JUMP JUMPDEST SWAP1 POP PUSH1 0x20 DUP2 ADD SWAP1 POP SWAP2 SWAP1 POP JUMP JUMPDEST DUP3 DUP2 DUP4 MCOPY PUSH0 DUP4 DUP4 ADD MSTORE POP POP POP JUMP JUMPDEST PUSH0 PUSH2 0x1DC PUSH2 0x1D7 DUP5 PUSH2 0x18C JUMP JUMPDEST PUSH2 0x172 JUMP JUMPDEST SWAP1 POP DUP3 DUP2 MSTORE PUSH1 0x20 DUP2 ADD DUP5 DUP5 DUP5 ADD GT ISZERO PUSH2 0x1F8 JUMPI PUSH2 0x1F7 PUSH2 0x100 JUMP JUMPDEST JUMPDEST PUSH2 0x203 DUP5 DUP3 DUP6 PUSH2 0x1BC JUMP JUMPDEST POP SWAP4 SWAP3 POP POP POP JUMP JUMPDEST PUSH0 DUP3 PUSH1 0x1F DUP4 ADD SLT PUSH2 0x21F JUMPI PUSH2 0x21E PUSH2 0xFC JUMP JUMPDEST JUMPDEST DUP2 MLOAD PUSH2 0x22F DUP5 DUP3 PUSH1 0x20 DUP7 ADD PUSH2 0x1CA JUMP JUMPDEST SWAP2 POP POP SWAP3 SWAP2 POP POP JUMP JUMPDEST PUSH0 DUP2 SWAP1 POP SWAP2 SWAP1 POP JUMP JUMPDEST PUSH2 0x24A DUP2 PUSH2 0x238 JUMP JUMPDEST DUP2 EQ PUSH2 0x254 JUMPI PUSH0 DUP1 REVERT JUMPDEST POP JUMP JUMPDEST PUSH0 DUP2 MLOAD SWAP1 POP PUSH2 0x265 DUP2 PUSH2 0x241 JUMP JUMPDEST SWAP3 SWAP2 POP POP JUMP JUMPDEST PUSH0 DUP1 PUSH0 DUP1 PUSH1 0x80 DUP6 DUP8 SUB SLT ISZERO PUSH2 0x283 JUMPI PUSH2 0x282 PUSH2 0xF4 JUMP JUMPDEST JUMPDEST PUSH0 DUP6 ADD MLOAD PUSH8 0xFFFFFFFFFFFFFFFF DUP2 GT ISZERO PUSH2 0x2A0 JUMPI PUSH2 0x29F PUSH2 0xF8 JUMP JUMPDEST JUMPDEST PUSH2 0x2AC DUP8 DUP3 DUP9 ADD PUSH2 0x20B JUMP JUMPDEST SWAP5 POP POP PUSH1 0x20 DUP6 ADD MLOAD PUSH8 0xFFFFFFFFFFFFFFFF DUP2 GT ISZERO PUSH2 0x2CD JUMPI PUSH2 0x2CC PUSH2 0xF8 JUMP JUMPDEST JUMPDEST PUSH2 0x2D9 DUP8 DUP3 DUP9 ADD PUSH2 0x20B JUMP JUMPDEST SWAP4 POP POP PUSH1 0x40 PUSH2 0x2EA DUP8 DUP3 DUP9 ADD PUSH2 0x257 JUMP JUMPDEST SWAP3 POP POP PUSH1 0x60 PUSH2 0x2FB DUP8 DUP3 DUP9 ADD PUSH2 0x257 JUMP JUMPDEST SWAP2 POP POP SWAP3 SWAP6 SWAP2 SWAP5 POP SWAP3 POP JUMP JUMPDEST PUSH0 DUP2 MLOAD SWAP1 POP SWAP2 SWAP1 POP JUMP JUMPDEST PUSH32 0x4E487B7100000000000000000000000000000000000000000000000000000000 PUSH0 MSTORE PUSH1 0x22 PUSH1 0x4 MSTORE PUSH1 0x24 PUSH0 REVERT JUMPDEST PUSH0 PUSH1 0x2 DUP3 DIV SWAP1 POP PUSH1 0x1 DUP3 AND DUP1 PUSH2 0x355 JUMPI PUSH1 0x7F DUP3 AND SWAP2 POP JUMPDEST PUSH1 0x20 DUP3 LT DUP2 SUB PUSH2 0x368 JUMPI PUSH2 0x367 PUSH2 0x311 JUMP JUMPDEST JUMPDEST POP SWAP2 SWAP1 POP JUMP JUMPDEST PUSH0 DUP2 SWAP1 POP DUP2 PUSH0 MSTORE PUSH1 0x20 PUSH0 KECCAK256 SWAP1 POP SWAP2 SWAP1 POP JUMP JUMPDEST PUSH0 PUSH1 0x20 PUSH1 0x1F DUP4 ADD DIV SWAP1 POP SWAP2 SWAP1 POP JUMP JUMPDEST PUSH0 DUP3 DUP3 SHL SWAP1 POP SWAP3 SWAP2 POP POP JUMP JUMPDEST PUSH0 PUSH1 0x8 DUP4 MUL PUSH2 0x3CA PUSH32 0xFFFFFFFFFFFFFFFFFFFFFFFFFFFFFFFFFFFFFFFFFFFFFFFFFFFFFFFFFFFFFFFF DUP3 PUSH2 0x38F JUMP JUMPDEST PUSH2 0x3D4 DUP7 DUP4 PUSH2 0x38F JUMP JUMPDEST SWAP6 POP DUP1 NOT DUP5 AND SWAP4 POP DUP1 DUP7 AND DUP5 OR SWAP3 POP POP POP SWAP4 SWAP3 POP POP POP JUMP JUMPDEST PUSH0 DUP2 SWAP1 POP SWAP2 SWAP1 POP JUMP JUMPDEST PUSH0 PUSH2 0x40F PUSH2 0x40A PUSH2 0x405 DUP5 PUSH2 0x238 JUMP JUMPDEST PUSH2 0x3EC JUMP JUMPDEST PUSH2 0x238 JUMP JUMPDEST SWAP1 POP SWAP2 SWAP1 POP JUMP JUMPDEST PUSH0 DUP2 SWAP1 POP SWAP2 SWAP1 POP JUMP JUMPDEST PUSH2 0x428 DUP4 PUSH2 0x3F5 JUMP JUMPDEST PUSH2 0x43C PUSH2 0x434 DUP3 PUSH2 0x416 JUMP JUMPDEST DUP5 DUP5 SLOAD PUSH2 0x39B JUMP JUMPDEST DUP3 SSTORE POP POP POP POP JUMP JUMPDEST PUSH0 SWAP1 JUMP JUMPDEST PUSH2 0x450 PUSH2 0x444 JUMP JUMPDEST PUSH2 0x45B DUP2 DUP5 DUP5 PUSH2 0x41F JUMP JUMPDEST POP POP POP JUMP JUMPDEST JUMPDEST DUP2 DUP2 LT ISZERO PUSH2 0x47E JUMPI PUSH2 0x473 PUSH0 DUP3 PUSH2 0x448 JUMP JUMPDEST PUSH1 0x1 DUP2 ADD SWAP1 POP PUSH2 0x461 JUMP JUMPDEST POP POP JUMP JUMPDEST PUSH1 0x1F DUP3 GT ISZERO PUSH2 0x4C3 JUMPI PUSH2 0x494 DUP2 PUSH2 0x36E JUMP JUMPDEST PUSH2 0x49D DUP5 PUSH2 0x380 JUMP JUMPDEST DUP2 ADD PUSH1 0x20 DUP6 LT ISZERO PUSH2 0x4AC JUMPI DUP2 SWAP1 POP JUMPDEST PUSH2 0x4C0 PUSH2 0x4B8 DUP6 PUSH2 0x380 JUMP JUMPDEST DUP4 ADD DUP3 PUSH2 0x460 JUMP JUMPDEST POP POP JUMPDEST POP POP POP JUMP JUMPDEST PUSH0 DUP3 DUP3 SHR SWAP1 POP SWAP3 SWAP2 POP POP JUMP JUMPDEST PUSH0 PUSH2 0x4E3 PUSH0 NOT DUP5 PUSH1 0x8 MUL PUSH2 0x4C8 JUMP JUMPDEST NOT DUP1 DUP4 AND SWAP2 POP POP SWAP3 SWAP2 POP POP JUMP JUMPDEST PUSH0 PUSH2 0x4FB DUP4 DUP4 PUSH2 0x4D4 JUMP JUMPDEST SWAP2 POP DUP3 PUSH1 0x2 MUL DUP3 OR SWAP1 POP SWAP3 SWAP2 POP POP JUMP JUMPDEST PUSH2 0x514 DUP3 PUSH2 0x307 JUMP JUMPDEST PUSH8 0xFFFFFFFFFFFFFFFF DUP2 GT ISZERO PUSH2 0x52D JUMPI PUSH2 0x52C PUSH2 0x114 JUMP JUMPDEST JUMPDEST PUSH2 0x537 DUP3 SLOAD PUSH2 0x33E JUMP JUMPDEST PUSH2 0x542 DUP3 DUP3 DUP6 PUSH2 0x482 JUMP JUMPDEST PUSH0 PUSH1 0x20 SWAP1 POP PUSH1 0x1F DUP4 GT PUSH1 0x1 DUP2 EQ PUSH2 0x573 JUMPI PUSH0 DUP5 ISZERO PUSH2 0x561 JUMPI DUP3 DUP8 ADD MLOAD SWAP1 POP JUMPDEST PUSH2 0x56B DUP6 DUP3 PUSH2 0x4F0 JUMP JUMPDEST DUP7 SSTORE POP PUSH2 0x5D2 JUMP JUMPDEST PUSH1 0x1F NOT DUP5 AND PUSH2 0x581 DUP7 PUSH2 0x36E JUMP JUMPDEST PUSH0 JUMPDEST DUP3 DUP2 LT ISZERO PUSH2 0x5A8 JUMPI DUP5 DUP10 ADD MLOAD DUP3 SSTORE PUSH1 0x1 DUP3 ADD SWAP2 POP PUSH1 0x20 DUP6 ADD SWAP5 POP PUSH1 0x20 DUP2 ADD SWAP1 POP PUSH2 0x583 JUMP JUMPDEST DUP7 DUP4 LT ISZERO PUSH2 0x5C5 JUMPI DUP5 DUP10 ADD MLOAD PUSH2 0x5C1 PUSH1 0x1F DUP10 AND DUP3 PUSH2 0x4D4 JUMP JUMPDEST DUP4 SSTORE POP JUMPDEST PUSH1 0x1 PUSH1 0x2 DUP9 MUL ADD DUP9 SSTORE POP POP POP JUMPDEST POP POP POP POP POP POP JUMP JUMPDEST PUSH32 0x4E487B7100000000000000000000000000000000000000000000000000000000 PUSH0 MSTORE PUSH1 0x11 PUSH1 0x4 MSTORE PUSH1 0x24 PUSH0 REVERT JUMPDEST PUSH0 PUSH2 0x611 DUP3 PUSH2 0x238 JUMP JUMPDEST SWAP2 POP PUSH2 0x61C DUP4 PUSH2 0x238 JUMP JUMPDEST SWAP3 POP DUP3 DUP3 MUL PUSH2 0x62A DUP2 PUSH2 0x238 JUMP JUMPDEST SWAP2 POP DUP3 DUP3 DIV DUP5 EQ DUP4 ISZERO OR PUSH2 0x641 JUMPI PUSH2 0x640 PUSH2 0x5DA JUMP JUMPDEST JUMPDEST POP SWAP3 SWAP2 POP POP JUMP JUMPDEST PUSH0 PUSH2 0x652 DUP3 PUSH2 0x238 JUMP JUMPDEST SWAP2 POP PUSH2 0x65D DUP4 PUSH2 0x238 JUMP JUMPDEST SWAP3 POP DUP3 DUP3 ADD SWAP1 POP DUP1 DUP3 GT ISZERO PUSH2 0x675 JUMPI PUSH2 0x674 PUSH2 0x5DA JUMP JUMPDEST JUMPDEST SWAP3 SWAP2 POP POP JUMP JUMPDEST PUSH32 0x4E487B7100000000000000000000000000000000000000000000000000000000 PUSH0 MSTORE PUSH1 0x21 PUSH1 0x4 MSTORE PUSH1 0x24 PUSH0 REVERT JUMPDEST PUSH2 0x242E DUP1 PUSH2 0x6B5 PUSH0 CODECOPY PUSH0 RETURN INVALID PUSH1 0x80 PUSH1 0x40 MSTORE PUSH1 0x4 CALLDATASIZE LT PUSH2 0x11E JUMPI PUSH0 CALLDATALOAD PUSH1 0xE0 SHR DUP1 PUSH4 0x7284E416 GT PUSH2 0x9F JUMPI DUP1 PUSH4 0xB85DFB80 GT PUSH2 0x63 JUMPI DUP1 PUSH4 0xB85DFB80 EQ PUSH2 0x390 JUMPI DUP1 PUSH4 0xC19D93FB EQ PUSH2 0x3CC JUMPI DUP1 PUSH4 0xC4AE3168 EQ PUSH2 0x3F6 JUMPI DUP1 PUSH4 0xCA1D209D EQ PUSH2 0x40C JUMPI DUP1 PUSH4 0xDE170570 EQ PUSH2 0x428 JUMPI PUSH2 0x11E JUMP JUMPDEST DUP1 PUSH4 0x7284E416 EQ PUSH2 0x2B0 JUMPI DUP1 PUSH4 0x7497211B EQ PUSH2 0x2DA JUMPI DUP1 PUSH4 0x7ADBA527 EQ PUSH2 0x302 JUMPI DUP1 PUSH4 0x8DA5CB5B EQ PUSH2 0x33E JUMPI DUP1 PUSH4 0x8ECE7B91 EQ PUSH2 0x368 JUMPI PUSH2 0x11E JUMP JUMPDEST DUP1 PUSH4 0x3CCFD60B GT PUSH2 0xE6 JUMPI DUP1 PUSH4 0x3CCFD60B EQ PUSH2 0x206 JUMPI DUP1 PUSH4 0x40193883 EQ PUSH2 0x21C JUMPI DUP1 PUSH4 0x590E1AE3 EQ PUSH2 0x246 JUMPI DUP1 PUSH4 0x5C975ABB EQ PUSH2 0x25C JUMPI DUP1 PUSH4 0x6F9FB98A EQ PUSH2 0x286 JUMPI PUSH2 0x11E JUMP JUMPDEST DUP1 PUSH4 0x39AF9EB EQ PUSH2 0x122 JUMPI DUP1 PUSH4 0x6FDDE03 EQ PUSH2 0x160 JUMPI DUP1 PUSH4 0x10550515 EQ PUSH2 0x18A JUMPI DUP1 PUSH4 0x29DCB0CF EQ PUSH2 0x1B4 JUMPI DUP1 PUSH4 0x389B7533 EQ PUSH2 0x1DE JUMPI JUMPDEST PUSH0 DUP1 REVERT JUMPDEST CALLVALUE DUP1 ISZERO PUSH2 0x12D JUMPI PUSH0 DUP1 REVERT JUMPDEST POP PUSH2 0x148 PUSH1 0x4 DUP1 CALLDATASIZE SUB DUP2 ADD SWAP1 PUSH2 0x143 SWAP2 SWAP1 PUSH2 0x1454 JUMP JUMPDEST PUSH2 0x452 JUMP JUMPDEST PUSH1 0x40 MLOAD PUSH2 0x157 SWAP4 SWAP3 SWAP2 SWAP1 PUSH2 0x14FE JUMP JUMPDEST PUSH1 0x40 MLOAD DUP1 SWAP2 SUB SWAP1 RETURN JUMPDEST CALLVALUE DUP1 ISZERO PUSH2 0x16B JUMPI PUSH0 DUP1 REVERT JUMPDEST POP PUSH2 0x174 PUSH2 0x50D JUMP JUMPDEST PUSH1 0x40 MLOAD PUSH2 0x181 SWAP2 SWAP1 PUSH2 0x153A JUMP JUMPDEST PUSH1 0x40 MLOAD DUP1 SWAP2 SUB SWAP1 RETURN JUMPDEST CALLVALUE DUP1 ISZERO PUSH2 0x195 JUMPI PUSH0 DUP1 REVERT JUMPDEST POP PUSH2 0x19E PUSH2 0x598 JUMP JUMPDEST PUSH1 0x40 MLOAD PUSH2 0x1AB SWAP2 SWAP1 PUSH2 0x15CD JUMP JUMPDEST PUSH1 0x40 MLOAD DUP1 SWAP2 SUB SWAP1 RETURN JUMPDEST CALLVALUE DUP1 ISZERO PUSH2 0x1BF JUMPI PUSH0 DUP1 REVERT JUMPDEST POP PUSH2 0x1C8 PUSH2 0x611 JUMP JUMPDEST PUSH1 0x40 MLOAD PUSH2 0x1D5 SWAP2 SWAP1 PUSH2 0x15E6 JUMP JUMPDEST PUSH1 0x40 MLOAD DUP1 SWAP2 SUB SWAP1 RETURN JUMPDEST CALLVALUE DUP1 ISZERO PUSH2 0x1E9 JUMPI PUSH0 DUP1 REVERT JUMPDEST POP PUSH2 0x204 PUSH1 0x4 DUP1 CALLDATASIZE SUB DUP2 ADD SWAP1 PUSH2 0x1FF SWAP2 SWAP1 PUSH2 0x1454 JUMP JUMPDEST PUSH2 0x617 JUMP JUMPDEST STOP JUMPDEST CALLVALUE DUP1 ISZERO PUSH2 0x211 JUMPI PUSH0 DUP1 REVERT JUMPDEST POP PUSH2 0x21A PUSH2 0x744 JUMP JUMPDEST STOP JUMPDEST CALLVALUE DUP1 ISZERO PUSH2 0x227 JUMPI PUSH0 DUP1 REVERT JUMPDEST POP PUSH2 0x230 PUSH2 0x8FE JUMP JUMPDEST PUSH1 0x40 MLOAD PUSH2 0x23D SWAP2 SWAP1 PUSH2 0x15E6 JUMP JUMPDEST PUSH1 0x40 MLOAD DUP1 SWAP2 SUB SWAP1 RETURN JUMPDEST CALLVALUE DUP1 ISZERO PUSH2 0x251 JUMPI PUSH0 DUP1 REVERT JUMPDEST POP PUSH2 0x25A PUSH2 0x904 JUMP JUMPDEST STOP JUMPDEST CALLVALUE DUP1 ISZERO PUSH2 0x267 JUMPI PUSH0 DUP1 REVERT JUMPDEST POP PUSH2 0x270 PUSH2 0xA92 JUMP JUMPDEST PUSH1 0x40 MLOAD PUSH2 0x27D SWAP2 SWAP1 PUSH2 0x1619 JUMP JUMPDEST PUSH1 0x40 MLOAD DUP1 SWAP2 SUB SWAP1 RETURN JUMPDEST CALLVALUE DUP1 ISZERO PUSH2 0x291 JUMPI PUSH0 DUP1 REVERT JUMPDEST POP PUSH2 0x29A PUSH2 0xAA5 JUMP JUMPDEST PUSH1 0x40 MLOAD PUSH2 0x2A7 SWAP2 SWAP1 PUSH2 0x15E6 JUMP JUMPDEST PUSH1 0x40 MLOAD DUP1 SWAP2 SUB SWAP1 RETURN JUMPDEST CALLVALUE DUP1 ISZERO PUSH2 0x2BB JUMPI PUSH0 DUP1 REVERT JUMPDEST POP PUSH2 0x2C4 PUSH2 0xAAC JUMP JUMPDEST PUSH1 0x40 MLOAD PUSH2 0x2D1 SWAP2 SWAP1 PUSH2 0x153A JUMP JUMPDEST PUSH1 0x40 MLOAD DUP1 SWAP2 SUB SWAP1 RETURN JUMPDEST CALLVALUE DUP1 ISZERO PUSH2 0x2E5 JUMPI PUSH0 DUP1 REVERT JUMPDEST POP PUSH2 0x300 PUSH1 0x4 DUP1 CALLDATASIZE SUB DUP2 ADD SWAP1 PUSH2 0x2FB SWAP2 SWAP1 PUSH2 0x1454 JUMP JUMPDEST PUSH2 0xB38 JUMP JUMPDEST STOP JUMPDEST CALLVALUE DUP1 ISZERO PUSH2 0x30D JUMPI PUSH0 DUP1 REVERT JUMPDEST POP PUSH2 0x328 PUSH1 0x4 DUP1 CALLDATASIZE SUB DUP2 ADD SWAP1 PUSH2 0x323 SWAP2 SWAP1 PUSH2 0x168C JUMP JUMPDEST PUSH2 0xCD1 JUMP JUMPDEST PUSH1 0x40 MLOAD PUSH2 0x335 SWAP2 SWAP1 PUSH2 0x1619 JUMP JUMPDEST PUSH1 0x40 MLOAD DUP1 SWAP2 SUB SWAP1 RETURN JUMPDEST CALLVALUE DUP1 ISZERO PUSH2 0x349 JUMPI PUSH0 DUP1 REVERT JUMPDEST POP PUSH2 0x352 PUSH2 0xD36 JUMP JUMPDEST PUSH1 0x40 MLOAD PUSH2 0x35F SWAP2 SWAP1 PUSH2 0x16D9 JUMP JUMPDEST PUSH1 0x40 MLOAD DUP1 SWAP2 SUB SWAP1 RETURN JUMPDEST CALLVALUE DUP1 ISZERO PUSH2 0x373 JUMPI PUSH0 DUP1 REVERT JUMPDEST POP PUSH2 0x38E PUSH1 0x4 DUP1 CALLDATASIZE SUB DUP2 ADD SWAP1 PUSH2 0x389 SWAP2 SWAP1 PUSH2 0x181E JUMP JUMPDEST PUSH2 0xD5B JUMP JUMPDEST STOP JUMPDEST CALLVALUE DUP1 ISZERO PUSH2 0x39B JUMPI PUSH0 DUP1 REVERT JUMPDEST POP PUSH2 0x3B6 PUSH1 0x4 DUP1 CALLDATASIZE SUB DUP2 ADD SWAP1 PUSH2 0x3B1 SWAP2 SWAP1 PUSH2 0x1878 JUMP JUMPDEST PUSH2 0xE9D JUMP JUMPDEST PUSH1 0x40 MLOAD PUSH2 0x3C3 SWAP2 SWAP1 PUSH2 0x15E6 JUMP JUMPDEST PUSH1 0x40 MLOAD DUP1 SWAP2 SUB SWAP1 RETURN JUMPDEST CALLVALUE DUP1 ISZERO PUSH2 0x3D7 JUMPI PUSH0 DUP1 REVERT JUMPDEST POP PUSH2 0x3E0 PUSH2 0xEB7 JUMP JUMPDEST PUSH1 0x40 MLOAD PUSH2 0x3ED SWAP2 SWAP1 PUSH2 0x15CD JUMP JUMPDEST PUSH1 0x40 MLOAD DUP1 SWAP2 SUB SWAP1 RETURN JUMPDEST CALLVALUE DUP1 ISZERO PUSH2 0x401 JUMPI PUSH0 DUP1 REVERT JUMPDEST POP PUSH2 0x40A PUSH2 0xECA JUMP JUMPDEST STOP JUMPDEST PUSH2 0x426 PUSH1 0x4 DUP1 CALLDATASIZE SUB DUP2 ADD SWAP1 PUSH2 0x421 SWAP2 SWAP1 PUSH2 0x1454 JUMP JUMPDEST PUSH2 0xF85 JUMP JUMPDEST STOP JUMPDEST CALLVALUE DUP1 ISZERO PUSH2 0x433 JUMPI PUSH0 DUP1 REVERT JUMPDEST POP PUSH2 0x43C PUSH2 0x11F5 JUMP JUMPDEST PUSH1 0x40 MLOAD PUSH2 0x449 SWAP2 SWAP1 PUSH2 0x1A02 JUMP JUMPDEST PUSH1 0x40 MLOAD DUP1 SWAP2 SUB SWAP1 RETURN JUMPDEST PUSH1 0x5 DUP2 DUP2 SLOAD DUP2 LT PUSH2 0x461 JUMPI PUSH0 DUP1 REVERT JUMPDEST SWAP1 PUSH0 MSTORE PUSH1 0x20 PUSH0 KECCAK256 SWAP1 PUSH1 0x3 MUL ADD PUSH0 SWAP2 POP SWAP1 POP DUP1 PUSH0 ADD DUP1 SLOAD PUSH2 0x480 SWAP1 PUSH2 0x1A4F JUMP JUMPDEST DUP1 PUSH1 0x1F ADD PUSH1 0x20 DUP1 SWAP2 DIV MUL PUSH1 0x20 ADD PUSH1 0x40 MLOAD SWAP1 DUP2 ADD PUSH1 0x40 MSTORE DUP1 SWAP3 SWAP2 SWAP1 DUP2 DUP2 MSTORE PUSH1 0x20 ADD DUP3 DUP1 SLOAD PUSH2 0x4AC SWAP1 PUSH2 0x1A4F JUMP JUMPDEST DUP1 ISZERO PUSH2 0x4F7 JUMPI DUP1 PUSH1 0x1F LT PUSH2 0x4CE JUMPI PUSH2 0x100 DUP1 DUP4 SLOAD DIV MUL DUP4 MSTORE SWAP2 PUSH1 0x20 ADD SWAP2 PUSH2 0x4F7 JUMP JUMPDEST DUP3 ADD SWAP2 SWAP1 PUSH0 MSTORE PUSH1 0x20 PUSH0 KECCAK256 SWAP1 JUMPDEST DUP2 SLOAD DUP2 MSTORE SWAP1 PUSH1 0x1 ADD SWAP1 PUSH1 0x20 ADD DUP1 DUP4 GT PUSH2 0x4DA JUMPI DUP3 SWAP1 SUB PUSH1 0x1F AND DUP3 ADD SWAP2 JUMPDEST POP POP POP POP POP SWAP1 DUP1 PUSH1 0x1 ADD SLOAD SWAP1 DUP1 PUSH1 0x2 ADD SLOAD SWAP1 POP DUP4 JUMP JUMPDEST PUSH0 DUP1 SLOAD PUSH2 0x519 SWAP1 PUSH2 0x1A4F JUMP JUMPDEST DUP1 PUSH1 0x1F ADD PUSH1 0x20 DUP1 SWAP2 DIV MUL PUSH1 0x20 ADD PUSH1 0x40 MLOAD SWAP1 DUP2 ADD PUSH1 0x40 MSTORE DUP1 SWAP3 SWAP2 SWAP1 DUP2 DUP2 MSTORE PUSH1 0x20 ADD DUP3 DUP1 SLOAD PUSH2 0x545 SWAP1 PUSH2 0x1A4F JUMP JUMPDEST DUP1 ISZERO PUSH2 0x590 JUMPI DUP1 PUSH1 0x1F LT PUSH2 0x567 JUMPI PUSH2 0x100 DUP1 DUP4 SLOAD DIV MUL DUP4 MSTORE SWAP2 PUSH1 0x20 ADD SWAP2 PUSH2 0x590 JUMP JUMPDEST DUP3 ADD SWAP2 SWAP1 PUSH0 MSTORE PUSH1 0x20 PUSH0 KECCAK256 SWAP1 JUMPDEST DUP2 SLOAD DUP2 MSTORE SWAP1 PUSH1 0x1 ADD SWAP1 PUSH1 0x20 ADD DUP1 DUP4 GT PUSH2 0x573 JUMPI DUP3 SWAP1 SUB PUSH1 0x1F AND DUP3 ADD SWAP2 JUMPDEST POP POP POP POP POP DUP2 JUMP JUMPDEST PUSH0 PUSH1 0x2 DUP1 DUP2 GT ISZERO PUSH2 0x5AC JUMPI PUSH2 0x5AB PUSH2 0x155A JUMP JUMPDEST JUMPDEST PUSH1 0x4 PUSH1 0x15 SWAP1 SLOAD SWAP1 PUSH2 0x100 EXP SWAP1 DIV PUSH1 0xFF AND PUSH1 0x2 DUP2 GT ISZERO PUSH2 0x5CE JUMPI PUSH2 0x5CD PUSH2 0x155A JUMP JUMPDEST JUMPDEST EQ DUP1 ISZERO PUSH2 0x5DC JUMPI POP PUSH1 0x3 SLOAD TIMESTAMP GT JUMPDEST ISZERO PUSH2 0x5FB JUMPI PUSH1 0x2 SLOAD SELFBALANCE LT ISZERO PUSH2 0x5F2 JUMPI PUSH1 0x1 PUSH2 0x5F4 JUMP JUMPDEST PUSH0 JUMPDEST SWAP1 POP PUSH2 0x60E JUMP JUMPDEST PUSH1 0x4 PUSH1 0x15 SWAP1 SLOAD SWAP1 PUSH2 0x100 EXP SWAP1 DIV PUSH1 0xFF AND SWAP1 POP JUMPDEST SWAP1 JUMP JUMPDEST PUSH1 0x3 SLOAD DUP2 JUMP JUMPDEST PUSH1 0x4 PUSH0 SWAP1 SLOAD SWAP1 PUSH2 0x100 EXP SWAP1 DIV PUSH20 0xFFFFFFFFFFFFFFFFFFFFFFFFFFFFFFFFFFFFFFFF AND PUSH20 0xFFFFFFFFFFFFFFFFFFFFFFFFFFFFFFFFFFFFFFFF AND CALLER PUSH20 0xFFFFFFFFFFFFFFFFFFFFFFFFFFFFFFFFFFFFFFFF AND EQ PUSH2 0x6A6 JUMPI PUSH1 0x40 MLOAD PUSH32 0x8C379A000000000000000000000000000000000000000000000000000000000 DUP2 MSTORE PUSH1 0x4 ADD PUSH2 0x69D SWAP1 PUSH2 0x1AEF JUMP JUMPDEST PUSH1 0x40 MLOAD DUP1 SWAP2 SUB SWAP1 REVERT JUMPDEST PUSH1 0x2 DUP1 DUP2 GT ISZERO PUSH2 0x6B9 JUMPI PUSH2 0x6B8 PUSH2 0x155A JUMP JUMPDEST JUMPDEST PUSH1 0x4 PUSH1 0x15 SWAP1 SLOAD SWAP1 PUSH2 0x100 EXP SWAP1 DIV PUSH1 0xFF AND PUSH1 0x2 DUP2 GT ISZERO PUSH2 0x6DB JUMPI PUSH2 0x6DA PUSH2 0x155A JUMP JUMPDEST JUMPDEST EQ PUSH2 0x71B JUMPI PUSH1 0x40 MLOAD PUSH32 0x8C379A000000000000000000000000000000000000000000000000000000000 DUP2 MSTORE PUSH1 0x4 ADD PUSH2 0x712 SWAP1 PUSH2 0x1B57 JUMP JUMPDEST PUSH1 0x40 MLOAD DUP1 SWAP2 SUB SWAP1 REVERT JUMPDEST PUSH3 0x15180 DUP2 PUSH2 0x72A SWAP2 SWAP1 PUSH2 0x1BA2 JUMP JUMPDEST PUSH1 0x3 PUSH0 DUP3 DUP3 SLOAD PUSH2 0x73A SWAP2 SWAP1 PUSH2 0x1BE3 JUMP JUMPDEST SWAP3 POP POP DUP2 SWAP1 SSTORE POP POP JUMP JUMPDEST PUSH1 0x4 PUSH0 SWAP1 SLOAD SWAP1 PUSH2 0x100 EXP SWAP1 DIV PUSH20 0xFFFFFFFFFFFFFFFFFFFFFFFFFFFFFFFFFFFFFFFF AND PUSH20 0xFFFFFFFFFFFFFFFFFFFFFFFFFFFFFFFFFFFFFFFF AND CALLER PUSH20 0xFFFFFFFFFFFFFFFFFFFFFFFFFFFFFFFFFFFFFFFF AND EQ PUSH2 0x7D3 JUMPI PUSH1 0x40 MLOAD PUSH32 0x8C379A000000000000000000000000000000000000000000000000000000000 DUP2 MSTORE PUSH1 0x4 ADD PUSH2 0x7CA SWAP1 PUSH2 0x1AEF JUMP JUMPDEST PUSH1 0x40 MLOAD DUP1 SWAP2 SUB SWAP1 REVERT JUMPDEST PUSH2 0x7DB PUSH2 0x12F4 JUMP JUMPDEST PUSH0 PUSH1 0x2 DUP2 GT ISZERO PUSH2 0x7EE JUMPI PUSH2 0x7ED PUSH2 0x155A JUMP JUMPDEST JUMPDEST PUSH1 0x4 PUSH1 0x15 SWAP1 SLOAD SWAP1 PUSH2 0x100 EXP SWAP1 DIV PUSH1 0xFF AND PUSH1 0x2 DUP2 GT ISZERO PUSH2 0x810 JUMPI PUSH2 0x80F PUSH2 0x155A JUMP JUMPDEST JUMPDEST EQ PUSH2 0x850 JUMPI PUSH1 0x40 MLOAD PUSH32 0x8C379A000000000000000000000000000000000000000000000000000000000 DUP2 MSTORE PUSH1 0x4 ADD PUSH2 0x847 SWAP1 PUSH2 0x1C60 JUMP JUMPDEST PUSH1 0x40 MLOAD DUP1 SWAP2 SUB SWAP1 REVERT JUMPDEST PUSH0 SELFBALANCE SWAP1 POP PUSH0 DUP2 GT PUSH2 0x896 JUMPI PUSH1 0x40 MLOAD PUSH32 0x8C379A000000000000000000000000000000000000000000000000000000000 DUP2 MSTORE PUSH1 0x4 ADD PUSH2 0x88D SWAP1 PUSH2 0x1CC8 JUMP JUMPDEST PUSH1 0x40 MLOAD DUP1 SWAP2 SUB SWAP1 REVERT JUMPDEST PUSH1 0x4 PUSH0 SWAP1 SLOAD SWAP1 PUSH2 0x100 EXP SWAP1 DIV PUSH20 0xFFFFFFFFFFFFFFFFFFFFFFFFFFFFFFFFFFFFFFFF AND PUSH20 0xFFFFFFFFFFFFFFFFFFFFFFFFFFFFFFFFFFFFFFFF AND PUSH2 0x8FC DUP3 SWAP1 DUP2 ISZERO MUL SWAP1 PUSH1 0x40 MLOAD PUSH0 PUSH1 0x40 MLOAD DUP1 DUP4 SUB DUP2 DUP6 DUP9 DUP9 CALL SWAP4 POP POP POP POP ISZERO DUP1 ISZERO PUSH2 0x8FA JUMPI RETURNDATASIZE PUSH0 DUP1 RETURNDATACOPY RETURNDATASIZE PUSH0 REVERT JUMPDEST POP POP JUMP JUMPDEST PUSH1 0x2 SLOAD DUP2 JUMP JUMPDEST PUSH2 0x90C PUSH2 0x12F4 JUMP JUMPDEST PUSH1 0x1 PUSH1 0x2 DUP2 GT ISZERO PUSH2 0x920 JUMPI PUSH2 0x91F PUSH2 0x155A JUMP JUMPDEST JUMPDEST PUSH1 0x4 PUSH1 0x15 SWAP1 SLOAD SWAP1 PUSH2 0x100 EXP SWAP1 DIV PUSH1 0xFF AND PUSH1 0x2 DUP2 GT ISZERO PUSH2 0x942 JUMPI PUSH2 0x941 PUSH2 0x155A JUMP JUMPDEST JUMPDEST EQ PUSH2 0x982 JUMPI PUSH1 0x40 MLOAD PUSH32 0x8C379A000000000000000000000000000000000000000000000000000000000 DUP2 MSTORE PUSH1 0x4 ADD PUSH2 0x979 SWAP1 PUSH2 0x1D30 JUMP JUMPDEST PUSH1 0x40 MLOAD DUP1 SWAP2 SUB SWAP1 REVERT JUMPDEST PUSH0 PUSH1 0x6 PUSH0 CALLER PUSH20 0xFFFFFFFFFFFFFFFFFFFFFFFFFFFFFFFFFFFFFFFF AND PUSH20 0xFFFFFFFFFFFFFFFFFFFFFFFFFFFFFFFFFFFFFFFF AND DUP2 MSTORE PUSH1 0x20 ADD SWAP1 DUP2 MSTORE PUSH1 0x20 ADD PUSH0 KECCAK256 PUSH0 ADD SLOAD SWAP1 POP PUSH0 DUP2 GT PUSH2 0xA07 JUMPI PUSH1 0x40 MLOAD PUSH32 0x8C379A000000000000000000000000000000000000000000000000000000000 DUP2 MSTORE PUSH1 0x4 ADD PUSH2 0x9FE SWAP1 PUSH2 0x1D98 JUMP JUMPDEST PUSH1 0x40 MLOAD DUP1 SWAP2 SUB SWAP1 REVERT JUMPDEST PUSH0 PUSH1 0x6 PUSH0 CALLER PUSH20 0xFFFFFFFFFFFFFFFFFFFFFFFFFFFFFFFFFFFFFFFF AND PUSH20 0xFFFFFFFFFFFFFFFFFFFFFFFFFFFFFFFFFFFFFFFF AND DUP2 MSTORE PUSH1 0x20 ADD SWAP1 DUP2 MSTORE PUSH1 0x20 ADD PUSH0 KECCAK256 PUSH0 ADD DUP2 SWAP1 SSTORE POP CALLER PUSH20 0xFFFFFFFFFFFFFFFFFFFFFFFFFFFFFFFFFFFFFFFF AND PUSH2 0x8FC DUP3 SWAP1 DUP2 ISZERO MUL SWAP1 PUSH1 0x40 MLOAD PUSH0 PUSH1 0x40 MLOAD DUP1 DUP4 SUB DUP2 DUP6 DUP9 DUP9 CALL SWAP4 POP POP POP POP ISZERO DUP1 ISZERO PUSH2 0xA8E JUMPI RETURNDATASIZE PUSH0 DUP1 RETURNDATACOPY RETURNDATASIZE PUSH0 REVERT JUMPDEST POP POP JUMP JUMPDEST PUSH1 0x4 PUSH1 0x14 SWAP1 SLOAD SWAP1 PUSH2 0x100 EXP SWAP1 DIV PUSH1 0xFF AND DUP2 JUMP JUMPDEST PUSH0 SELFBALANCE SWAP1 POP SWAP1 JUMP JUMPDEST PUSH1 0x1 DUP1 SLOAD PUSH2 0xAB9 SWAP1 PUSH2 0x1A4F JUMP JUMPDEST DUP1 PUSH1 0x1F ADD PUSH1 0x20 DUP1 SWAP2 DIV MUL PUSH1 0x20 ADD PUSH1 0x40 MLOAD SWAP1 DUP2 ADD PUSH1 0x40 MSTORE DUP1 SWAP3 SWAP2 SWAP1 DUP2 DUP2 MSTORE PUSH1 0x20 ADD DUP3 DUP1 SLOAD PUSH2 0xAE5 SWAP1 PUSH2 0x1A4F JUMP JUMPDEST DUP1 ISZERO PUSH2 0xB30 JUMPI DUP1 PUSH1 0x1F LT PUSH2 0xB07 JUMPI PUSH2 0x100 DUP1 DUP4 SLOAD DIV MUL DUP4 MSTORE SWAP2 PUSH1 0x20 ADD SWAP2 PUSH2 0xB30 JUMP JUMPDEST DUP3 ADD SWAP2 SWAP1 PUSH0 MSTORE PUSH1 0x20 PUSH0 KECCAK256 SWAP1 JUMPDEST DUP2 SLOAD DUP2 MSTORE SWAP1 PUSH1 0x1 ADD SWAP1 PUSH1 0x20 ADD DUP1 DUP4 GT PUSH2 0xB13 JUMPI DUP3 SWAP1 SUB PUSH1 0x1F AND DUP3 ADD SWAP2 JUMPDEST POP POP POP POP POP DUP2 JUMP JUMPDEST PUSH1 0x4 PUSH0 SWAP1 SLOAD SWAP1 PUSH2 0x100 EXP SWAP1 DIV PUSH20 0xFFFFFFFFFFFFFFFFFFFFFFFFFFFFFFFFFFFFFFFF AND PUSH20 0xFFFFFFFFFFFFFFFFFFFFFFFFFFFFFFFFFFFFFFFF AND CALLER PUSH20 0xFFFFFFFFFFFFFFFFFFFFFFFFFFFFFFFFFFFFFFFF AND EQ PUSH2 0xBC7 JUMPI PUSH1 0x40 MLOAD PUSH32 0x8C379A000000000000000000000000000000000000000000000000000000000 DUP2 MSTORE PUSH1 0x4 ADD PUSH2 0xBBE SWAP1 PUSH2 0x1AEF JUMP JUMPDEST PUSH1 0x40 MLOAD DUP1 SWAP2 SUB SWAP1 REVERT JUMPDEST PUSH1 0x5 DUP1 SLOAD SWAP1 POP DUP2 LT PUSH2 0xC0E JUMPI PUSH1 0x40 MLOAD PUSH32 0x8C379A000000000000000000000000000000000000000000000000000000000 DUP2 MSTORE PUSH1 0x4 ADD PUSH2 0xC05 SWAP1 PUSH2 0x1E00 JUMP JUMPDEST PUSH1 0x40 MLOAD DUP1 SWAP2 SUB SWAP1 REVERT JUMPDEST PUSH1 0x5 PUSH1 0x1 PUSH1 0x5 DUP1 SLOAD SWAP1 POP PUSH2 0xC22 SWAP2 SWAP1 PUSH2 0x1E1E JUMP JUMPDEST DUP2 SLOAD DUP2 LT PUSH2 0xC33 JUMPI PUSH2 0xC32 PUSH2 0x1E51 JUMP JUMPDEST JUMPDEST SWAP1 PUSH0 MSTORE PUSH1 0x20 PUSH0 KECCAK256 SWAP1 PUSH1 0x3 MUL ADD PUSH1 0x5 DUP3 DUP2 SLOAD DUP2 LT PUSH2 0xC53 JUMPI PUSH2 0xC52 PUSH2 0x1E51 JUMP JUMPDEST JUMPDEST SWAP1 PUSH0 MSTORE PUSH1 0x20 PUSH0 KECCAK256 SWAP1 PUSH1 0x3 MUL ADD PUSH0 DUP3 ADD DUP2 PUSH0 ADD SWAP1 DUP2 PUSH2 0xC71 SWAP2 SWAP1 PUSH2 0x2030 JUMP JUMPDEST POP PUSH1 0x1 DUP3 ADD SLOAD DUP2 PUSH1 0x1 ADD SSTORE PUSH1 0x2 DUP3 ADD SLOAD DUP2 PUSH1 0x2 ADD SSTORE SWAP1 POP POP PUSH1 0x5 DUP1 SLOAD DUP1 PUSH2 0xC9B JUMPI PUSH2 0xC9A PUSH2 0x2115 JUMP JUMPDEST JUMPDEST PUSH1 0x1 SWAP1 SUB DUP2 DUP2 SWAP1 PUSH0 MSTORE PUSH1 0x20 PUSH0 KECCAK256 SWAP1 PUSH1 0x3 MUL ADD PUSH0 DUP1 DUP3 ADD PUSH0 PUSH2 0xCBC SWAP2 SWAP1 PUSH2 0x13B8 JUMP JUMPDEST PUSH1 0x1 DUP3 ADD PUSH0 SWAP1 SSTORE PUSH1 0x2 DUP3 ADD PUSH0 SWAP1 SSTORE POP POP SWAP1 SSTORE POP JUMP JUMPDEST PUSH0 PUSH1 0x6 PUSH0 DUP5 PUSH20 0xFFFFFFFFFFFFFFFFFFFFFFFFFFFFFFFFFFFFFFFF AND PUSH20 0xFFFFFFFFFFFFFFFFFFFFFFFFFFFFFFFFFFFFFFFF AND DUP2 MSTORE PUSH1 0x20 ADD SWAP1 DUP2 MSTORE PUSH1 0x20 ADD PUSH0 KECCAK256 PUSH1 0x1 ADD PUSH0 DUP4 DUP2 MSTORE PUSH1 0x20 ADD SWAP1 DUP2 MSTORE PUSH1 0x20 ADD PUSH0 KECCAK256 PUSH0 SWAP1 SLOAD SWAP1 PUSH2 0x100 EXP SWAP1 DIV PUSH1 0xFF AND SWAP1 POP SWAP3 SWAP2 POP POP JUMP JUMPDEST PUSH1 0x4 PUSH0 SWAP1 SLOAD SWAP1 PUSH2 0x100 EXP SWAP1 DIV PUSH20 0xFFFFFFFFFFFFFFFFFFFFFFFFFFFFFFFFFFFFFFFF AND DUP2 JUMP JUMPDEST PUSH1 0x4 PUSH0 SWAP1 SLOAD SWAP1 PUSH2 0x100 EXP SWAP1 DIV PUSH20 0xFFFFFFFFFFFFFFFFFFFFFFFFFFFFFFFFFFFFFFFF AND PUSH20 0xFFFFFFFFFFFFFFFFFFFFFFFFFFFFFFFFFFFFFFFF AND CALLER PUSH20 0xFFFFFFFFFFFFFFFFFFFFFFFFFFFFFFFFFFFFFFFF AND EQ PUSH2 0xDEA JUMPI PUSH1 0x40 MLOAD PUSH32 0x8C379A000000000000000000000000000000000000000000000000000000000 DUP2 MSTORE PUSH1 0x4 ADD PUSH2 0xDE1 SWAP1 PUSH2 0x1AEF JUMP JUMPDEST PUSH1 0x40 MLOAD DUP1 SWAP2 SUB SWAP1 REVERT JUMPDEST PUSH0 DUP2 GT PUSH2 0xE2C JUMPI PUSH1 0x40 MLOAD PUSH32 0x8C379A000000000000000000000000000000000000000000000000000000000 DUP2 MSTORE PUSH1 0x4 ADD PUSH2 0xE23 SWAP1 PUSH2 0x218C JUMP JUMPDEST PUSH1 0x40 MLOAD DUP1 SWAP2 SUB SWAP1 REVERT JUMPDEST PUSH1 0x5 PUSH1 0x40 MLOAD DUP1 PUSH1 0x60 ADD PUSH1 0x40 MSTORE DUP1 DUP5 DUP2 MSTORE PUSH1 0x20 ADD DUP4 DUP2 MSTORE PUSH1 0x20 ADD PUSH0 DUP2 MSTORE POP SWAP1 DUP1 PUSH1 0x1 DUP2 SLOAD ADD DUP1 DUP3 SSTORE DUP1 SWAP2 POP POP PUSH1 0x1 SWAP1 SUB SWAP1 PUSH0 MSTORE PUSH1 0x20 PUSH0 KECCAK256 SWAP1 PUSH1 0x3 MUL ADD PUSH0 SWAP1 SWAP2 SWAP1 SWAP2 SWAP1 SWAP2 POP PUSH0 DUP3 ADD MLOAD DUP2 PUSH0 ADD SWAP1 DUP2 PUSH2 0xE82 SWAP2 SWAP1 PUSH2 0x21AA JUMP JUMPDEST POP PUSH1 0x20 DUP3 ADD MLOAD DUP2 PUSH1 0x1 ADD SSTORE PUSH1 0x40 DUP3 ADD MLOAD DUP2 PUSH1 0x2 ADD SSTORE POP POP POP POP JUMP JUMPDEST PUSH1 0x6 PUSH1 0x20 MSTORE DUP1 PUSH0 MSTORE PUSH1 0x40 PUSH0 KECCAK256 PUSH0 SWAP2 POP SWAP1 POP DUP1 PUSH0 ADD SLOAD SWAP1 POP DUP2 JUMP JUMPDEST PUSH1 0x4 PUSH1 0x15 SWAP1 SLOAD SWAP1 PUSH2 0x100 EXP SWAP1 DIV PUSH1 0xFF AND DUP2 JUMP JUMPDEST PUSH1 0x4 PUSH0 SWAP1 SLOAD SWAP1 PUSH2 0x100 EXP SWAP1 DIV PUSH20 0xFFFFFFFFFFFFFFFFFFFFFFFFFFFFFFFFFFFFFFFF AND PUSH20 0xFFFFFFFFFFFFFFFFFFFFFFFFFFFFFFFFFFFFFFFF AND CALLER PUSH20 0xFFFFFFFFFFFFFFFFFFFFFFFFFFFFFFFFFFFFFFFF AND EQ PUSH2 0xF59 JUMPI PUSH1 0x40 MLOAD PUSH32 0x8C379A000000000000000000000000000000000000000000000000000000000 DUP2 MSTORE PUSH1 0x4 ADD PUSH2 0xF50 SWAP1 PUSH2 0x1AEF JUMP JUMPDEST PUSH1 0x40 MLOAD DUP1 SWAP2 SUB SWAP1 REVERT JUMPDEST PUSH1 0x4 PUSH1 0x14 SWAP1 SLOAD SWAP1 PUSH2 0x100 EXP SWAP1 DIV PUSH1 0xFF AND ISZERO PUSH1 0x4 PUSH1 0x14 PUSH2 0x100 EXP DUP2 SLOAD DUP2 PUSH1 0xFF MUL NOT AND SWAP1 DUP4 ISZERO ISZERO MUL OR SWAP1 SSTORE POP JUMP JUMPDEST PUSH1 0x2 DUP1 DUP2 GT ISZERO PUSH2 0xF98 JUMPI PUSH2 0xF97 PUSH2 0x155A JUMP JUMPDEST JUMPDEST PUSH1 0x4 PUSH1 0x15 SWAP1 SLOAD SWAP1 PUSH2 0x100 EXP SWAP1 DIV PUSH1 0xFF AND PUSH1 0x2 DUP2 GT ISZERO PUSH2 0xFBA JUMPI PUSH2 0xFB9 PUSH2 0x155A JUMP JUMPDEST JUMPDEST EQ PUSH2 0xFFA JUMPI PUSH1 0x40 MLOAD PUSH32 0x8C379A000000000000000000000000000000000000000000000000000000000 DUP2 MSTORE PUSH1 0x4 ADD PUSH2 0xFF1 SWAP1 PUSH2 0x1B57 JUMP JUMPDEST PUSH1 0x40 MLOAD DUP1 SWAP2 SUB SWAP1 REVERT JUMPDEST PUSH1 0x4 PUSH1 0x14 SWAP1 SLOAD SWAP1 PUSH2 0x100 EXP SWAP1 DIV PUSH1 0xFF AND ISZERO PUSH2 0x104A JUMPI PUSH1 0x40 MLOAD PUSH32 0x8C379A000000000000000000000000000000000000000000000000000000000 DUP2 MSTORE PUSH1 0x4 ADD PUSH2 0x1041 SWAP1 PUSH2 0x22C3 JUMP JUMPDEST PUSH1 0x40 MLOAD DUP1 SWAP2 SUB SWAP1 REVERT JUMPDEST PUSH1 0x5 DUP1 SLOAD SWAP1 POP DUP2 LT PUSH2 0x1091 JUMPI PUSH1 0x40 MLOAD PUSH32 0x8C379A000000000000000000000000000000000000000000000000000000000 DUP2 MSTORE PUSH1 0x4 ADD PUSH2 0x1088 SWAP1 PUSH2 0x232B JUMP JUMPDEST PUSH1 0x40 MLOAD DUP1 SWAP2 SUB SWAP1 REVERT JUMPDEST PUSH1 0x5 DUP2 DUP2 SLOAD DUP2 LT PUSH2 0x10A5 JUMPI PUSH2 0x10A4 PUSH2 0x1E51 JUMP JUMPDEST JUMPDEST SWAP1 PUSH0 MSTORE PUSH1 0x20 PUSH0 KECCAK256 SWAP1 PUSH1 0x3 MUL ADD PUSH1 0x1 ADD SLOAD CALLVALUE EQ PUSH2 0x10F6 JUMPI PUSH1 0x40 MLOAD PUSH32 0x8C379A000000000000000000000000000000000000000000000000000000000 DUP2 MSTORE PUSH1 0x4 ADD PUSH2 0x10ED SWAP1 PUSH2 0x2393 JUMP JUMPDEST PUSH1 0x40 MLOAD DUP1 SWAP2 SUB SWAP1 REVERT JUMPDEST PUSH1 0x5 DUP2 DUP2 SLOAD DUP2 LT PUSH2 0x110A JUMPI PUSH2 0x1109 PUSH2 0x1E51 JUMP JUMPDEST JUMPDEST SWAP1 PUSH0 MSTORE PUSH1 0x20 PUSH0 KECCAK256 SWAP1 PUSH1 0x3 MUL ADD PUSH1 0x2 ADD PUSH0 DUP2 SLOAD DUP1 SWAP3 SWAP2 SWAP1 PUSH2 0x1129 SWAP1 PUSH2 0x23B1 JUMP JUMPDEST SWAP2 SWAP1 POP SSTORE POP CALLVALUE PUSH1 0x6 PUSH0 CALLER PUSH20 0xFFFFFFFFFFFFFFFFFFFFFFFFFFFFFFFFFFFFFFFF AND PUSH20 0xFFFFFFFFFFFFFFFFFFFFFFFFFFFFFFFFFFFFFFFF AND DUP2 MSTORE PUSH1 0x20 ADD SWAP1 DUP2 MSTORE PUSH1 0x20 ADD PUSH0 KECCAK256 PUSH0 ADD PUSH0 DUP3 DUP3 SLOAD PUSH2 0x117C SWAP2 SWAP1 PUSH2 0x1BE3 JUMP JUMPDEST SWAP3 POP POP DUP2 SWAP1 SSTORE POP PUSH1 0x1 PUSH1 0x6 PUSH0 CALLER PUSH20 0xFFFFFFFFFFFFFFFFFFFFFFFFFFFFFFFFFFFFFFFF AND PUSH20 0xFFFFFFFFFFFFFFFFFFFFFFFFFFFFFFFFFFFFFFFF AND DUP2 MSTORE PUSH1 0x20 ADD SWAP1 DUP2 MSTORE PUSH1 0x20 ADD PUSH0 KECCAK256 PUSH1 0x1 ADD PUSH0 DUP4 DUP2 MSTORE PUSH1 0x20 ADD SWAP1 DUP2 MSTORE PUSH1 0x20 ADD PUSH0 KECCAK256 PUSH0 PUSH2 0x100 EXP DUP2 SLOAD DUP2 PUSH1 0xFF MUL NOT AND SWAP1 DUP4 ISZERO ISZERO MUL OR SWAP1 SSTORE POP PUSH2 0x11F2 PUSH2 0x12F4 JUMP JUMPDEST POP JUMP JUMPDEST PUSH1 0x60 PUSH1 0x5 DUP1 SLOAD DUP1 PUSH1 0x20 MUL PUSH1 0x20 ADD PUSH1 0x40 MLOAD SWAP1 DUP2 ADD PUSH1 0x40 MSTORE DUP1 SWAP3 SWAP2 SWAP1 DUP2 DUP2 MSTORE PUSH1 0x20 ADD PUSH0 SWAP1 JUMPDEST DUP3 DUP3 LT ISZERO PUSH2 0x12EB JUMPI DUP4 DUP3 SWAP1 PUSH0 MSTORE PUSH1 0x20 PUSH0 KECCAK256 SWAP1 PUSH1 0x3 MUL ADD PUSH1 0x40 MLOAD DUP1 PUSH1 0x60 ADD PUSH1 0x40 MSTORE SWAP1 DUP2 PUSH0 DUP3 ADD DUP1 SLOAD PUSH2 0x1248 SWAP1 PUSH2 0x1A4F JUMP JUMPDEST DUP1 PUSH1 0x1F ADD PUSH1 0x20 DUP1 SWAP2 DIV MUL PUSH1 0x20 ADD PUSH1 0x40 MLOAD SWAP1 DUP2 ADD PUSH1 0x40 MSTORE DUP1 SWAP3 SWAP2 SWAP1 DUP2 DUP2 MSTORE PUSH1 0x20 ADD DUP3 DUP1 SLOAD PUSH2 0x1274 SWAP1 PUSH2 0x1A4F JUMP JUMPDEST DUP1 ISZERO PUSH2 0x12BF JUMPI DUP1 PUSH1 0x1F LT PUSH2 0x1296 JUMPI PUSH2 0x100 DUP1 DUP4 SLOAD DIV MUL DUP4 MSTORE SWAP2 PUSH1 0x20 ADD SWAP2 PUSH2 0x12BF JUMP JUMPDEST DUP3 ADD SWAP2 SWAP1 PUSH0 MSTORE PUSH1 0x20 PUSH0 KECCAK256 SWAP1 JUMPDEST DUP2 SLOAD DUP2 MSTORE SWAP1 PUSH1 0x1 ADD SWAP1 PUSH1 0x20 ADD DUP1 DUP4 GT PUSH2 0x12A2 JUMPI DUP3 SWAP1 SUB PUSH1 0x1F AND DUP3 ADD SWAP2 JUMPDEST POP POP POP POP POP DUP2 MSTORE PUSH1 0x20 ADD PUSH1 0x1 DUP3 ADD SLOAD DUP2 MSTORE PUSH1 0x20 ADD PUSH1 0x2 DUP3 ADD SLOAD DUP2 MSTORE POP POP DUP2 MSTORE PUSH1 0x20 ADD SWAP1 PUSH1 0x1 ADD SWAP1 PUSH2 0x1218 JUMP JUMPDEST POP POP POP POP SWAP1 POP SWAP1 JUMP JUMPDEST PUSH1 0x2 DUP1 DUP2 GT ISZERO PUSH2 0x1307 JUMPI PUSH2 0x1306 PUSH2 0x155A JUMP JUMPDEST JUMPDEST PUSH1 0x4 PUSH1 0x15 SWAP1 SLOAD SWAP1 PUSH2 0x100 EXP SWAP1 DIV PUSH1 0xFF AND PUSH1 0x2 DUP2 GT ISZERO PUSH2 0x1329 JUMPI PUSH2 0x1328 PUSH2 0x155A JUMP JUMPDEST JUMPDEST SUB PUSH2 0x13B6 JUMPI PUSH1 0x3 SLOAD TIMESTAMP LT PUSH2 0x1378 JUMPI PUSH1 0x2 SLOAD SELFBALANCE LT ISZERO PUSH2 0x1348 JUMPI PUSH1 0x1 PUSH2 0x134A JUMP JUMPDEST PUSH0 JUMPDEST PUSH1 0x4 PUSH1 0x15 PUSH2 0x100 EXP DUP2 SLOAD DUP2 PUSH1 0xFF MUL NOT AND SWAP1 DUP4 PUSH1 0x2 DUP2 GT ISZERO PUSH2 0x136E JUMPI PUSH2 0x136D PUSH2 0x155A JUMP JUMPDEST JUMPDEST MUL OR SWAP1 SSTORE POP PUSH2 0x13B5 JUMP JUMPDEST PUSH1 0x2 SLOAD SELFBALANCE LT ISZERO PUSH2 0x1389 JUMPI PUSH1 0x2 PUSH2 0x138B JUMP JUMPDEST PUSH0 JUMPDEST PUSH1 0x4 PUSH1 0x15 PUSH2 0x100 EXP DUP2 SLOAD DUP2 PUSH1 0xFF MUL NOT AND SWAP1 DUP4 PUSH1 0x2 DUP2 GT ISZERO PUSH2 0x13AF JUMPI PUSH2 0x13AE PUSH2 0x155A JUMP JUMPDEST JUMPDEST MUL OR SWAP1 SSTORE POP JUMPDEST JUMPDEST JUMP JUMPDEST POP DUP1 SLOAD PUSH2 0x13C4 SWAP1 PUSH2 0x1A4F JUMP JUMPDEST PUSH0 DUP3 SSTORE DUP1 PUSH1 0x1F LT PUSH2 0x13D5 JUMPI POP PUSH2 0x13F2 JUMP JUMPDEST PUSH1 0x1F ADD PUSH1 0x20 SWAP1 DIV SWAP1 PUSH0 MSTORE PUSH1 0x20 PUSH0 KECCAK256 SWAP1 DUP2 ADD SWAP1 PUSH2 0x13F1 SWAP2 SWAP1 PUSH2 0x13F5 JUMP JUMPDEST JUMPDEST POP JUMP JUMPDEST JUMPDEST DUP1 DUP3 GT ISZERO PUSH2 0x140C JUMPI PUSH0 DUP2 PUSH0 SWAP1 SSTORE POP PUSH1 0x1 ADD PUSH2 0x13F6 JUMP JUMPDEST POP SWAP1 JUMP JUMPDEST PUSH0 PUSH1 0x40 MLOAD SWAP1 POP SWAP1 JUMP JUMPDEST PUSH0 DUP1 REVERT JUMPDEST PUSH0 DUP1 REVERT JUMPDEST PUSH0 DUP2 SWAP1 POP SWAP2 SWAP1 POP JUMP JUMPDEST PUSH2 0x1433 DUP2 PUSH2 0x1421 JUMP JUMPDEST DUP2 EQ PUSH2 0x143D JUMPI PUSH0 DUP1 REVERT JUMPDEST POP JUMP JUMPDEST PUSH0 DUP2 CALLDATALOAD SWAP1 POP PUSH2 0x144E DUP2 PUSH2 0x142A JUMP JUMPDEST SWAP3 SWAP2 POP POP JUMP JUMPDEST PUSH0 PUSH1 0x20 DUP3 DUP5 SUB SLT ISZERO PUSH2 0x1469 JUMPI PUSH2 0x1468 PUSH2 0x1419 JUMP JUMPDEST JUMPDEST PUSH0 PUSH2 0x1476 DUP5 DUP3 DUP6 ADD PUSH2 0x1440 JUMP JUMPDEST SWAP2 POP POP SWAP3 SWAP2 POP POP JUMP JUMPDEST PUSH0 DUP2 MLOAD SWAP1 POP SWAP2 SWAP1 POP JUMP JUMPDEST PUSH0 DUP3 DUP3 MSTORE PUSH1 0x20 DUP3 ADD SWAP1 POP SWAP3 SWAP2 POP POP JUMP JUMPDEST DUP3 DUP2 DUP4 MCOPY PUSH0 DUP4 DUP4 ADD MSTORE POP POP POP JUMP JUMPDEST PUSH0 PUSH1 0x1F NOT PUSH1 0x1F DUP4 ADD AND SWAP1 POP SWAP2 SWAP1 POP JUMP JUMPDEST PUSH0 PUSH2 0x14C1 DUP3 PUSH2 0x147F JUMP JUMPDEST PUSH2 0x14CB DUP2 DUP6 PUSH2 0x1489 JUMP JUMPDEST SWAP4 POP PUSH2 0x14DB DUP2 DUP6 PUSH1 0x20 DUP7 ADD PUSH2 0x1499 JUMP JUMPDEST PUSH2 0x14E4 DUP2 PUSH2 0x14A7 JUMP JUMPDEST DUP5 ADD SWAP2 POP POP SWAP3 SWAP2 POP POP JUMP JUMPDEST PUSH2 0x14F8 DUP2 PUSH2 0x1421 JUMP JUMPDEST DUP3 MSTORE POP POP JUMP JUMPDEST PUSH0 PUSH1 0x60 DUP3 ADD SWAP1 POP DUP2 DUP2 SUB PUSH0 DUP4 ADD MSTORE PUSH2 0x1516 DUP2 DUP7 PUSH2 0x14B7 JUMP JUMPDEST SWAP1 POP PUSH2 0x1525 PUSH1 0x20 DUP4 ADD DUP6 PUSH2 0x14EF JUMP JUMPDEST PUSH2 0x1532 PUSH1 0x40 DUP4 ADD DUP5 PUSH2 0x14EF JUMP JUMPDEST SWAP5 SWAP4 POP POP POP POP JUMP JUMPDEST PUSH0 PUSH1 0x20 DUP3 ADD SWAP1 POP DUP2 DUP2 SUB PUSH0 DUP4 ADD MSTORE PUSH2 0x1552 DUP2 DUP5 PUSH2 0x14B7 JUMP JUMPDEST SWAP1 POP SWAP3 SWAP2 POP POP JUMP JUMPDEST PUSH32 0x4E487B7100000000000000000000000000000000000000000000000000000000 PUSH0 MSTORE PUSH1 0x21 PUSH1 0x4 MSTORE PUSH1 0x24 PUSH0 REVERT JUMPDEST PUSH1 0x3 DUP2 LT PUSH2 0x1598 JUMPI PUSH2 0x1597 PUSH2 0x155A JUMP JUMPDEST JUMPDEST POP JUMP JUMPDEST PUSH0 DUP2 SWAP1 POP PUSH2 0x15A8 DUP3 PUSH2 0x1587 JUMP JUMPDEST SWAP2 SWAP1 POP JUMP JUMPDEST PUSH0 PUSH2 0x15B7 DUP3 PUSH2 0x159B JUMP JUMPDEST SWAP1 POP SWAP2 SWAP1 POP JUMP JUMPDEST PUSH2 0x15C7 DUP2 PUSH2 0x15AD JUMP JUMPDEST DUP3 MSTORE POP POP JUMP JUMPDEST PUSH0 PUSH1 0x20 DUP3 ADD SWAP1 POP PUSH2 0x15E0 PUSH0 DUP4 ADD DUP5 PUSH2 0x15BE JUMP JUMPDEST SWAP3 SWAP2 POP POP JUMP JUMPDEST PUSH0 PUSH1 0x20 DUP3 ADD SWAP1 POP PUSH2 0x15F9 PUSH0 DUP4 ADD DUP5 PUSH2 0x14EF JUMP JUMPDEST SWAP3 SWAP2 POP POP JUMP JUMPDEST PUSH0 DUP2 ISZERO ISZERO SWAP1 POP SWAP2 SWAP1 POP JUMP JUMPDEST PUSH2 0x1613 DUP2 PUSH2 0x15FF JUMP JUMPDEST DUP3 MSTORE POP POP JUMP JUMPDEST PUSH0 PUSH1 0x20 DUP3 ADD SWAP1 POP PUSH2 0x162C PUSH0 DUP4 ADD DUP5 PUSH2 0x160A JUMP JUMPDEST SWAP3 SWAP2 POP POP JUMP JUMPDEST PUSH0 PUSH20 0xFFFFFFFFFFFFFFFFFFFFFFFFFFFFFFFFFFFFFFFF DUP3 AND SWAP1 POP SWAP2 SWAP1 POP JUMP JUMPDEST PUSH0 PUSH2 0x165B DUP3 PUSH2 0x1632 JUMP JUMPDEST SWAP1 POP SWAP2 SWAP1 POP JUMP JUMPDEST PUSH2 0x166B DUP2 PUSH2 0x1651 JUMP JUMPDEST DUP2 EQ PUSH2 0x1675 JUMPI PUSH0 DUP1 REVERT JUMPDEST POP JUMP JUMPDEST PUSH0 DUP2 CALLDATALOAD SWAP1 POP PUSH2 0x1686 DUP2 PUSH2 0x1662 JUMP JUMPDEST SWAP3 SWAP2 POP POP JUMP JUMPDEST PUSH0 DUP1 PUSH1 0x40 DUP4 DUP6 SUB SLT ISZERO PUSH2 0x16A2 JUMPI PUSH2 0x16A1 PUSH2 0x1419 JUMP JUMPDEST JUMPDEST PUSH0 PUSH2 0x16AF DUP6 DUP3 DUP7 ADD PUSH2 0x1678 JUMP JUMPDEST SWAP3 POP POP PUSH1 0x20 PUSH2 0x16C0 DUP6 DUP3 DUP7 ADD PUSH2 0x1440 JUMP JUMPDEST SWAP2 POP POP SWAP3 POP SWAP3 SWAP1 POP JUMP JUMPDEST PUSH2 0x16D3 DUP2 PUSH2 0x1651 JUMP JUMPDEST DUP3 MSTORE POP POP JUMP JUMPDEST PUSH0 PUSH1 0x20 DUP3 ADD SWAP1 POP PUSH2 0x16EC PUSH0 DUP4 ADD DUP5 PUSH2 0x16CA JUMP JUMPDEST SWAP3 SWAP2 POP POP JUMP JUMPDEST PUSH0 DUP1 REVERT JUMPDEST PUSH0 DUP1 REVERT JUMPDEST PUSH32 0x4E487B7100000000000000000000000000000000000000000000000000000000 PUSH0 MSTORE PUSH1 0x41 PUSH1 0x4 MSTORE PUSH1 0x24 PUSH0 REVERT JUMPDEST PUSH2 0x1730 DUP3 PUSH2 0x14A7 JUMP JUMPDEST DUP2 ADD DUP2 DUP2 LT PUSH8 0xFFFFFFFFFFFFFFFF DUP3 GT OR ISZERO PUSH2 0x174F JUMPI PUSH2 0x174E PUSH2 0x16FA JUMP JUMPDEST JUMPDEST DUP1 PUSH1 0x40 MSTORE POP POP POP JUMP JUMPDEST PUSH0 PUSH2 0x1761 PUSH2 0x1410 JUMP JUMPDEST SWAP1 POP PUSH2 0x176D DUP3 DUP3 PUSH2 0x1727 JUMP JUMPDEST SWAP2 SWAP1 POP JUMP JUMPDEST PUSH0 PUSH8 0xFFFFFFFFFFFFFFFF DUP3 GT ISZERO PUSH2 0x178C JUMPI PUSH2 0x178B PUSH2 0x16FA JUMP JUMPDEST JUMPDEST PUSH2 0x1795 DUP3 PUSH2 0x14A7 JUMP JUMPDEST SWAP1 POP PUSH1 0x20 DUP2 ADD SWAP1 POP SWAP2 SWAP1 POP JUMP JUMPDEST DUP3 DUP2 DUP4 CALLDATACOPY PUSH0 DUP4 DUP4 ADD MSTORE POP POP POP JUMP JUMPDEST PUSH0 PUSH2 0x17C2 PUSH2 0x17BD DUP5 PUSH2 0x1772 JUMP JUMPDEST PUSH2 0x1758 JUMP JUMPDEST SWAP1 POP DUP3 DUP2 MSTORE PUSH1 0x20 DUP2 ADD DUP5 DUP5 DUP5 ADD GT ISZERO PUSH2 0x17DE JUMPI PUSH2 0x17DD PUSH2 0x16F6 JUMP JUMPDEST JUMPDEST PUSH2 0x17E9 DUP5 DUP3 DUP6 PUSH2 0x17A2 JUMP JUMPDEST POP SWAP4 SWAP3 POP POP POP JUMP JUMPDEST PUSH0 DUP3 PUSH1 0x1F DUP4 ADD SLT PUSH2 0x1805 JUMPI PUSH2 0x1804 PUSH2 0x16F2 JUMP JUMPDEST JUMPDEST DUP2 CALLDATALOAD PUSH2 0x1815 DUP5 DUP3 PUSH1 0x20 DUP7 ADD PUSH2 0x17B0 JUMP JUMPDEST SWAP2 POP POP SWAP3 SWAP2 POP POP JUMP JUMPDEST PUSH0 DUP1 PUSH1 0x40 DUP4 DUP6 SUB SLT ISZERO PUSH2 0x1834 JUMPI PUSH2 0x1833 PUSH2 0x1419 JUMP JUMPDEST JUMPDEST PUSH0 DUP4 ADD CALLDATALOAD PUSH8 0xFFFFFFFFFFFFFFFF DUP2 GT ISZERO PUSH2 0x1851 JUMPI PUSH2 0x1850 PUSH2 0x141D JUMP JUMPDEST JUMPDEST PUSH2 0x185D DUP6 DUP3 DUP7 ADD PUSH2 0x17F1 JUMP JUMPDEST SWAP3 POP POP PUSH1 0x20 PUSH2 0x186E DUP6 DUP3 DUP7 ADD PUSH2 0x1440 JUMP JUMPDEST SWAP2 POP POP SWAP3 POP SWAP3 SWAP1 POP JUMP JUMPDEST PUSH0 PUSH1 0x20 DUP3 DUP5 SUB SLT ISZERO PUSH2 0x188D JUMPI PUSH2 0x188C PUSH2 0x1419 JUMP JUMPDEST JUMPDEST PUSH0 PUSH2 0x189A DUP5 DUP3 DUP6 ADD PUSH2 0x1678 JUMP JUMPDEST SWAP2 POP POP SWAP3 SWAP2 POP POP JUMP JUMPDEST PUSH0 DUP2 MLOAD SWAP1 POP SWAP2 SWAP1 POP JUMP JUMPDEST PUSH0 DUP3 DUP3 MSTORE PUSH1 0x20 DUP3 ADD SWAP1 POP SWAP3 SWAP2 POP POP JUMP JUMPDEST PUSH0 DUP2 SWAP1 POP PUSH1 0x20 DUP3 ADD SWAP1 POP SWAP2 SWAP1 POP JUMP JUMPDEST PUSH0 DUP3 DUP3 MSTORE PUSH1 0x20 DUP3 ADD SWAP1 POP SWAP3 SWAP2 POP POP JUMP JUMPDEST PUSH0 PUSH2 0x18E6 DUP3 PUSH2 0x147F JUMP JUMPDEST PUSH2 0x18F0 DUP2 DUP6 PUSH2 0x18CC JUMP JUMPDEST SWAP4 POP PUSH2 0x1900 DUP2 DUP6 PUSH1 0x20 DUP7 ADD PUSH2 0x1499 JUMP JUMPDEST PUSH2 0x1909 DUP2 PUSH2 0x14A7 JUMP JUMPDEST DUP5 ADD SWAP2 POP POP SWAP3 SWAP2 POP POP JUMP JUMPDEST PUSH2 0x191D DUP2 PUSH2 0x1421 JUMP JUMPDEST DUP3 MSTORE POP POP JUMP JUMPDEST PUSH0 PUSH1 0x60 DUP4 ADD PUSH0 DUP4 ADD MLOAD DUP5 DUP3 SUB PUSH0 DUP7 ADD MSTORE PUSH2 0x193D DUP3 DUP3 PUSH2 0x18DC JUMP JUMPDEST SWAP2 POP POP PUSH1 0x20 DUP4 ADD MLOAD PUSH2 0x1952 PUSH1 0x20 DUP7 ADD DUP3 PUSH2 0x1914 JUMP JUMPDEST POP PUSH1 0x40 DUP4 ADD MLOAD PUSH2 0x1965 PUSH1 0x40 DUP7 ADD DUP3 PUSH2 0x1914 JUMP JUMPDEST POP DUP1 SWAP2 POP POP SWAP3 SWAP2 POP POP JUMP JUMPDEST PUSH0 PUSH2 0x197B DUP4 DUP4 PUSH2 0x1923 JUMP JUMPDEST SWAP1 POP SWAP3 SWAP2 POP POP JUMP JUMPDEST PUSH0 PUSH1 0x20 DUP3 ADD SWAP1 POP SWAP2 SWAP1 POP JUMP JUMPDEST PUSH0 PUSH2 0x1999 DUP3 PUSH2 0x18A3 JUMP JUMPDEST PUSH2 0x19A3 DUP2 DUP6 PUSH2 0x18AD JUMP JUMPDEST SWAP4 POP DUP4 PUSH1 0x20 DUP3 MUL DUP6 ADD PUSH2 0x19B5 DUP6 PUSH2 0x18BD JUMP JUMPDEST DUP1 PUSH0 JUMPDEST DUP6 DUP2 LT ISZERO PUSH2 0x19F0 JUMPI DUP5 DUP5 SUB DUP10 MSTORE DUP2 MLOAD PUSH2 0x19D1 DUP6 DUP3 PUSH2 0x1970 JUMP JUMPDEST SWAP5 POP PUSH2 0x19DC DUP4 PUSH2 0x1983 JUMP JUMPDEST SWAP3 POP PUSH1 0x20 DUP11 ADD SWAP10 POP POP PUSH1 0x1 DUP2 ADD SWAP1 POP PUSH2 0x19B8 JUMP JUMPDEST POP DUP3 SWAP8 POP DUP8 SWAP6 POP POP POP POP POP POP SWAP3 SWAP2 POP POP JUMP JUMPDEST PUSH0 PUSH1 0x20 DUP3 ADD SWAP1 POP DUP2 DUP2 SUB PUSH0 DUP4 ADD MSTORE PUSH2 0x1A1A DUP2 DUP5 PUSH2 0x198F JUMP JUMPDEST SWAP1 POP SWAP3 SWAP2 POP POP JUMP JUMPDEST PUSH32 0x4E487B7100000000000000000000000000000000000000000000000000000000 PUSH0 MSTORE PUSH1 0x22 PUSH1 0x4 MSTORE PUSH1 0x24 PUSH0 REVERT JUMPDEST PUSH0 PUSH1 0x2 DUP3 DIV SWAP1 POP PUSH1 0x1 DUP3 AND DUP1 PUSH2 0x1A66 JUMPI PUSH1 0x7F DUP3 AND SWAP2 POP JUMPDEST PUSH1 0x20 DUP3 LT DUP2 SUB PUSH2 0x1A79 JUMPI PUSH2 0x1A78 PUSH2 0x1A22 JUMP JUMPDEST JUMPDEST POP SWAP2 SWAP1 POP JUMP JUMPDEST PUSH32 0x4F6E6C7920746865206F776E65722063616E2077697468647261772074686520 PUSH0 DUP3 ADD MSTORE PUSH32 0x66756E64732E2E2E000000000000000000000000000000000000000000000000 PUSH1 0x20 DUP3 ADD MSTORE POP JUMP JUMPDEST PUSH0 PUSH2 0x1AD9 PUSH1 0x28 DUP4 PUSH2 0x1489 JUMP JUMPDEST SWAP2 POP PUSH2 0x1AE4 DUP3 PUSH2 0x1A7F JUMP JUMPDEST PUSH1 0x40 DUP3 ADD SWAP1 POP SWAP2 SWAP1 POP JUMP JUMPDEST PUSH0 PUSH1 0x20 DUP3 ADD SWAP1 POP DUP2 DUP2 SUB PUSH0 DUP4 ADD MSTORE PUSH2 0x1B06 DUP2 PUSH2 0x1ACD JUMP JUMPDEST SWAP1 POP SWAP2 SWAP1 POP JUMP JUMPDEST PUSH32 0x43616D706169676E206973206E6F74206163746976652E2E2E00000000000000 PUSH0 DUP3 ADD MSTORE POP JUMP JUMPDEST PUSH0 PUSH2 0x1B41 PUSH1 0x19 DUP4 PUSH2 0x1489 JUMP JUMPDEST SWAP2 POP PUSH2 0x1B4C DUP3 PUSH2 0x1B0D JUMP JUMPDEST PUSH1 0x20 DUP3 ADD SWAP1 POP SWAP2 SWAP1 POP JUMP JUMPDEST PUSH0 PUSH1 0x20 DUP3 ADD SWAP1 POP DUP2 DUP2 SUB PUSH0 DUP4 ADD MSTORE PUSH2 0x1B6E DUP2 PUSH2 0x1B35 JUMP JUMPDEST SWAP1 POP SWAP2 SWAP1 POP JUMP JUMPDEST PUSH32 0x4E487B7100000000000000000000000000000000000000000000000000000000 PUSH0 MSTORE PUSH1 0x11 PUSH1 0x4 MSTORE PUSH1 0x24 PUSH0 REVERT JUMPDEST PUSH0 PUSH2 0x1BAC DUP3 PUSH2 0x1421 JUMP JUMPDEST SWAP2 POP PUSH2 0x1BB7 DUP4 PUSH2 0x1421 JUMP JUMPDEST SWAP3 POP DUP3 DUP3 MUL PUSH2 0x1BC5 DUP2 PUSH2 0x1421 JUMP JUMPDEST SWAP2 POP DUP3 DUP3 DIV DUP5 EQ DUP4 ISZERO OR PUSH2 0x1BDC JUMPI PUSH2 0x1BDB PUSH2 0x1B75 JUMP JUMPDEST JUMPDEST POP SWAP3 SWAP2 POP POP JUMP JUMPDEST PUSH0 PUSH2 0x1BED DUP3 PUSH2 0x1421 JUMP JUMPDEST SWAP2 POP PUSH2 0x1BF8 DUP4 PUSH2 0x1421 JUMP JUMPDEST SWAP3 POP DUP3 DUP3 ADD SWAP1 POP DUP1 DUP3 GT ISZERO PUSH2 0x1C10 JUMPI PUSH2 0x1C0F PUSH2 0x1B75 JUMP JUMPDEST JUMPDEST SWAP3 SWAP2 POP POP JUMP JUMPDEST PUSH32 0x43616D706169676E206973206E6F74207375636365737366756C2E2E2E000000 PUSH0 DUP3 ADD MSTORE POP JUMP JUMPDEST PUSH0 PUSH2 0x1C4A PUSH1 0x1D DUP4 PUSH2 0x1489 JUMP JUMPDEST SWAP2 POP PUSH2 0x1C55 DUP3 PUSH2 0x1C16 JUMP JUMPDEST PUSH1 0x20 DUP3 ADD SWAP1 POP SWAP2 SWAP1 POP JUMP JUMPDEST PUSH0 PUSH1 0x20 DUP3 ADD SWAP1 POP DUP2 DUP2 SUB PUSH0 DUP4 ADD MSTORE PUSH2 0x1C77 DUP2 PUSH2 0x1C3E JUMP JUMPDEST SWAP1 POP SWAP2 SWAP1 POP JUMP JUMPDEST PUSH32 0x5468652062616C616E6365206973207A65726F2E2E2E2E000000000000000000 PUSH0 DUP3 ADD MSTORE POP JUMP JUMPDEST PUSH0 PUSH2 0x1CB2 PUSH1 0x17 DUP4 PUSH2 0x1489 JUMP JUMPDEST SWAP2 POP PUSH2 0x1CBD DUP3 PUSH2 0x1C7E JUMP JUMPDEST PUSH1 0x20 DUP3 ADD SWAP1 POP SWAP2 SWAP1 POP JUMP JUMPDEST PUSH0 PUSH1 0x20 DUP3 ADD SWAP1 POP DUP2 DUP2 SUB PUSH0 DUP4 ADD MSTORE PUSH2 0x1CDF DUP2 PUSH2 0x1CA6 JUMP JUMPDEST SWAP1 POP SWAP2 SWAP1 POP JUMP JUMPDEST PUSH32 0x526566756E6473206E6F7420617661696C61626C652E00000000000000000000 PUSH0 DUP3 ADD MSTORE POP JUMP JUMPDEST PUSH0 PUSH2 0x1D1A PUSH1 0x16 DUP4 PUSH2 0x1489 JUMP JUMPDEST SWAP2 POP PUSH2 0x1D25 DUP3 PUSH2 0x1CE6 JUMP JUMPDEST PUSH1 0x20 DUP3 ADD SWAP1 POP SWAP2 SWAP1 POP JUMP JUMPDEST PUSH0 PUSH1 0x20 DUP3 ADD SWAP1 POP DUP2 DUP2 SUB PUSH0 DUP4 ADD MSTORE PUSH2 0x1D47 DUP2 PUSH2 0x1D0E JUMP JUMPDEST SWAP1 POP SWAP2 SWAP1 POP JUMP JUMPDEST PUSH32 0x4E6F20636F6E747269627574696F6E20746F20726566756E6400000000000000 PUSH0 DUP3 ADD MSTORE POP JUMP JUMPDEST PUSH0 PUSH2 0x1D82 PUSH1 0x19 DUP4 PUSH2 0x1489 JUMP JUMPDEST SWAP2 POP PUSH2 0x1D8D DUP3 PUSH2 0x1D4E JUMP JUMPDEST PUSH1 0x20 DUP3 ADD SWAP1 POP SWAP2 SWAP1 POP JUMP JUMPDEST PUSH0 PUSH1 0x20 DUP3 ADD SWAP1 POP DUP2 DUP2 SUB PUSH0 DUP4 ADD MSTORE PUSH2 0x1DAF DUP2 PUSH2 0x1D76 JUMP JUMPDEST SWAP1 POP SWAP2 SWAP1 POP JUMP JUMPDEST PUSH32 0x5469657220646F65736E27742065786973742E2E2E0000000000000000000000 PUSH0 DUP3 ADD MSTORE POP JUMP JUMPDEST PUSH0 PUSH2 0x1DEA PUSH1 0x15 DUP4 PUSH2 0x1489 JUMP JUMPDEST SWAP2 POP PUSH2 0x1DF5 DUP3 PUSH2 0x1DB6 JUMP JUMPDEST PUSH1 0x20 DUP3 ADD SWAP1 POP SWAP2 SWAP1 POP JUMP JUMPDEST PUSH0 PUSH1 0x20 DUP3 ADD SWAP1 POP DUP2 DUP2 SUB PUSH0 DUP4 ADD MSTORE PUSH2 0x1E17 DUP2 PUSH2 0x1DDE JUMP JUMPDEST SWAP1 POP SWAP2 SWAP1 POP JUMP JUMPDEST PUSH0 PUSH2 0x1E28 DUP3 PUSH2 0x1421 JUMP JUMPDEST SWAP2 POP PUSH2 0x1E33 DUP4 PUSH2 0x1421 JUMP JUMPDEST SWAP3 POP DUP3 DUP3 SUB SWAP1 POP DUP2 DUP2 GT ISZERO PUSH2 0x1E4B JUMPI PUSH2 0x1E4A PUSH2 0x1B75 JUMP JUMPDEST JUMPDEST SWAP3 SWAP2 POP POP JUMP JUMPDEST PUSH32 0x4E487B7100000000000000000000000000000000000000000000000000000000 PUSH0 MSTORE PUSH1 0x32 PUSH1 0x4 MSTORE PUSH1 0x24 PUSH0 REVERT JUMPDEST PUSH0 DUP2 SLOAD SWAP1 POP PUSH2 0x1E8C DUP2 PUSH2 0x1A4F JUMP JUMPDEST SWAP1 POP SWAP2 SWAP1 POP JUMP JUMPDEST PUSH0 DUP2 SWAP1 POP DUP2 PUSH0 MSTORE PUSH1 0x20 PUSH0 KECCAK256 SWAP1 POP SWAP2 SWAP1 POP JUMP JUMPDEST PUSH0 PUSH1 0x20 PUSH1 0x1F DUP4 ADD DIV SWAP1 POP SWAP2 SWAP1 POP JUMP JUMPDEST PUSH0 DUP3 DUP3 SHL SWAP1 POP SWAP3 SWAP2 POP POP JUMP JUMPDEST PUSH0 PUSH1 0x8 DUP4 MUL PUSH2 0x1EEF PUSH32 0xFFFFFFFFFFFFFFFFFFFFFFFFFFFFFFFFFFFFFFFFFFFFFFFFFFFFFFFFFFFFFFFF DUP3 PUSH2 0x1EB4 JUMP JUMPDEST PUSH2 0x1EF9 DUP7 DUP4 PUSH2 0x1EB4 JUMP JUMPDEST SWAP6 POP DUP1 NOT DUP5 AND SWAP4 POP DUP1 DUP7 AND DUP5 OR SWAP3 POP POP POP SWAP4 SWAP3 POP POP POP JUMP JUMPDEST PUSH0 DUP2 SWAP1 POP SWAP2 SWAP1 POP JUMP JUMPDEST PUSH0 PUSH2 0x1F34 PUSH2 0x1F2F PUSH2 0x1F2A DUP5 PUSH2 0x1421 JUMP JUMPDEST PUSH2 0x1F11 JUMP JUMPDEST PUSH2 0x1421 JUMP JUMPDEST SWAP1 POP SWAP2 SWAP1 POP JUMP JUMPDEST PUSH0 DUP2 SWAP1 POP SWAP2 SWAP1 POP JUMP JUMPDEST PUSH2 0x1F4D DUP4 PUSH2 0x1F1A JUMP JUMPDEST PUSH2 0x1F61 PUSH2 0x1F59 DUP3 PUSH2 0x1F3B JUMP JUMPDEST DUP5 DUP5 SLOAD PUSH2 0x1EC0 JUMP JUMPDEST DUP3 SSTORE POP POP POP POP JUMP JUMPDEST PUSH0 SWAP1 JUMP JUMPDEST PUSH2 0x1F75 PUSH2 0x1F69 JUMP JUMPDEST PUSH2 0x1F80 DUP2 DUP5 DUP5 PUSH2 0x1F44 JUMP JUMPDEST POP POP POP JUMP JUMPDEST JUMPDEST DUP2 DUP2 LT ISZERO PUSH2 0x1FA3 JUMPI PUSH2 0x1F98 PUSH0 DUP3 PUSH2 0x1F6D JUMP JUMPDEST PUSH1 0x1 DUP2 ADD SWAP1 POP PUSH2 0x1F86 JUMP JUMPDEST POP POP JUMP JUMPDEST PUSH1 0x1F DUP3 GT ISZERO PUSH2 0x1FE8 JUMPI PUSH2 0x1FB9 DUP2 PUSH2 0x1E93 JUMP JUMPDEST PUSH2 0x1FC2 DUP5 PUSH2 0x1EA5 JUMP JUMPDEST DUP2 ADD PUSH1 0x20 DUP6 LT ISZERO PUSH2 0x1FD1 JUMPI DUP2 SWAP1 POP JUMPDEST PUSH2 0x1FE5 PUSH2 0x1FDD DUP6 PUSH2 0x1EA5 JUMP JUMPDEST DUP4 ADD DUP3 PUSH2 0x1F85 JUMP JUMPDEST POP POP JUMPDEST POP POP POP JUMP JUMPDEST PUSH0 DUP3 DUP3 SHR SWAP1 POP SWAP3 SWAP2 POP POP JUMP JUMPDEST PUSH0 PUSH2 0x2008 PUSH0 NOT DUP5 PUSH1 0x8 MUL PUSH2 0x1FED JUMP JUMPDEST NOT DUP1 DUP4 AND SWAP2 POP POP SWAP3 SWAP2 POP POP JUMP JUMPDEST PUSH0 PUSH2 0x2020 DUP4 DUP4 PUSH2 0x1FF9 JUMP JUMPDEST SWAP2 POP DUP3 PUSH1 0x2 MUL DUP3 OR SWAP1 POP SWAP3 SWAP2 POP POP JUMP JUMPDEST DUP2 DUP2 SUB PUSH2 0x203E JUMPI POP POP PUSH2 0x2113 JUMP JUMPDEST PUSH2 0x2047 DUP3 PUSH2 0x1E7E JUMP JUMPDEST PUSH8 0xFFFFFFFFFFFFFFFF DUP2 GT ISZERO PUSH2 0x2060 JUMPI PUSH2 0x205F PUSH2 0x16FA JUMP JUMPDEST JUMPDEST PUSH2 0x206A DUP3 SLOAD PUSH2 0x1A4F JUMP JUMPDEST PUSH2 0x2075 DUP3 DUP3 DUP6 PUSH2 0x1FA7 JUMP JUMPDEST PUSH0 PUSH1 0x1F DUP4 GT PUSH1 0x1 DUP2 EQ PUSH2 0x20A2 JUMPI PUSH0 DUP5 ISZERO PUSH2 0x2090 JUMPI DUP3 DUP8 ADD SLOAD SWAP1 POP JUMPDEST PUSH2 0x209A DUP6 DUP3 PUSH2 0x2015 JUMP JUMPDEST DUP7 SSTORE POP PUSH2 0x210C JUMP JUMPDEST PUSH1 0x1F NOT DUP5 AND PUSH2 0x20B0 DUP8 PUSH2 0x1E93 JUMP JUMPDEST SWAP7 POP PUSH2 0x20BB DUP7 PUSH2 0x1E93 JUMP JUMPDEST PUSH0 JUMPDEST DUP3 DUP2 LT ISZERO PUSH2 0x20E2 JUMPI DUP5 DUP10 ADD SLOAD DUP3 SSTORE PUSH1 0x1 DUP3 ADD SWAP2 POP PUSH1 0x1 DUP6 ADD SWAP5 POP PUSH1 0x20 DUP2 ADD SWAP1 POP PUSH2 0x20BD JUMP JUMPDEST DUP7 DUP4 LT ISZERO PUSH2 0x20FF JUMPI DUP5 DUP10 ADD SLOAD PUSH2 0x20FB PUSH1 0x1F DUP10 AND DUP3 PUSH2 0x1FF9 JUMP JUMPDEST DUP4 SSTORE POP JUMPDEST PUSH1 0x1 PUSH1 0x2 DUP9 MUL ADD DUP9 SSTORE POP POP POP JUMPDEST POP POP POP POP POP POP JUMPDEST JUMP JUMPDEST PUSH32 0x4E487B7100000000000000000000000000000000000000000000000000000000 PUSH0 MSTORE PUSH1 0x31 PUSH1 0x4 MSTORE PUSH1 0x24 PUSH0 REVERT JUMPDEST PUSH32 0x5468652062616C616E6365206973207A65726F2E2E2E00000000000000000000 PUSH0 DUP3 ADD MSTORE POP JUMP JUMPDEST PUSH0 PUSH2 0x2176 PUSH1 0x16 DUP4 PUSH2 0x1489 JUMP JUMPDEST SWAP2 POP PUSH2 0x2181 DUP3 PUSH2 0x2142 JUMP JUMPDEST PUSH1 0x20 DUP3 ADD SWAP1 POP SWAP2 SWAP1 POP JUMP JUMPDEST PUSH0 PUSH1 0x20 DUP3 ADD SWAP1 POP DUP2 DUP2 SUB PUSH0 DUP4 ADD MSTORE PUSH2 0x21A3 DUP2 PUSH2 0x216A JUMP JUMPDEST SWAP1 POP SWAP2 SWAP1 POP JUMP JUMPDEST PUSH2 0x21B3 DUP3 PUSH2 0x147F JUMP JUMPDEST PUSH8 0xFFFFFFFFFFFFFFFF DUP2 GT ISZERO PUSH2 0x21CC JUMPI PUSH2 0x21CB PUSH2 0x16FA JUMP JUMPDEST JUMPDEST PUSH2 0x21D6 DUP3 SLOAD PUSH2 0x1A4F JUMP JUMPDEST PUSH2 0x21E1 DUP3 DUP3 DUP6 PUSH2 0x1FA7 JUMP JUMPDEST PUSH0 PUSH1 0x20 SWAP1 POP PUSH1 0x1F DUP4 GT PUSH1 0x1 DUP2 EQ PUSH2 0x2212 JUMPI PUSH0 DUP5 ISZERO PUSH2 0x2200 JUMPI DUP3 DUP8 ADD MLOAD SWAP1 POP JUMPDEST PUSH2 0x220A DUP6 DUP3 PUSH2 0x2015 JUMP JUMPDEST DUP7 SSTORE POP PUSH2 0x2271 JUMP JUMPDEST PUSH1 0x1F NOT DUP5 AND PUSH2 0x2220 DUP7 PUSH2 0x1E93 JUMP JUMPDEST PUSH0 JUMPDEST DUP3 DUP2 LT ISZERO PUSH2 0x2247 JUMPI DUP5 DUP10 ADD MLOAD DUP3 SSTORE PUSH1 0x1 DUP3 ADD SWAP2 POP PUSH1 0x20 DUP6 ADD SWAP5 POP PUSH1 0x20 DUP2 ADD SWAP1 POP PUSH2 0x2222 JUMP JUMPDEST DUP7 DUP4 LT ISZERO PUSH2 0x2264 JUMPI DUP5 DUP10 ADD MLOAD PUSH2 0x2260 PUSH1 0x1F DUP10 AND DUP3 PUSH2 0x1FF9 JUMP JUMPDEST DUP4 SSTORE POP JUMPDEST PUSH1 0x1 PUSH1 0x2 DUP9 MUL ADD DUP9 SSTORE POP POP POP JUMPDEST POP POP POP POP POP POP JUMP JUMPDEST PUSH32 0x436F6E7472616374206973207061757365642E00000000000000000000000000 PUSH0 DUP3 ADD MSTORE POP JUMP JUMPDEST PUSH0 PUSH2 0x22AD PUSH1 0x13 DUP4 PUSH2 0x1489 JUMP JUMPDEST SWAP2 POP PUSH2 0x22B8 DUP3 PUSH2 0x2279 JUMP JUMPDEST PUSH1 0x20 DUP3 ADD SWAP1 POP SWAP2 SWAP1 POP JUMP JUMPDEST PUSH0 PUSH1 0x20 DUP3 ADD SWAP1 POP DUP2 DUP2 SUB PUSH0 DUP4 ADD MSTORE PUSH2 0x22DA DUP2 PUSH2 0x22A1 JUMP JUMPDEST SWAP1 POP SWAP2 SWAP1 POP JUMP JUMPDEST PUSH32 0x496E76616C696420746965722E2E2E0000000000000000000000000000000000 PUSH0 DUP3 ADD MSTORE POP JUMP JUMPDEST PUSH0 PUSH2 0x2315 PUSH1 0xF DUP4 PUSH2 0x1489 JUMP JUMPDEST SWAP2 POP PUSH2 0x2320 DUP3 PUSH2 0x22E1 JUMP JUMPDEST PUSH1 0x20 DUP3 ADD SWAP1 POP SWAP2 SWAP1 POP JUMP JUMPDEST PUSH0 PUSH1 0x20 DUP3 ADD SWAP1 POP DUP2 DUP2 SUB PUSH0 DUP4 ADD MSTORE PUSH2 0x2342 DUP2 PUSH2 0x2309 JUMP JUMPDEST SWAP1 POP SWAP2 SWAP1 POP JUMP JUMPDEST PUSH32 0x496E636F727265637420616D6F756E742E2E2E00000000000000000000000000 PUSH0 DUP3 ADD MSTORE POP JUMP JUMPDEST PUSH0 PUSH2 0x237D PUSH1 0x13 DUP4 PUSH2 0x1489 JUMP JUMPDEST SWAP2 POP PUSH2 0x2388 DUP3 PUSH2 0x2349 JUMP JUMPDEST PUSH1 0x20 DUP3 ADD SWAP1 POP SWAP2 SWAP1 POP JUMP JUMPDEST PUSH0 PUSH1 0x20 DUP3 ADD SWAP1 POP DUP2 DUP2 SUB PUSH0 DUP4 ADD MSTORE PUSH2 0x23AA DUP2 PUSH2 0x2371 JUMP JUMPDEST SWAP1 POP SWAP2 SWAP1 POP JUMP JUMPDEST PUSH0 PUSH2 0x23BB DUP3 PUSH2 0x1421 JUMP JUMPDEST SWAP2 POP PUSH32 0xFFFFFFFFFFFFFFFFFFFFFFFFFFFFFFFFFFFFFFFFFFFFFFFFFFFFFFFFFFFFFFFF DUP3 SUB PUSH2 0x23ED JUMPI PUSH2 0x23EC PUSH2 0x1B75 JUMP JUMPDEST JUMPDEST PUSH1 0x1 DUP3 ADD SWAP1 POP SWAP2 SWAP1 POP JUMP INVALID LOG2 PUSH5 0x6970667358 0x22 SLT KECCAK256 DUP6 0xDB 0xD1 OR 0xEB 0xB9 ADDRESS EXP 0xEA 0x2B RETURNDATASIZE 0xE6 PUSH30 0xFB139D37F339C38A4FEA60FBD50E09BF20EAA364736F6C634300081A0033 "
				},
				"gasEstimates": {
					"creation": {
						"codeDepositCost": "1852400",
						"executionCost": "infinite",
						"totalCost": "infinite"
					},
					"external": {
						"addTier(string,uint256)": "infinite",
						"backers(address)": "2837",
						"deadline()": "2515",
						"description()": "infinite",
						"extendDeadline(uint256)": "infinite",
						"fund(uint256)": "infinite",
						"getCampaignStatus()": "7075",
						"getContractBalance()": "445",
						"getTiers()": "infinite",
						"goal()": "2470",
						"hasFundedTier(address,uint256)": "3190",
						"name()": "infinite",
						"owner()": "2597",
						"paused()": "2606",
						"refund()": "infinite",
						"removeTier(uint256)": "infinite",
						"state()": "2649",
						"tiers(uint256)": "infinite",
						"togglePause()": "28884",
						"withdraw()": "infinite"
					},
					"internal": {
						"checkAndUpdateCampaignState()": "30879"
					}
				},
				"methodIdentifiers": {
					"addTier(string,uint256)": "8ece7b91",
					"backers(address)": "b85dfb80",
					"deadline()": "29dcb0cf",
					"description()": "7284e416",
					"extendDeadline(uint256)": "389b7533",
					"fund(uint256)": "ca1d209d",
					"getCampaignStatus()": "10550515",
					"getContractBalance()": "6f9fb98a",
					"getTiers()": "de170570",
					"goal()": "40193883",
					"hasFundedTier(address,uint256)": "7adba527",
					"name()": "06fdde03",
					"owner()": "8da5cb5b",
					"paused()": "5c975abb",
					"refund()": "590e1ae3",
					"removeTier(uint256)": "7497211b",
					"state()": "c19d93fb",
					"tiers(uint256)": "039af9eb",
					"togglePause()": "c4ae3168",
					"withdraw()": "3ccfd60b"
				}
			},
			"storageLayout": {
				"storage": [
					{
						"astId": 3,
						"contract": "contracts/crowd_funding.sol:CrowdFunding",
						"label": "name",
						"offset": 0,
						"slot": "0",
						"type": "t_string_storage"
					},
					{
						"astId": 5,
						"contract": "contracts/crowd_funding.sol:CrowdFunding",
						"label": "description",
						"offset": 0,
						"slot": "1",
						"type": "t_string_storage"
					},
					{
						"astId": 7,
						"contract": "contracts/crowd_funding.sol:CrowdFunding",
						"label": "goal",
						"offset": 0,
						"slot": "2",
						"type": "t_uint256"
					},
					{
						"astId": 9,
						"contract": "contracts/crowd_funding.sol:CrowdFunding",
						"label": "deadline",
						"offset": 0,
						"slot": "3",
						"type": "t_uint256"
					},
					{
						"astId": 11,
						"contract": "contracts/crowd_funding.sol:CrowdFunding",
						"label": "owner",
						"offset": 0,
						"slot": "4",
						"type": "t_address"
					},
					{
						"astId": 13,
						"contract": "contracts/crowd_funding.sol:CrowdFunding",
						"label": "paused",
						"offset": 20,
						"slot": "4",
						"type": "t_bool"
					},
					{
						"astId": 20,
						"contract": "contracts/crowd_funding.sol:CrowdFunding",
						"label": "state",
						"offset": 21,
						"slot": "4",
						"type": "t_enum(CampaignState)17"
					},
					{
						"astId": 38,
						"contract": "contracts/crowd_funding.sol:CrowdFunding",
						"label": "tiers",
						"offset": 0,
						"slot": "5",
						"type": "t_array(t_struct(Tier)27_storage)dyn_storage"
					},
					{
						"astId": 43,
						"contract": "contracts/crowd_funding.sol:CrowdFunding",
						"label": "backers",
						"offset": 0,
						"slot": "6",
						"type": "t_mapping(t_address,t_struct(Backer)34_storage)"
					}
				],
				"types": {
					"t_address": {
						"encoding": "inplace",
						"label": "address",
						"numberOfBytes": "20"
					},
					"t_array(t_struct(Tier)27_storage)dyn_storage": {
						"base": "t_struct(Tier)27_storage",
						"encoding": "dynamic_array",
						"label": "struct CrowdFunding.Tier[]",
						"numberOfBytes": "32"
					},
					"t_bool": {
						"encoding": "inplace",
						"label": "bool",
						"numberOfBytes": "1"
					},
					"t_enum(CampaignState)17": {
						"encoding": "inplace",
						"label": "enum CrowdFunding.CampaignState",
						"numberOfBytes": "1"
					},
					"t_mapping(t_address,t_struct(Backer)34_storage)": {
						"encoding": "mapping",
						"key": "t_address",
						"label": "mapping(address => struct CrowdFunding.Backer)",
						"numberOfBytes": "32",
						"value": "t_struct(Backer)34_storage"
					},
					"t_mapping(t_uint256,t_bool)": {
						"encoding": "mapping",
						"key": "t_uint256",
						"label": "mapping(uint256 => bool)",
						"numberOfBytes": "32",
						"value": "t_bool"
					},
					"t_string_storage": {
						"encoding": "bytes",
						"label": "string",
						"numberOfBytes": "32"
					},
					"t_struct(Backer)34_storage": {
						"encoding": "inplace",
						"label": "struct CrowdFunding.Backer",
						"members": [
							{
								"astId": 29,
								"contract": "contracts/crowd_funding.sol:CrowdFunding",
								"label": "totalContribution",
								"offset": 0,
								"slot": "0",
								"type": "t_uint256"
							},
							{
								"astId": 33,
								"contract": "contracts/crowd_funding.sol:CrowdFunding",
								"label": "fundedTiers",
								"offset": 0,
								"slot": "1",
								"type": "t_mapping(t_uint256,t_bool)"
							}
						],
						"numberOfBytes": "64"
					},
					"t_struct(Tier)27_storage": {
						"encoding": "inplace",
						"label": "struct CrowdFunding.Tier",
						"members": [
							{
								"astId": 22,
								"contract": "contracts/crowd_funding.sol:CrowdFunding",
								"label": "name",
								"offset": 0,
								"slot": "0",
								"type": "t_string_storage"
							},
							{
								"astId": 24,
								"contract": "contracts/crowd_funding.sol:CrowdFunding",
								"label": "amount",
								"offset": 0,
								"slot": "1",
								"type": "t_uint256"
							},
							{
								"astId": 26,
								"contract": "contracts/crowd_funding.sol:CrowdFunding",
								"label": "backers",
								"offset": 0,
								"slot": "2",
								"type": "t_uint256"
							}
						],
						"numberOfBytes": "96"
					},
					"t_uint256": {
						"encoding": "inplace",
						"label": "uint256",
						"numberOfBytes": "32"
					}
				}
			},
			"userdoc": {
				"kind": "user",
				"methods": {},
				"version": 1
			}
		}
	}
}